:1000000000800010A1970000E9970000E997000028
:10001000E9970000E9970000E99700000000000060
:10002000000000000000000000000000E997000050
:10003000E997000000000000E9970000BDAC000057
:10004000E9970000E9970000E9970000E9970000B0
:10005000E9970000E9970000E9970000E9970000A0
:10006000E9970000E9970000E9970000E997000090
:10007000E9970000E9970000E9970000E997000080
:10008000E9970000E9970000E9970000E997000070
:10009000E9970000E9970000E9970000E997000060
:1000A000E9970000E9970000E9970000E997000050
:1000B000E9970000E9970000E9970000E997000040
:0C00C000E9970000E9970000E9970000B4
:1000CC0010B5054C237833B9044B13B10448AFF386
:1000DC0000800123237010BDC80100100000000037
:1000EC001087010008B5034B1BB103490348AFF35C
:1000FC00008008BD00000000CC010010108701003A
:10010C00A3F5803A704700BF174B002B08BF134B69
:10011C009D46FFF7F5FF00218B460F461348144A06
:10012C00121A16F099FA0E4B002B00D098470D4B73
:10013C00002B00D098470020002104000D000D4832
:10014C00002802D00C48AFF3008016F033FA2000E0
:10015C00290001F0FBFB16F0F9F900BF00000800C4
:10016C00000000000000000000000000C8010010AA
:10017C00BC0A0010000000000000000053B94AB98E
:10018C00002908BF00281CBF4FF0FF314FF0FF3093
:10019C0000F076B9ADF1080C6DE904CE00F006F86C
:1001AC00DDF804E0DDE9022304B070472DE9F047E7
:1001BC00089E0D4604468846002B4DD18A42944633
:1001CC0068D9B2FA82F252B101FA02F3C2F12001FB
:1001DC0020FA01F10CFA02FC41EA030894404FEAC0
:1001EC001C41B8FBF1F71FFA8CFE01FB178807FBCB
:1001FC000EF0230C43EA084398420AD91CEB030384
:10020C0007F1FF3580F01E81984240F21B81023FBE
:10021C0063441B1AB3FBF1F001FB103300FB0EFE21
:10022C00A4B244EA0344A6450AD91CEB040400F129
:10023C00FF3380F00981A64540F206816444023800
:10024C000021A4EB0E0440EA07401EB10023D44069
:10025C00C6E90043BDE8F0878B4208D9002E00F0B8
:10026C00EE800021C6E900050846BDE8F087B3FA28
:10027C0083F100294AD1AB4202D3824200F2FC80C6
:10028C00841A65EB030301209846002EE2D0C6E9E0
:10029C000048DFE702B9FFDEB2FA82F2002A40F032
:1002AC009180A1EB0C0001214FEA1C471FFA8CFE38
:1002BC00B0FBF7F307FB1300250C45EA00450EFBDA
:1002CC0003F0A84208D91CEB050503F1FF3802D254
:1002DC00A84200F2CE8043462D1AB5FBF7F007FB7F
:1002EC0010550EFB00FEA4B244EA0544A64508D9FD
:1002FC001CEB040400F1FF3502D2A64500F2B680D7
:10030C002846A4EB0E0440EA03409EE7C1F1200707
:10031C008B4022FA07FC4CEA030C25FA07FA4FEA49
:10032C001C49BAFBF9F820FA07F309FB18AA8D400F
:10033C001FFA8CFE1D4300FA01F308FB0EF02C0C87
:10034C0044EA0A44A04202FA01F20BD91CEB040461
:10035C0008F1FF3A80F08880A04240F28580A8F135
:10036C0002086444241AB4FBF9F009FB104400FBA6
:10037C000EFEADB245EA0444A64508D91CEB0404B4
:10038C0000F1FF356CD2A6456AD90238644440EAC4
:10039C000840A0FB0295A4EB0E04AC42C846AE4646
:1003AC0056D353D0002E69D0B3EB080264EB0E0485
:1003BC0022FA01F304FA07F71F43CC40C6E9007494
:1003CC00002147E70CFA02FCC2F1200125FA01F3E7
:1003DC004FEA1C4720FA01F195400D43B3FBF7F1AE
:1003EC0007FB11331FFA8CFE280C40EA034001FB7B
:1003FC000EF3834204FA02F408D91CEB000001F15D
:10040C00FF382FD283422DD902396044C01AB0FB79
:10041C00F7F307FB1300ADB245EA004503FB0EF002
:10042C00A84208D91CEB050503F1FF3816D2A842E7
:10043C0014D9023B6544281A43EA014138E7314696
:10044C00304607E72F46E4E61846F9E64B45A9D2B5
:10045C00B9EB020865EB0C0E0138A3E74346EAE75B
:10046C00284694E74146D1E7D0467BE764440238FE
:10047C0047E7023B65442FE7084606E73146E9E6C5
:10048C00704700BF034613F8012B002AFBD1181A42
:10049C000138704780B586B000AF786039600023B2
:1004AC00BB753B681B88052B6CD17B6801331B78B3
:1004BC009BB21B02BB827B6802331B789AB2BB8A4D
:1004CC001343BB82BB8A0133BB827B6803331B782B
:1004DC009BB21B027B827B6804331B789AB27B8AAB
:1004EC0013437B827B8A002B49D07B8AB3F5FA6F4E
:1004FC0045D27B68FB603B6800221A80FB685A1C63
:10050C00FA6001221A703B681B8801339AB23B686F
:10051C001A807B8A03F00703002B06D07B8ADB084A
:10052C009BB2DBB20133FB7503E07B8ADB089BB229
:10053C00FB75FB685A1CFA60FA7D1A703B681B88C5
:10054C0001339AB23B681A807A8AB98A0023F86818
:10055C0001F002FB0346FB72FB7A002B06D0FB7A00
:10056C00184600F0CCFB0346BB750DE03B681A88BF
:10057C00FB7D9BB213449AB23B681A8004E00323C0
:10058C00BB7501E00323BB75BB7D18461837BD4610
:10059C0080BD80B584B000AF786039600023FB73F8
:1005AC003B681B88052B40D17B6801331B789BB2C1
:1005BC001B02BB817B6802331B789AB2BB89134345
:1005CC00BB81BB890133BB817B6804331B78002B57
:1005DC0028D17B6803331B78FF2B04D07B68033353
:1005EC001B78002B1ED100237B727B6803331B7896
:1005FC00FF2B02D101233B7201E000233B72B9892E
:10060C0007F108000123012201F0A6FA0346FB7250
:10061C00FB7A002B0BD0FB7A184600F070FB0346DC
:10062C00FB7304E00323FB7301E00323FB73FB7BED
:10063C0018461037BD4680BD80B584B000AF7860D9
:10064C0039600023BB733B681B88052B54D97B682E
:10065C0001331B789BB21B02BB817B6802331B7876
:10066C009AB2BB891343BB81BB890133BB817B68C5
:10067C0003331B789BB21B027B817B6804331B7892
:10068C009AB27B8913437B817B685B797B727B8914
:10069C0003F00703002B06D07B89DB089BB2DBB28F
:1006AC000133FB7303E07B89DB089BB2FB737B8913
:1006BC00002B1ED07B89B3F5F66F1AD8FA7B7B7AA8
:1006CC009A4216D17B68981D7A89B989012301F069
:1006DC0043FA03463B723B7A002B06D03B7A184612
:1006EC0000F00DFB0346BB7308E03B6805221A8043
:1006FC0004E00323BB7301E00323BB73BB7B1846ED
:10070C001037BD4680BD80B586B000AF78603960CB
:10071C000023BB753B681B88052B6CD17B680133B0
:10072C001B789BB21B02BB827B6802331B789AB28C
:10073C00BB8A1343BB82BB8A0133BB827B68033306
:10074C001B789BB21B027B827B6804331B789AB2AA
:10075C007B8A13437B827B8A002B49D07B8AB3F53F
:10076C00FA6F45D27B68FB603B6800221A80FB68FD
:10077C005A1CFA6002221A703B681B8801339AB229
:10078C003B681A807B8A03F00703002B06D07B8A18
:10079C00DB089BB2DBB20133FB7503E07B8ADB0821
:1007AC009BB2FB75FB685A1CFA60FA7D1A703B68A9
:1007BC001B8801339AB23B681A807A8ABB8A194625
:1007CC00F86801F00FFA0346FB72FB7A002B06D097
:1007DC00FB7A184600F093FA0346BB750DE03B68B4
:1007EC001A88FB7D9BB213449AB23B681A8004E0D2
:1007FC000323BB7501E00323BB75BB7D184618377B
:10080C00BD4680BD80B584B000AF786039600023F0
:10081C00FB733B681B88052B22D17B6801331B784B
:10082C009BB21B02BB817B6802331B789AB2BB89DB
:10083C001343BB81BB890133BB817B68D81CB9894D
:10084C000123012201F014F90346FB72FB7A002B01
:10085C0008D0FB7A184600F052FA0346FB7301E00D
:10086C000323FB73FB7B18461037BD4680BD80B558
:10087C0084B000AF786039600023FB733B681B8841
:10088C00052B46D97B6801331B789BB21B02BB81BD
:10089C007B6802331B789AB2BB891343BB81BB893B
:1008AC000133BB817B6803331B789BB21B027B81BA
:1008BC007B6804331B789AB27B8913437B817B68FA
:1008CC005B797B727B89002B20D07B89782B1DD8A0
:1008DC007B89DBB25B00DBB27A7A9A4216D17B68F9
:1008EC00981D7A89B989012301F0C2F803463B723D
:1008FC003B7A002B06D03B7A184600F000FA0346F0
:10090C00FB7308E03B6805221A8004E00323FB73A9
:10091C0001E00323FB73FB7B18461037BD4680BDFB
:10092C0080B586B000AF786039600023FB753B68FA
:10093C001B88052B5CD17B6801331B789BB21B0297
:10094C00BB827B6802331B789AB2BB8A1343BB828F
:10095C00BB8A0133BB827B6803331B789BB21B02BF
:10096C007B827B6804331B787B827B8A002B3CD098
:10097C007B8A7D2B39D87B68FB603B6800221A8010
:10098C00FB685A1CFA6003221A703B681B880133FF
:10099C009AB23B681A807B8ADAB2FB68591CF96000
:1009AC005200D2B21A703B681B8801339AB23B6872
:1009BC001A807A8AB98A0023F86801F059F803463C
:1009CC00FB72FB7A002B06D0FB7A184600F097F9E5
:1009DC000346FB750EE03B681A887B8A5B009BB272
:1009EC0013449AB23B681A8004E00323FB7501E0C0
:1009FC000323FB75FB7D18461837BD4680BD80B5BB
:100A0C0086B000AF786039600023FB753B681B88AB
:100A1C00052B5FD17B6801331B789BB21B02BB8219
:100A2C007B6802331B789AB2BB8A1343BB82BB8AA6
:100A3C000133BB827B6803331B789BB21B027B8226
:100A4C007B6804331B789AB27B8A13437B827B8A44
:100A5C00002B3CD07B8A7C2B39D87B68FB603B68B5
:100A6C0000221A80FB685A1CFA6004221A703B6838
:100A7C001B8801339AB23B681A807B8ADAB2FB6816
:100A8C00591CF9605200D2B21A703B681B880133B2
:100A9C009AB23B681A807A8ABB8A1946F86800F0C9
:100AAC00A3FF0346FB72FB7A002B06D0FB7A184699
:100ABC0000F025F90346FB750EE03B681A887B8A2B
:100ACC005B009BB213449AB23B681A8004E0032388
:100ADC00FB7501E00323FB75FB7D18461837BD46FB
:100AEC0080BD000080B584B000AF3A601A46034662
:100AFC00FB710B46BB711346BB800023FB73BB8899
:100B0C001D2B30D81B4B00221A801A4B1B885A1CE9
:100B1C0091B2184A11801946174AFB795354BB7984
:100B2C00002B01D0FF2100E00021124B1B885A1C26
:100B3C0090B2104A10801A460F4B9954BB88002B68
:100B4C0013D00C4B1B881A460B4B1344BA883968CC
:100B5C00184615F073FD074B1A88BB8813449AB2DC
:100B6C00044B1A8001E00423FB73FB7B18461037FF
:100B7C00BD4680BD04020010E401001080B582B0B7
:100B8C0000AF786039607B680133084A12880849E5
:100B9C00184615F053FD054B1B8801339AB23B6880
:100BAC001A80002318460837BD4680BD0402001089
:100BBC00E401001080B586B000AF7860084611469D
:100BCC001A4603467B800B467B7013463B703B7882
:100BDC00FB827B78082B05D9294B2A4A37212A48D6
:100BEC0015F090FC7B88DB08BB82BB8ADB009BB2D8
:100BFC007A88D31A7B82FA8A7B8A02FA03F3FB8205
:100C0C007B78012202FA03F39BB2013B3B823A8AC6
:100C1C007988BB8ADB00CB1A02FA03F33B82BB8ACE
:100C2C007A6813441B78FB81BB8A01337A681344BE
:100C3C001B781B021AB2B7F90E3013431BB2FB819F
:100C4C00B7F91030DB431AB2B7F90E3013401AB2B1
:100C5C00B7F9163013431BB2FB81BB8A7A68134475
:100C6C00FA89D2B21A70FB891B0A99B2BB8A01337A
:100C7C007A681344CAB21A7000BF1837BD4680BDDB
:100C8C00DC810100D4840100EC81010080B485B0CA
:100C9C0000AF78600B467B8013467B707B88DB084B
:100CAC00FB81FB89DB009BB27A88D31ABB817B78F2
:100CBC00012202FA03F39BB2013B7B81FB897A6828
:100CCC0013441B783B81FB8901337A6813441B78EE
:100CDC001B021AB2B7F9083013431BB23B813A8995
:100CEC00BB8942FA03F33B813A897B8913403B81F0
:100CFC003B89DBB218461437BD4680BC704780B4C4
:100D0C0085B000AF0346FB71FB79072B0CD0072B8A
:100D1C000DDC002B02D0012B03D008E00023FB7369
:100D2C0008E00223FB7305E00623FB7302E00423B7
:100D3C00FB7300BFFB7B18461437BD4680BC704765
:100D4C0080B584B000AF3B600346FB710B46BB71B2
:100D5C0013467B710023FB73BB79002B05D0BB7949
:100D6C00002B02D0BB79F72B02D90223FB7315E0C1
:100D7C000D4ABB7913700223FB73FB7B002B0DD147
:100D8C0000F06EFA0346002B02D10323FB7305E03F
:100D9C00064AFB791370064B01221A70FB7B18462E
:100DAC001037BD4680BD00BF0602001007020010C0
:100DBC000400001080B584B000AF0346FB80002314
:100DCC00FB73FB88184600F0C3F90346FB73FB7BEF
:100DDC00002B03D0144B01221A701FE000F040FAD4
:100DEC000346002B02D10323FB7317E00F4B104A71
:100DFC001A60104B104A1A60104B114A1A60114BB2
:100E0C00114A1A60114B00221A60114BFF221A7002
:100E1C00104B02221A70044B01221A70FB7B1846ED
:100E2C001037BD4680BD00BF040000100C0200103E
:100E3C008711000010020010931100001402001022
:100E4C009F1100000802001011120000180200107F
:100E5C00060200100702001080B485B000AF0346F4
:100E6C003960FB71FB79002B51D097F90730002BBF
:100E7C004DDB3B68002B2BD00023FB601DE0284A88
:100E8C00FB68DB0013445B68002B07D0244AFB682B
:100E9C00DB0013445B683A689A420BD12049FB682B
:100EAC00FA7901F833201E4AFB68DB0013443A68D8
:100EBC005A6005E0FB680133FB60FB680F2BDEDD3D
:100ECC00FB68102B01D0002300E00423FB7220E010
:100EDC000023FB6015E0124AFB6812F83330FA79F4
:100EEC009A420BD10E4AFB68002102F833100C4ACF
:100EFC00FB68DB00134400225A6005E0FB680133F9
:100F0C00FB60FB680F2BE6DD0023FB7201E0022384
:100F1C00FB72FB7A18461437BD4680BC704700BF85
:100F2C000800001080B582B000AF0023FB71094BA4
:100F3C001B78012B07D1084B1B68002B05D0064BE7
:100F4C001B68984701E00623FB71FB7918460837AC
:100F5C00BD4680BD040000101802001080B582B0A0
:100F6C0000AF0023FB71094B1B78012B06D1084BFA
:100F7C001B689847054B00221A7001E00623FB7191
:100F8C00FB7918460837BD4680BD00BF0400001031
:100F9C000C02001080B582B000AF0D4B1B78002BFB
:100FAC0008D10C4B1B689847094B01221A7000237F
:100FBC00FB7108E0064B1B78012B02D10023FB715F
:100FCC0001E00623FB71FB7918460837BD4680BD4E
:100FDC00040000101002001090B583B000AF002385
:100FEC00FB70514B1B78002B01D0062397E0BB1CE8
:100FFC00184600F057F90346012B40F08A80BB7865
:10100C00032B00F28B8001A252F823F0291100006F
:10101C00291000005B10000029110000434B1B68D5
:10102C00434A4449444898470346FB70FB78002BDD
:10103C0071D1414B1A78414B1B789A4203D03E4BED
:10104C001B78002B67D1022000F016F963E0394BB6
:10105C001B681A783A4B1A703A4B01221A7000230B
:10106C007B601FE0384A7B6812F83330002B1DD0B0
:10107C00354A7B6812F83320314B1B789A420ED1DB
:10108C00314A7B68DB0013445B682A4A12682849A2
:10109C001046984703461A462A4B1A7007E07B689D
:1010AC0001337B607B680F2BDCDD00E000BF224B43
:1010BC001B78002B31D0234B1B78002B1DD01C4BE5
:1010CC0000221A801E4B1A781A4B1968184B1B8871
:1010DC00581C84B2164804800B4462F07F02D2B2D2
:1010EC001A70144B1A68124B1B88591C88B2104981
:1010FC0008801344134A12781A70144B1B680F4A59
:10110C0010780C4A11680A4A128898470346FB70FB
:10111C0003E000BF02E000BF00E000BF0023184660
:10112C000C37BD4690BD00BF040000101402001027
:10113C0038020010340200103002001006020010B9
:10114C003A0200103B0200100800001008020010C8
:10115C0080B584B000AF0346FB800023FB73FB8893
:10116C00184600F0B3F90346002B01D10323FB739F
:10117C00FB7B18461037BD4680BD80B400AF00BF66
:10118C00BD4680BC704780B500AF00F04FFA00BF81
:10119C0080BD80B588B000AFF860B9607A60052377
:1011AC00FB7707F1160207F118031146184600F0F9
:1011BC0041FB0346002B1ED0BB6902331B789BB24C
:1011CC001B02BB83BB6903331B789AB2BB8B1343E3
:1011DC00BB83BB8B002B10D1BB69DA1DBB681A60BB
:1011EC00FB8A073B9AB27B681A800023FB77FB686B
:1011FC00FF221A7001E00523FB77FB7F184620378E
:10120C00BD4680BD80B586B000AF03463960FB712A
:10121C001346BB800023FB753B68073B3B61BB88D7
:10122C000733FB81BB8801331A123B690433D2B2FA
:10123C001A70BB88DAB23B6905330132D2B21A702C
:10124C00FB891946386900F00FFB0346002B01D1CE
:10125C000523FB75FB7D18461837BD4680BD000085
:10126C0080B400AF034B00221A7001231846BD4610
:10127C0080BC70473D02001080B483B000AF0346C1
:10128C00FB71064B01221A70054AFB79137001237E
:10129C0018460C37BD4680BC704700BF3D0200109D
:1012AC003C02001080B485B000AF78600023FB7363
:1012BC00094B1B78002B08D0084B1A787B681A70E6
:1012CC00054B00221A700123FB73FB7B1846143765
:1012DC00BD4680BC704700BF3D0200103C020010B0
:1012EC0080B588B000AFF860B9601346FB8000236E
:1012FC007B614FF400733B61BB68002B05D1554BF0
:10130C00554A2F21554815F0FDF80023FB617DE06F
:10131C00FB69082B50D801A252F823F04D130000A2
:10132C00C513000061130000C51300007513000005
:10133C00C5130000891300009D130000B1130000B9
:10134C007B69474A1344474A3969184615F0D8FD5A
:10135C00B86134E07B69424A1344434A3969184600
:10136C0015F0CEFDB8612AE07B693D4A13443F4A33
:10137C003969184615F0C4FDB86120E07B69384A1C
:10138C0013443B4A3969184615F0BAFDB86116E0AA
:10139C007B69334A1344374A3969184615F0B0FD56
:1013AC00B8610CE07B692E4A1344334A39691846FC
:1013BC0015F0A6FDB86102E00023BB6100BFBB695C
:1013CC00B3F1FF3F28D07A69BB6913447B61BB69D9
:1013DC003A69D31A3B617B69214A9818FB69BA6850
:1013EC0013441B78254A396915F08AFDB861BB692D
:1013FC00B3F1FF3F12D07A69BB6913447B61BB69BF
:10140C003A69D31A3B61FB690133FB61FB88FA69CA
:10141C009A42FFF67DAF02E000BF00E000BFBB695F
:10142C00B3F1FF3F12D07B690D4A1344144A39695A
:10143C00184615F065FDB861BB69B3F1FF3F05D0E7
:10144C00074B104AF968002000F01EF800BF203747
:10145C00BD4680BD14820100E48401002882010095
:10146C004002001044820100508201005C820100A5
:10147C006882010074820100808201008C8201006C
:10148C00948201009C8201000CB480B584B000AF42
:10149C0003463960FB71FB790A4A52F823303A68EB
:1014AC001946094815F0D4FC07F11C03FB60F968D8
:1014BC00B86915F059FD00BF1037BD46BDE8804036
:1014CC0002B0704788000010A082010080B586B081
:1014DC0000AF0346FB8000237B75FB88002B03D1F8
:1014EC004FF4FB73FB8201E0FB88FB820DF0AAFD3D
:1014FC0038613B69FB60FB68002B02D100237B75D4
:10150C0028E0FB8A1A461749F8680CF041FE03469E
:10151C00002B05D038690CF061FD00237B7519E0B8
:10152C00FF21F8680CF0B4FEF860FB68002B05D1C5
:10153C0038690CF053FD00237B750BE00A49F86801
:10154C000DF0CDFD094AFB681360094A09490020DA
:10155C00FFF79AFF01237B757B7D18461837BD4634
:10156C0080BD00BF0C860100511600004004001025
:10157C00CC820100E482010080B586B004AF7860B3
:10158C007B68002B33D078680CF028FD0346002BC9
:10159C0002D078680CF0F0FD174B1B687A689A4201
:1015AC001DD17B6804331B7818467B6804330133E8
:1015BC001B781A467B68043302331B7819467B6808
:1015CC00043303331B7802930191009203460B4AB8
:1015DC000B490020FFF758FF074B00221A60094BFC
:1015EC001B687A689A4202D1064B00221A6000BF2F
:1015FC000837BD4680BD00BF44040010F4820100D2
:10160C00188301004004001080B500AF054B1B6827
:10161C001846FFF7B1FF044B1B681846FFF7ACFFE9
:10162C0000BF80BD440400104004001080B500AF22
:10163C00034B1B681846FFF79FFF00BF80BD00BF20
:10164C004404001080B58AB004AFF860B96013464A
:10165C00FB7197F90730002B02D097F907303AE06D
:10166C001F4B1B68002B2FD11D4ABB6813601D49F3
:10167C00B8680DF0FCFC1C49B8680DF01DFDB9688C
:10168C00B8680DF0E7FC194B00221A80BB680433D4
:10169C001B781846BB68043301331B781A46BB68A9
:1016AC00043302331B781946BB68043303331B78AD
:1016BC0002930191009203460D4A0E490020FFF758
:1016CC00E3FE0023FB7504E0B868FFF755FF002329
:1016DC00FB7597F9173018461837BD4680BD00BF0B
:1016EC00440400103D1700000517000050050010C1
:1016FC0024830100E482010080B584B000AF7860DF
:10170C000B46FB707B68FB60FB68002B07D0064A1E
:10171C0006490020FFF7B8FEF868FFF72DFF00BF61
:10172C001037BD4680BD00BF4883010074830100A3
:10173C0080B586B000AFF860B9607A60FB7097F93D
:10174C000330002B02D097F9033064E07B68002B48
:10175C0004D1B868FFF710FF00235CE07B685B895D
:10176C001946B8680CF066FE2D4B1B881A467B6830
:10177C005B891344B3F5837F05DDB868FFF7FCFE86
:10178C000023FB7542E0264B1B881A46254BD018CC
:10179C007B6859687B685B891A4614F04FFF7B683D
:1017AC005A891F4B1B8813449AB21D4B1A801C4B31
:1017BC001B88062B2AD91B4B1B799BB21B02BB82A5
:1017CC00184B5B799AB2BB8A1343BB82BB8A053335
:1017DC00134A1288934219DA114B1B881A46BB8A9A
:1017EC0006339A420AD10E4B1B881A460D490E48F5
:1017FC00FFF776FD0120FFF73FFD07E00B4A0C4990
:10180C000020FFF741FEB868FFF7B6FE78680BF0D2
:10181C000CFD97F9173018461837BD4680BD00BF30
:10182C005005001048040010808301008C830100D7
:10183C007483010080B483B000AF786039607B683A
:10184C00074A1A60074B1A883B681A80054B00221E
:10185C001A80012318460C37BD4680BC704700BF68
:10186C00480400105005001080B584B000AF7860BB
:10187C000B467B800023FB73194B1B68002B2AD073
:10188C00174B1B68B3F866307A889A4206D9154B09
:10189C00154A4FF49B71154814F034FE104B186820
:1018AC007A88012379680FF0FEFF0346002B0DD1D7
:1018BC007B881A460E490F48FFF712FD084B1B6830
:1018CC00184610F01DFC0123FB7304E0044B1B684D
:1018DC001846FFF751FEFB7B18461037BD4680BDFE
:1018EC0044040010B8830100F8840100E483010073
:1018FC00480400100084010080B483B000AF78600D
:10190C007B684FF480729A6100BF0C37BD4680BC77
:10191C00704780B483B000AF78607B6800229A6116
:10192C0000BF0C37BD4680BC704780B500AF02F0DD
:10193C009FFE08F0C3F90021002008F04BF90120AC
:10194C0009F08AF908F0EFFB00BF80BD80B58AB0C2
:10195C0004AF0023FB74FFF7E8FF0AF08DFF1E4B6A
:10196C007B600023FB606FF07F43BB603B1D07F186
:10197C00080207F10C011948029019480190002047
:10198C00009018480AF08AFF16480BF0E5F8154845
:10199C000BF0F0F8134809F0BDFC0020FFF70AFA31
:1019AC000346002B13D1FFF7D9FA0346002B0ED1B7
:1019BC00786900F025F97861FFF70EFB0346BB74DC
:1019CC0000F07EF900F0A0F9BB7C002BF0D0FFF703
:1019DC00E1FAFFF7A7FAE0E7C0A80A01A15D010050
:1019EC0039AB00006407001080B485B000AF78609C
:1019FC000B467B8013463B800023FB737B88B3F53F
:101A0C007A7F29D37A883B881344B3F57B7F23DC18
:101A1C007B88154A12889B1ABB6019E0134ABB6875
:101A2C0032F813301B0A99B27B685A1C7A60CAB21E
:101A3C001A700E4ABB6832F813107B685A1C7A6015
:101A4C00CAB21A70BB680133BB603B88013B3B8058
:101A5C003B88002BE2D101E00123FB73FB7B184692
:101A6C001437BD4680BC7047980000105405001018
:101A7C0080B487B000AFF860084611461A4603469A
:101A8C007B810B463B811346FB710023FB757B89E5
:101A9C00B3F5FA6F54D37A893B89134440F652025A
:101AAC0093424DDC7B892A4A12889B1A3B61FB7955
:101ABC00002B1CD0012B3ED044E0264A3B6932F867
:101ACC0013301B0A99B2FB685A1CFA60CAB21A701E
:101ADC00204A3B6932F81310FB685A1CFA60CAB2F0
:101AEC001A703B6901333B613B89013B3B813B896C
:101AFC00002BE2D123E0FB685A1CFA601B789BB2E6
:101B0C001B0299B2134A3B6922F81310FB685A1C4A
:101B1C00FA6019780F4A3B6932F813208BB21343E1
:101B2C0099B20C4A3B6922F813103B6901333B61B3
:101B3C003B89013B3B813B89002BDCD102E001E07E
:101B4C000123FB75FB7D18461C37BD4680BC7047D6
:101B5C009A0000105C05001080B487B000AFF860EC
:101B6C00084611461A4603467B810B463B811346B9
:101B7C00FB710023FB757B8940F6B732934225D964
:101B8C007A893B891344B3F53C6F1FDC7B89134A7C
:101B9C0012889B1A3B61FB79002B02D0012B0BD0D6
:101BAC0016E00F4A3B6932F81310FB685A1CFA60B6
:101BBC00CAB21A7000BF0BE0FB685A1CFA601B78A3
:101BCC0099B2074A3B6922F8131001E00123FB7517
:101BDC00FB7D18461C37BD4680BC70479C0000102E
:101BEC006006001080B483B000AF78600B467B8039
:101BFC0013463B80012318460C37BD4680BC70470A
:101C0C0080B582B000AF78602B4808F0FCFE00BFB6
:101C1C00294808F0C9FE0346002BF9D1264808F0E4
:101C2C0024FF11F04BF800F0E9F978607B6803F0C1
:101C3C000403002B3BD07B6803F00803002B23D05C
:101C4C000121002007F0C6FF7B6803F01003002B76
:101C5C0004D04FF0A040FFF74FFE03E04FF0A04040
:101C6C00FFF757FE7B6803F02003002B04D04FF0E6
:101C7C00A04003F0BAF903E04FF0A04003F0CFF915
:101C8C000D480AF0C5FF06E00021002007F0A2FF76
:101C9C0009480AF0F0FF7B6803F00803002B14BF1F
:101CAC0001230023DBB21946044815F0D1F87B68F8
:101CBC0018460837BD4680BD640700100C8401002F
:101CCC0080B500AF0E4B1B88B3F57A7F07D100218E
:101CDC00012007F07FFF0B4B01221A800EE0084B0E
:101CEC001B88B3F5FA6F09D10121012007F072FFAF
:101CFC00044B00221A80024B00221A8000BF80BDC8
:101D0C009C0700106006001080B500AF154B1B88B7
:101D1C0003F00203002B04D00121022007F05AFF2C
:101D2C0009E0104B1B8803F00203002B03D10021A8
:101D3C00022007F04FFF0B4B1B8803F00403002B12
:101D4C0004D00121032007F045FF09E0054B1B8857
:101D5C0003F00403002B03D10021032007F03AFF0A
:101D6C0000BF80BD6006001080B483B000AF786007
:101D7C007B685B6B03F00103002B14BF0123002372
:101D8C00DBB218460C37BD4680BC704780B584B0BA
:101D9C0000AF03460A46FB711346BB800023FB735E
:101DAC00FA23BB60BA88FB7919464FF0A04003F0C8
:101DBC00D7F812E04FF0A040FFF7D6FF0346002BF8
:101DCC0007D0BB68013BBB60084B1B6801209847E0
:101DDC0003E00023BB600123FB73BB68002BE9DC31
:101DEC00FB7B18461037BD4680BD00BFB007001006
:101DFC0080B584B000AF03463960FB710023FB73E0
:101E0C00FA23BB60FB7919464FF0A04003F0C6F8EB
:101E1C001DE04FF0A040FFF7A7FF034683F001033E
:101E2C00DBB2002B0CD00023BB604FF0A04003F0C2
:101E3C00CDF803461A463B681A800123FB7306E073
:101E4C00BB68013BBB60064B1B6801209847BB6815
:101E5C00002BDEDCFB7B18461037BD4680BD00BF77
:101E6C00B007001080B483B000AF03460A46FB8075
:101E7C001346BB80FB8803F00403002B06D0324BC7
:101E8C001B6843F00803304A136005E02E4B1B68B7
:101E9C0023F008032C4A1360BB8803F01C03142B9B
:101EAC0012D0142B03DC042B28D0082B19D0264B72
:101EBC001B6843F01003244A1360234B1B6843F048
:101ECC002003214A136026E01F4B1B6823F01003EC
:101EDC001D4A13601C4B1B6843F020031A4A136005
:101EEC0019E0194B1B6843F01003174A1360164B8B
:101EFC001B6823F02003144A13600CE0124B1B6880
:101F0C0023F01003104A13600F4B1B6823F02003BF
:101F1C000D4A136000BF0C4B1A680C4B1B685340E6
:101F2C0003F03803002B09D0074B1B68074A1360DA
:101F3C00054B1B6843F00403034A136000BF0C37C6
:101F4C00BD4680BC704700BFA4070010A807001056
:101F5C0080B584B000AF03463960FB71234A3B68FF
:101F6C001360234B00221A60224B00221A60214B73
:101F7C001B68214A13604FF400410020FFF706FF55
:101F8C000346012B01D000232CE04FF4C873FB60F7
:101F9C001AE0164B1B680120984707F10A031946F3
:101FAC000020FFF725FF0346012B01D0002319E089
:101FBC007B8903F40843002B03D14FF0FF33FB6004
:101FCC0002E0FB68013BFB60FB68002BE1DCFB687B
:101FDC00002B01D1002305E04FF480510020FFF7C6
:101FEC00D5FE012318461037BD4680BDB007001042
:101FFC00AC070010A4070010A807001098B500AF9C
:10200C002D4B1B68012B16D0022B2FD001214FF02A
:10201C00A04002F0C3FF294B1B6823F00403274A9E
:10202C001360264B1B6843F00203244A1360224BB7
:10203C0001221A603CE04FF0A040FFF795FE0346EA
:10204C0083F00103DBB2002B2FD04FF0A04002F045
:10205C00BDFF03461A461A4B1A801F214FF0A040B1
:10206C0002F09CFF144B02221A601EE04FF0A040BD
:10207C00FFF77AFE034683F00103DBB2002B16D088
:10208C000E4B1B6823F002030C4A13600C4B1C888C
:10209C004FF0A04002F09AFF034619462046FFF786
:1020AC00E1FE054B00221A6001E000BF00E000BF1A
:1020BC00024B1B68184698BDAC070010A407001013
:1020CC00B407001080B400AF41231846BD4680BC55
:1020DC00704780B588B000AFF8607A601A460B463E
:1020EC00FB721346BB720C2002F004FEF861FFF782
:1020FC00E9FF03461A467B6802FB03F3BB61FB69ED
:10210C005A00BB691A44BB695B00B2FBF3F3DBB248
:10211C00013BFB75FB7D18462037BD4680BD80B466
:10212C0085B000AF78600B46FB707B681B6823F0B2
:10213C00E063FB60FB781A06FB681A437B681A6045
:10214C0000BF1437BD4680BC704780B487B000AF69
:10215C00F8600B467A60FB72FA7AFB68043253F82B
:10216C0022307B617B69002B01DB002308E07B695B
:10217C001B099BB2C3F30B039AB27B681A80012331
:10218C0018461C37BD4680BC7047000080B586B031
:10219C0000AF7860396000237B610C2002F0ACFB4F
:1021AC007B684FF470625A637B680022DA607B694B
:1021BC0043F400137B613B68104A1A603B680022B1
:1021CC001A7100233B613B6800225A713B681A6804
:1021DC003B69DBB200217868FFF77BFF0346FB739A
:1021EC00FB7B1B021A467B6913437B617B687A6914
:1021FC001A6000BF1837BD4680BD00BF400D0300FC
:10220C0080B582B000AF78607B684FF48072DA6082
:10221C007B6800221A600C2002F088FB00BF083794
:10222C00BD4680BD80B584B000AFF8600B467A60C7
:10223C00FB72FB7A7A681946F868FFF786FF03464B
:10224C0018461037BD4680BD80B485B000AFF8602D
:10225C000B467A60FB727B68022B26D07B68022BC4
:10226C002CD87B68002B03D07B68012B0DD025E08C
:10227C00FB681A6BFB7A22FA03F303F00103002BC1
:10228C0014BF01230023DBB21AE0FB7A0833FB7284
:10229C00FB681A6BFB7A22FA03F303F00103002BA1
:1022AC0014BF01230023DBB20AE0FB681B6B1B0C81
:1022BC00002B14BF01230023DBB201E000BF00237D
:1022CC0018461437BD4680BC704780B483B000AF4D
:1022DC0078600B46FB701346BB70BB78012B09D1A1
:1022EC007B68DA68FB78012101FA03F31A437B68F7
:1022FC00DA6009E07B68DA68FB78012101FA03F304
:10230C00DB431A407B68DA6000BF0C37BD4680BCEB
:10231C00704780B582B000AF78600B46FB701346F7
:10232C00BB70FB78012B12D0FB78002B0FD0BB7845
:10233C00002B06D07B681B6843F000627B681A6038
:10234C0005E07B681B6823F000627B681A60FB78F1
:10235C0019467868FFF7E3FE00BF0837BD4680BD1D
:10236C0080B586B000AFF860B9607A60FB681B6816
:10237C0023F47F437B61BB687A681A60BB68597928
:10238C00BB681B79C3F10B03DBB27A68F868FFF703
:10239C00A0FE0346FB74FB7C1B021A467B691343AD
:1023AC007B61FB687A691A6000BF1837BD4680BD37
:1023BC0080B483B000AF78600B46FB701346BB70E3
:1023CC00BB78012B09D17B681A68FB78012101FAD3
:1023DC0003F31A437B681A600FE07B681B6823F0D9
:1023EC00E0627B681A607B681A68FB78012101FA4D
:1023FC0003F3DB431A407B681A6000BF0C37BD4601
:10240C0080BC704780B582B000AF78600B46FB7023
:10241C0000217868FFF783FEFB78002B06D17B68E0
:10242C001B6823F480327B681A6005E07B681B68AC
:10243C0043F480327B681A6000BF0837BD4680BD0C
:10244C0080B586B000AFF8600B467A60FB7207F17E
:10245C001402FB7A1946F868FFF777FE0346FB7502
:10246C00BB8ADAB27B681A70FB7D18461837BD46FA
:10247C0080BD80B483B000AF786039607B683A6807
:10248C005A6000BF0C37BD4680BC704780B483B027
:10249C0000AF78607B68DB6918460C37BD4680BCA2
:1024AC00704780B483B000AF78607B681B68DBB288
:1024BC0023F04003DBB218460C37BD4680BC704796
:1024CC0080B483B000AF78600B46FB70FA787B6801
:1024DC001A6000BF0C37BD4680BC704780B483B017
:1024EC0000AF78607B681B68DBB218460C37BD46C2
:1024FC0080BC704780B582B000AF78603960012233
:10250C000121786801F00CF93B681B88C3F30902C0
:10251C003B689B789B039BB21A433B68DB781B049C
:10252C0003F470231A433B681B791B0503F47003F7
:10253C001A437B685A613B685B79002B05D07B683A
:10254C005B6943F400027B685A61002201217868C0
:10255C0001F0E6F800BF0837BD4680BD80B485B0F9
:10256C0000AFF8607A603B600B46FB72FB7A002B85
:10257C0003D17B6800221A800CE0FB7A013BFA68DD
:10258C009B0013445B689B089BB2C3F309039AB28C
:10259C007B681A80FB7AFA689B0013445B689B0883
:1025AC009BB2C3F309039AB23B681A803B681B8841
:1025BC00002B06D03B681B88013B9AB23B681A8003
:1025CC0003E07B681A883B681A8000BF1437BD464D
:1025DC0080BC704780B483B000AF78607B685B6967
:1025EC009B089BB2C3F309039BB218460C37BD463C
:1025FC0080BC704780B483B000AF78600B46FB7032
:10260C0013463B803B889B001946FB7840F6FC72D6
:10261C000A4079689B000B445A6000BF0C37BD46DA
:10262C0080BC704790B482B000AF786039603A6873
:10263C007B68144620330FCB84E80F007B68DB6982
:10264C0003F00103002B14BF01230023DBB2184657
:10265C000837BD4690BC704790B484B000AFF860AA
:10266C000B467A60FB72FB7AFA6803331B011A443F
:10267C007B6814460FCB84E80F0000BF1037BD46B3
:10268C0090BC704780B485B000AF78600B46FB708F
:10269C000023FB817B681B785B03FB817B685B7889
:1026AC001B031BB203F480531AB2B7F90E30134359
:1026BC001BB2FB817B685B881BB2C3F30A031AB2A3
:1026CC00B7F90E3013431BB2FB81FB78002B03D000
:1026DC00FB8943F40063FB81FB8918461437BD4624
:1026EC0080BC704780B483B000AF0346FB71FB79AC
:1026FC005B031BB243F480531BB29BB218460C37DE
:10270C00BD4680BC704780B483B000AF03463960CF
:10271C00FB80FB885B0B9BB2DBB203F00703DAB2E6
:10272C003B681A70FB881B0B9BB2DBB203F00103F6
:10273C00DAB23B685A70FB88C3F30A039AB23B685F
:10274C005A8000BF0C37BD4680BC704780B586B040
:10275C0000AFF860B96011461A460B46FB80134671
:10276C007B710023BB8200237B820023FB826BE006
:10277C00FB8A9B00BA6813445B88BA8A9A4201D9D7
:10278C00002366E0FB8A9B00BA6813445B88BB821B
:10279C00FB8A9B00BA6813447A7911461846FFF7F6
:1027AC0071FF03463B823B8A19047B8A9B00FA68C3
:1027BC0013440A461A60FB8A5A1CFB889A422ADA8E
:1027CC00FB8A01339B00BA6813445B88BA8A9A422D
:1027DC0001D900233DE0FB8A01339B00BA68134406
:1027EC005B88BB82FB8A01339B00BA6813447A79FD
:1027FC0011461846FFF746FF03463B827B8A9B0037
:10280C00FA68134419683A8A7B8A9B00F868034477
:10281C000A431A6012E0BB681B781846FFF762FF88
:10282C00034619467B8A9B00FA6813441A680846CB
:10283C007B8A9B00F9680B4402431A607B8A013344
:10284C007B82FB8A0233FB82FA8AFB889A428FD303
:10285C00012318461837BD4680BD80B584B000AF43
:10286C00F860B9601346FB80FB885B009AB20023CA
:10287C00B968F868FFF76AFF034618461037BD467B
:10288C0080BD90B587B000AF7860396000237B6164
:10289C003B68002B46DD7B681B683B613B691A0C6F
:1028AC007B681A6000237B6116E07B6901339B0017
:1028BC007A6813441B68BB603B691904BB681A0C2B
:1028CC007B6901339B00786803440A431A60BB6838
:1028DC003B617B6901337B613B68DA0F13445B100E
:1028EC001A467B699342E0D33B6803F00103002B4B
:1028FC0019D13B695B0BDBB203F00703FB733B693C
:10290C001C04FB7B1846FFF7EDFE034619463B689B
:10291C00DA0F13445B109B007A68134444EA0102FB
:10292C001A6000E000BF1C37BD4690BD90B587B063
:10293C0000AF7860396000237B610023FB600023CB
:10294C003B610023FB723B68002B54DD3B68013379
:10295C00DA0F13445B1003F18043013B9B007A6850
:10296C0013441B683B613B695B0BDBB203F0070351
:10297C00FB723B6803F00103002B15D13B691C046F
:10298C00FB7A1846FFF7AEFE034619463B68013347
:10299C00DA0F13445B1003F18043013B9B007A6810
:1029AC00134444EA01021A603B680133DA0F134402
:1029BC005B10013B7B611AE07B6903F18043013BB7
:1029CC009B007A6813441B68FB603B69190CFB681D
:1029DC001A047B6903F18043013B9B007868034434
:1029EC000A431A60FB683B617B69013B7B617B6935
:1029FC00002BE1DC00E000BF1C37BD4690BD80B46D
:102A0C0085B000AF78600023FB607B681B785B07A8
:102A1C00FB607B685B6823F06043FA681343FB60E0
:102A2C00FB6818461437BD4680BC704780B483B031
:102A3C0000AF786039607B685B0FDAB23B681A7064
:102A4C007B6823F060423B685A6000BF0C37BD4680
:102A5C0080BC704780B588B000AFF860B960134691
:102A6C00FB800023BB610023FB820023FB8323E05C
:102A7C00FB8BDB00BA6813445B68BA699A4201D9D4
:102A8C0000231EE0FB8BDB00BA6813445B68BB6160
:102A9C00FB8BDB00BA6813441846FFF7B0FF3861B4
:102AAC00FB8A9B00FA6813443A691A60FB8A01336B
:102ABC00FB82FB8B0133FB83FA8BFB889A42D7D3C7
:102ACC00012318462037BD4680BD80B584B000AFC9
:102ADC00F860B9601346FB80FB885B009BB21A461A
:102AEC00B968F868FFF7B6FF034618461037BD46BD
:102AFC0080BD80B489B000AFF860B9601346FB713B
:102B0C000023FB770023BB61FA79BB6802FB03F35C
:102B1C007B61FB79022B0BD1BB6803F00103002B0B
:102B2C0003D07B69023B7B6102E07B6902337B61F2
:102B3C000023FB7711E0FA7F7B691344FA68134496
:102B4C001B781A46FB7FDB0002FA03F31A46BB69BB
:102B5C001343BB61FB7F0133FB77FA7FFB799A420E
:102B6C00E9D3BB6918462437BD4680BC704780B595
:102B7C008AB000AFF860B9607A603B60FB68FB61BB
:102B8C00BB68002B01D1002369E000237B62BB688A
:102B9C00013B3B6221E07A6A3B6A13445B08BB61F0
:102BAC0097F830301A46B969F869FFF7A2FF024668
:102BBC003B6813407B617A697B689A4202D14FF083
:102BCC00FF334CE07A697B689A4203D2BB690133CC
:102BDC007B6202E0BB69013B3B627B6A01333A6A70
:102BEC009A42D8D897F830301A46796AF869FFF7C4
:102BFC0080FF02463B6813407A689A420CD097F8E3
:102C0C0030301A46396AF869FFF773FF02463B68A1
:102C1C0013407A689A4202D14FF0FF331FE097F8C5
:102C2C0030301A46796AF869FFF763FF02463B6851
:102C3C0013407A689A4201D27B6A10E097F83030E0
:102C4C001A46396AF869FFF754FF02463B6813408D
:102C5C007A689A4202D93B6A013300E03B6A184613
:102C6C002837BD4680BD90B591B002AFF860B96011
:102C7C007A60FB7000233B630023FB860023BB863A
:102C8C000023FB62F868FFF729FC034687F82B301A
:102C9C00F868FFF79FFC0346B3F5007F01D30023D0
:102CAC006BE1FB78002B08D007F1180307F11A022F
:102CBC000021F868FFF752FC07E007F1180307F151
:102CCC001A020121F868FFF749FC3A8B7B8B9A4278
:102CDC001DD93B8B1A467B8BD31A01339BB25B00FD
:102CEC00FB863B8B1A46BB6853F82230C3F30A03AE
:102CFC00002B0CD13B8B1A46BB6853F822301B0BB4
:102D0C0003F00103012B02D1FB8E013BFB867B8B75
:102D1C009B00BA68D018F98E7B685B88C3F30A02F3
:102D2C000223009340F2FF73FFF721FF38633B6BE4
:102D3C00B3F1FF3F03D0FB8E3A6B9A4201DD0023C7
:102D4C001BE10121F868FFF7BBFBFB8E03F00103CD
:102D5C009BB2002B68D1F868FFF73CFC0346BB869E
:102D6C000BE0BB8E591EBA8EBB6853F82110BB68A2
:102D7C0043F82210BB8E013BBB863B8BBA8E9A422A
:102D8C00EFD8FB78002B0FD007F1140307F11602D4
:102D9C000021F868FFF7E2FBBB8A02339BB21A46AC
:102DAC000021F868FFF726FC07F1140307F116025F
:102DBC000121F868FFF7D2FBBB8A02339BB21A469B
:102DCC000121F868FFF716FC07F1140307F116024E
:102DDC000221F868FFF7C2FBBB8A02339BB21A468A
:102DEC000221F868FFF706FC07F1140307F116023D
:102DFC000321F868FFF7B2FBBB8A02339BB21A4679
:102E0C000321F868FFF7F6FB07F1140307F116022C
:102E1C000421F868FFF7A2FBBB8A02339BB21A4667
:102E2C000421F868FFF7E6FB3B6B03F00103002B72
:102E3C0010D17B8B19463B6BDA0F13445B100B44A0
:102E4C009B00BA68D018FA8E3B6BD31A1946FFF761
:102E5C0018FD11E07B8B19463B6BDA0F13445B10AA
:102E6C000B4401339B00BA68D018FA8E3B6BD31A13
:102E7C00013B1946FFF705FDFB7819467868FFF70B
:102E8C0001FC0346FB623B6B03F00103002B33D1C7
:102E9C00FB8E3A6B9A4214D1FB6A1C047B681B783C
:102EAC001846FFF71FFC034619467B8B18463B6BF5
:102EBC00DA0F13445B10C2182143BB6843F822108D
:102ECC0054E07B8B19463B6BDA0F13445B10CA182A
:102EDC00BB6853F822309BB2FB61FB6A19047B8BF5
:102EEC0018463B6BDA0F13445B10C218FB6919438D
:102EFC00BB6843F8221039E07B8B19463B6BDA0F29
:102F0C0013445B10CA18BB6853F822307B627B8B6E
:102F1C0019463B6BDA0F13445B100B445A1CBB680D
:102F2C0053F822303B62FB8E3A6B9A420FDA3B6AC3
:102F3C0098B27B6A19047B8B1C463B6BDA0F1344EB
:102F4C005B1023445A1C0143BB6843F822107B6A74
:102F5C001B0C1B047A8B10463A6BD10F0A4452108F
:102F6C000244F96A1943BB6843F8221097F82B30D6
:102F7C001946F868FFF7A4FA012318463C37BD46FA
:102F8C0090BD80B586B000AFF860B96011461A46A6
:102F9C000B46FB8013467B710023FB827B79002B55
:102FAC0008D007F1120307F114020021F868FFF7AB
:102FBC00D5FA07E007F1120307F114020121F868B2
:102FCC00FFF7CCFA7A8ABB8A9A421DD97B8A1A46B9
:102FDC00BB8AD31A01339BB25B00FB827B8A1A46F5
:102FEC00BB6853F82230C3F30A03002B0CD17B8A45
:102FFC001A46BB6853F822301B0B03F00103012B5C
:10300C0002D1FB8A013BFB82FA88FB8A9A4201D3EC
:10301C00002324E0FB8803F001039BB2002B0FD1AB
:10302C00BB8A1A46FB885B089BB21A44BB6853F8F0
:10303C0022301B0C9BB2396A1846FFF764FB0DE07B
:10304C00BB8A1A46FB885B089BB21A44BB6853F8D0
:10305C0022309BB2396A1846FFF755FB01231846FC
:10306C001837BD4680BD90B58BB000AFF860B96025
:10307C0011461A460B46FB8013467B710023FB84DA
:10308C0000233B62F868FFF729FA0346FB77B7F990
:10309C000630002B01DA002357E1F868FFF79AFAA3
:1030AC000346B3F5007F01D300234EE17B79002B5F
:1030BC0008D007F11A0307F11C020021F868FFF78A
:1030CC004DFA07E007F11A0307F11C020121F86819
:1030DC00FFF744FA7A8BBB8B9A421DD97B8B1A462D
:1030EC00BB8BD31A01339BB25B00FB847B8B1A46E0
:1030FC00BB6853F82230C3F30A03002B0CD17B8B33
:10310C001A46BB6853F822301B0B03F00103012B4A
:10311C0002D1FB8C013BFB84B7F90620FB8C9A4255
:10312C0001DB002311E10121F868FFF7C9F9BB8B22
:10313C001946B7F90630DA0F13445B101BB20B4477
:10314C005A1CBB6853F822303B62FB8803F0010326
:10315C009BB2002B13D1BB8B1946B7F90630DA0F93
:10316C0013445B101BB20B449B00BA68D018FA8C4A
:10317C00B7F90630D31A1946FFF7D8FB79E0BB8BA9
:10318C001946B7F90630DA0F13445B101BB20B4427
:10319C0001339B00BA68D018FA8CB7F90630D31AF1
:1031AC00013B1946FFF7C2FBBB8B1846B7F906303B
:1031BC00DA0F13445B1019B20B46C218BB6853F8F4
:1031CC002230BA8B10460A4681181B0C1B04BA68B5
:1031DC0042F82130B7F90620FB8C013B9A4231D1E1
:1031EC00BB8B1946B7F90630DA0F13445B101BB2D0
:1031FC00CA18BB6853F822301B0C3B623B6A5B0B52
:10320C00DBB203F00703BB77BB7F1846FFF76AFA04
:10321C0003461C46BB8B1846B7F90630DA0F13442D
:10322C005B1019B20B46C218BB6853F8223020460B
:10323C00BA8B14460A46224443EA0001BB6843F8A1
:10324C00221016E0BB8B1946B7F90630DA0F13447F
:10325C005B1018B20346CA18BB6853F822103B6ABD
:10326C001B0CBA8B1446024622441943BB6843F824
:10327C002210FB8C03F001039BB2002B5FD07B8BE5
:10328C00BB840BE0BB8C591CBA8CBB6853F8211067
:10329C00BB6843F82210BB8C0133BB84F868FFF782
:1032AC0099F903461A46BB8C9342EBD37B79002BDE
:1032BC000DD007F1160307F118020021F868FFF78B
:1032CC004DF9FB8A1A460021F868FFF793F907F1CC
:1032DC00160307F118020121F868FFF73FF9FB8A82
:1032EC001A460121F868FFF785F907F1160307F173
:1032FC0018020221F868FFF731F9FB8A1A460221FD
:10330C00F868FFF777F907F1160307F118020321A4
:10331C00F868FFF723F9FB8A1A460321F868FFF7D0
:10332C0069F907F1160307F118020421F868FFF791
:10333C0015F9FB8A1A460421F868FFF75BF9FB7F45
:10334C001946F868FFF7BCF8012318462C37BD4620
:10335C0090BD80B588B000AFF860B96011461A46D0
:10336C000B46FB711346BB800023FB8301237B7749
:10337C0000237B83F868FFF7B1F803467B76B7F937
:10338C000430002B01DA0023B3E0F868FFF722F9D0
:10339C000346B3F5007F01D30023AAE0FB79002B91
:1033AC0008D1B7F904200123B968F868FFF75BFE70
:1033BC0003469EE0FB79012B08D1B7F904200023CA
:1033CC00B968F868FFF74FFE034692E0FB79042BCF
:1033DC0001D102237B7707F1140307F11602F97967
:1033EC00F868FFF7BBF8BA8AFB8A9A4208D9BB8AFD
:1033FC001A46FB8AD31A5A1C7B7F92FBF3F3FB838E
:10340C00B7F90420FB8B9A4201DB002371E0012108
:10341C00F868FFF755F87B7F9BB2BA8802FB03F381
:10342C009AB2FB8A13447B830CE07A8B7B7FD11896
:10343C007A8BBB6853F82110BB6843F822107B8B46
:10344C0001337B83F868FFF7C5F803461A467B8B7C
:10345C009342EAD3FB79042B2ED0042B48DC022BAD
:10346C0002D0032B14D043E007F1100307F1120232
:10347C000221F868FFF772F83A8A7B7F9BB2D31A65
:10348C009BB201339BB21A460221F868FFF7B2F8DF
:10349C0007F1100307F112020321F868FFF75EF839
:1034AC003A8A7B7F9BB2D31A9BB201339BB21A46EA
:1034BC000321F868FFF79EF807F1100307F11202D9
:1034CC000421F868FFF74AF83A8A7B7F9BB2D31A3B
:1034DC009BB201339BB21A460421F868FFF78AF8B5
:1034EC0000BF7B7E1946F868FEF7EAFF012300E077
:1034FC00002318462037BD4680BD80B584B000AF90
:10350C00786039600023FB607868FEF7E7FF0346BC
:10351C00FB7201217868FEF7D3FF0023FB6007E004
:10352C003B68FA68002143F82210FB680133FB600A
:10353C00FB68B3F5007FF3D3002200217868FFF716
:10354C0059F8002201217868FFF754F80022022173
:10355C007868FFF74FF8002203217868FFF74AF8E4
:10356C00002204217868FFF745F8FB7A1946786841
:10357C00FEF7A6FF00BF1037BD4680BD80B485B0F6
:10358C0000AF78607B68074A934202D10D23FB732E
:10359C0001E00E23FB73FB7B18461437BD4680BC41
:1035AC00704700BF0040044080B485B000AF786025
:1035BC007B68074A934202D10D23FB7301E00E2373
:1035CC00FB73FB7B18461437BD4680BC704700BFAD
:1035DC000040044080B586B000AFF860B9607A60F6
:1035EC00F868FFF7CBFF0346184601F085F9FB6836
:1035FC0001221A60FB681B69FB6800221A61FB68D8
:10360C009B68FB6800229A60FB680E225A60FB687C
:10361C00DB687B61FB6800221A607968B868FFF789
:10362C006CFF0021B868FEF74BFF00BF1837BD4692
:10363C0080BD80B582B000AF78607868FFF79EFFE0
:10364C000346184601F072F900BF0837BD4680BD2D
:10365C0080B588B000AF7860396000237B610023AF
:10366C00BB7700237B7700233B610023BB61786829
:10367C00FFF79AFF0346184601F03CFB38613A69A4
:10368C003B68B2FBF3F37B611823FB7728E0FA7FEE
:10369C007B69B3FBF2F101FB02F29B1A002B1CD1EC
:1036AC00FB7F7A69B2FBF3F3013BBB61FB7F013B10
:1036BC00FB77FB7F194AA2FB03235B08DBB2013BC0
:1036CC007B77FB7F154AA2FB03235B08DBB2FA7FF7
:1036DC00D31ADBB2013BBB7705E0FB7F023BFB77E8
:1036EC00FB7F002BD3D1FB7F002B01D1002311E0FA
:1036FC00BB7FFB727B7F3B73BB699BB23B8103231C
:10370C00BB7200237B7307F1080319467868FEF738
:10371C00F1FE012318462037BD4680BDABAAAAAAEC
:10372C0080B483B000AF78600B46FB701346BB705F
:10373C00FB7803F00203002B04D1FB7803F00403A5
:10374C00002B1FD07B681B6843F001027B681A605A
:10375C00BB78002B06D07B681A68FB781A437B6811
:10376C001A6008E07B681B68FA78D243134003F0B8
:10377C00BF027B681A607B681B6803F0BE027B6823
:10378C001A6012E0BB78002B06D07B681A68FB78B5
:10379C001A437B681A6008E07B681B68FA78D2438E
:1037AC00134003F0BF027B681A6000BF0C37BD46A4
:1037BC0080BC704780B584B000AF78600023FB7389
:1037CC000023FB730FE07868FEF760FE0246FB7B7C
:1037DC00DB000233012101FA03F31340002B06D165
:1037EC00FB7B0133FB73FB7B022BECD900E000BFAE
:1037FC00FB7B18461037BD4680BD80B586B000AF48
:10380C00F860B9607A600023BB8200237B820023BE
:10381C00FB75F868FEF762FE03467B740121F868BD
:10382C00FEF74EFE7B689B880133DA0F13445B1066
:10383C0019467B689B890133DA0F13445B100B44E8
:10384C007A68928A13447A68928B1A447B689B8CB0
:10385C005B001344B3F5007F02DD0023FB75A7E08A
:10386C00BB8A9B00BA68D0187B6819687B689A88F9
:10387C000123FEF76BFF0346FB75FB7D002B00F06D
:10388C008E807B689B8801335B10BB82BB8A7B82FA
:10389C00BB8A1A460021F868FEF7ACFEBB8A9B0077
:1038AC00BA68D0187B6899687B689A890023FEF700
:1038BC004DFF0346FB75FB7D002B72D07B689B890B
:1038CC0001335B109AB2BB8A1344BB82BB8A1A4683
:1038DC000121F868FEF78EFEBB8A9B00BA68D018EF
:1038EC007B6819697B689B8A1A46FEF7B6FF03460C
:1038FC00FB75FB7D002B56D07B689A8ABB8A1344E0
:10390C00BB82BB8A1A460221F868FEF773FEBB8A9B
:10391C009B00BA68D0187B6899697B689B8B1A46A8
:10392C00FFF798F80346FB75FB7D002B3DD07B68B9
:10393C009A8BBB8A1344BB82BB8A1A460321F86854
:10394C00FEF758FEBB8A9B00BA68D0187B68196AD0
:10395C007B689B8C1A46FFF7B8F80346FB75FB7D1A
:10396C00002B24D07B689B8C5B009AB2BB8A1344DF
:10397C00BB82BB8A1A460421F868FEF73BFE7B8AA1
:10398C00002B15D07A8A134692009B1A5B0003F524
:10399C000062BB8A9A420BDA0023FB7508E000BF79
:1039AC0006E000BF04E000BF02E000BF00E000BF83
:1039BC007B7C1946F868FEF783FDFB7D18461837AB
:1039CC00BD4680BD80B586B000AFF860B9601346C7
:1039DC00FB710023FB8207F1120307F11402F97942
:1039EC00F868FEF7BBFD7A8ABB8A9A4201D800239D
:1039FC003DE0FB79002B02D0FB79012B1ED17B8A99
:103A0C001A46BB8AD31A01339BB25B00FB827B8ABA
:103A1C001A46BB6853F82230C3F30A03002B24D197
:103A2C007B8A1A46BB6853F822301B0B03F0010348
:103A3C00012B1AD1FB8A013BFB8216E0FB79022B8E
:103A4C0002D0FB79032B06D17A8ABB8AD31A9BB29C
:103A5C000133FB820AE07B8A1A46BB8AD31A0133F4
:103A6C00DA0F13445B10FB8200E000BFFB8A1846A0
:103A7C001837BD4680BD80B584B000AFF860B96022
:103A8C007A6001237A68B968F868FFF7ECF80346A6
:103A9C0018461037BD4680BD80B584B000AFF860C5
:103AAC00B9607A6000237A68B968F868FFF7DBF8C8
:103ABC00034618461037BD4680BD80B58CB002AFAA
:103ACC00F860B9607A6000233B620023FB8400231A
:103ADC00BB840023FB61F868FEF700FD0346FB7610
:103AEC00F868FEF777FD0346B3F5007F01D300239A
:103AFC007AE007F1160307F118020321F868FEF7C4
:103B0C002DFDFA8A3B8B9A4205D9FA8A3B8BD31A44
:103B1C009BB20133FB843B8B9B00BA68D018F98CA9
:103B2C007B685B6823F06042042300936FF0604372
:103B3C00FFF71DF838623B6AB3F1FF3F03D0FB8CF3
:103B4C003A6A9A4201DD00234EE00121F868FEF743
:103B5C00B7FCF868FEF73EFD0346BB840BE0BB8C5C
:103B6C00591EBA8CBB6853F82110BB6843F822105D
:103B7C00BB8C013BBB84BA8C3B8B19463B6A0B4418
:103B8C009A42ECDC7868FEF73AFFF8613B8B1A46F8
:103B9C003B6A1A44BB68F96943F8221007F1160313
:103BAC0007F118020321F868FEF7D8FCFB8A0233F0
:103BBC009BB21A460321F868FEF71CFD07F11603A9
:103BCC0007F118020421F868FEF7C8FCFB8A0233DF
:103BDC009BB21A460421F868FEF70CFDFB7E1946D1
:103BEC00F868FEF76DFC012318462837BD4680BDEA
:103BFC0080B58CB000AFF860B9607A600023FB85AB
:103C0C000023BB8500237B8500233B85F868FEF7EA
:103C1C0065FC034687F82730F868FEF7DBFC0346A3
:103C2C00B3F5007F01D3002316E107F1140307F16C
:103C3C0016020221F868FEF791FCFB8AFB8518E05E
:103C4C00FA8DBB6853F822301B0C9BB2C3F30A03EA
:103C5C00BB85FA8DBB6853F822309BB2C3F30A03C1
:103C6C007B857B685B88BA8D9A4207D2FB8D0133CA
:103C7C00FB85BB8AFA8D9A42E2D900E000BFFB8D2E
:103C8C00002B32D0FB8D5A1EBB6853F822309BB2EE
:103C9C00C3F30A03BB847B68DB88BA8C9A4201D3DA
:103CAC000123D9E07B68DB88BA8D9A421DD97B68E9
:103CBC005B88BA8C9A425ED9FB8D5A1EBB6853F84E
:103CCC0022301B0C1B043B627B680433002118461A
:103CDC00FEF7D8FC03461946FB8D5A1E3B6A194366
:103CEC00BB6843F822100123B6E0BB8A002B44D0FA
:103CFC00BB8AFA8D9A4240D87B68DB887A8D9A42CF
:103D0C0019D87B6800211846FEF7BCFC03461B043F
:103D1C00BB617B68043300211846FEF7B3FC0346F5
:103D2C001A46BB691343BB61FA8DBB68B96943F88A
:103D3C002210012390E07B68DB887A8D9A421CD993
:103D4C007B68DB88BA8D9A4217D2FA8DBB6853F820
:103D5C0022309BB2FB617B6800211846FEF792FC77
:103D6C0003461B041946FA8DFB691943BB6843F8DB
:103D7C002210012370E000BF00E000BF0121F868B1
:103D8C00FEF79EFBF868FEF725FC03463B850BE02F
:103D9C003B8D591E3A8DBB6853F82110BB6843F814
:103DAC0022103B8D013B3B853A8DFB8D9A42EFD81F
:103DBC007B6800211846FEF765FC03461B04FA8D50
:103DCC001946BB6843F822107B680433002118465F
:103DDC00FEF758FC03461946FA8DBB6853F822309F
:103DEC00FA8D1943BB6843F8221007F1140307F14D
:103DFC0016020221F868FEF7B1FBBB8A02339BB2B4
:103E0C001A460221F868FEF7F5FB07F1140307F1D7
:103E1C0016020321F868FEF7A1FBBB8A02339BB2A2
:103E2C001A460321F868FEF7E5FB07F1140307F1C6
:103E3C0016020421F868FEF791FBBB8A02339BB291
:103E4C001A460421F868FEF7D5FB97F82730194677
:103E5C00F868FEF735FB012318463037BD4680BDA8
:103E6C0090B58BB000AFF860B9607A6000237B62CC
:103E7C0000233B620023FB6100237B83F868FEF781
:103E8C002DFB03467B76F868FEF7A4FB0346B3F5DF
:103E9C00007F01D30023D4E007F1100307F11202D5
:103EAC000421F868FEF75AFB7B8A7B6216E0BB683C
:103EBC007A6A53F8223023F060433B627B6A5A1CC7
:103ECC00BB6853F8223023F06043FB617B685B686E
:103EDC003A6A9A4208D27B6A02337B623B8A1A4660
:103EEC007B6A9342E3D900E000BF7B6A002B26D0AB
:103EFC007B6A5A1EBB6853F8223023F060437B6107
:103F0C007B68DB687A699A4201D3012399E07B686C
:103F1C00DB683A6A9A4212D97B685B687A699A4282
:103F2C0046D97B6803F108027B6A5C1E1046FEF7DB
:103F3C0066FD0246BB6843F82420012381E03B8ADE
:103F4C00002B37D03B8A1A467B6A934232D27B686D
:103F5C00DB68FA699A4216D87B681846FEF74FFD63
:103F6C000146BB687A6A43F822107B6803F10802A9
:103F7C007B6A5C1C1046FEF742FD0246BB6843F8A8
:103F8C00242001235DE07B68DB68FA699A4211D931
:103F9C007B68DB683A6A9A420CD27B681846FEF75B
:103FAC002EFD0146BB687A6A43F82210012348E0D3
:103FBC0000BF00E000BF0121F868FEF781FAF86845
:103FCC00FEF708FB034601337B830BE07B8B991ECA
:103FDC007A8BBB6853F82110BB6843F822107B8B9B
:103FEC00013B7B837B8B7A6A9A42EFD37B681846C2
:103FFC00FEF705FD0146BB687A6A43F822107B6820
:10400C0003F108027B6A5C1C1046FEF7F8FC0246C2
:10401C00BB6843F8242007F1100307F112020421B6
:10402C00F868FEF79BFA3B8A03339BB21A460421CD
:10403C00F868FEF7DFFA7B7E1946F868FEF740FA5F
:10404C00012318462C37BD4690BD80B584B000AF17
:10405C00F860B9601346FB80B7F906300022B968E6
:10406C00F868FFF776F9034618461037BD4680BD51
:10407C0080B584B000AFF860B9601346FB80B7F927
:10408C0006300122B968F868FFF763F90346184651
:10409C001037BD4680BD80B584B000AFF860B96004
:1040AC001346FB80B7F906300222B968F868FFF7AF
:1040BC0050F9034618461037BD4680BD80B584B014
:1040CC0000AFF860B9601346FB80B7F906300322E5
:1040DC00B968F868FFF73DF9034618461037BD4636
:1040EC0080BD80B584B000AFF860B9601346FB802A
:1040FC00B7F906300422B968F868FFF72AF90346C5
:10410C0018461037BD4680BD80B586B002AFF8604A
:10411C00B9603B601346FB80FA883B68009301232F
:10412C00B968F868FEF72DFF034618461037BD46F0
:10413C0080BD80B586B002AFF860B9603B601346B5
:10414C00FB80FA883B6800930023B968F868FEF797
:10415C0018FF034618461037BD4680BD80B586B0A3
:10416C0000AFF860B9603B601346FB800023FB8214
:10417C0007F1120307F114020221F868FEF7EEF9B9
:10418C007A8ABB8A9A4205D97A8ABB8AD31A9BB29D
:10419C000133FB82FA88FB8A9A4201D300231CE08C
:1041AC00BB8A1A46FB881A44BB6853F822301B0C96
:1041BC009BB23A6811461846FEF7A5FABB8A1A4616
:1041CC00FB881A44BB6853F822309AB23B6804331C
:1041DC0019461046FEF797FA012318461837BD46C4
:1041EC0080BD80B586B000AFF860B9603B60134607
:1041FC00FB800023FB8207F1120307F11402032159
:10420C00F868FEF7ABF97A8ABB8A9A4205D97A8AA2
:10421C00BB8AD31A9BB20133FB82FA88FB8A9A427F
:10422C0001D300230BE0BB8A1A46FB881A44BB68F7
:10423C0053F8223039681846FEF7F8FB012318466C
:10424C001837BD4680BD80B586B000AFF860B96048
:10425C003B601346FB800023FB8207F1120307F13E
:10426C0014020421F868FEF779F97A8ABB8A9A421B
:10427C0008D97B8A1A46BB8AD31A0133DA0F134446
:10428C005B10FB82FA88FB8A9A4201D300231CE064
:10429C00BB8A1A46FB885B001A44BB6853F8223071
:1042AC003A6811461846FEF7C1FBBB8A1A46FB88D2
:1042BC005B0013445A1CBB6853F822203B6808333C
:1042CC0019461046FEF7B2FB012318461837BD46B7
:1042DC0080BD80B58AB000AFF8600B467A60FB7287
:1042EC00002387F8273000237B617B685B6803F031
:1042FC000103002B04D07B6943F080437B613FE0DA
:10430C007A697B689B681B0403F4702313437B61FD
:10431C00002387F827302FE097F827309B007A6826
:10432C0013441B7B194697F827309B0001337A689E
:10433C0013441B7B1B0241EA030297F827309B00B6
:10434C00023379680B441B7B1B041A4397F8273004
:10435C009B00033379680B441B7B1B061A4397F8AD
:10436C00273002339B0028333B4443F8142C97F836
:10437C002730013387F8273097F82730012BCBD91A
:10438C007B681B6803F08043002B09D07B6943F0EA
:10439C0000437B617B681B6823F06043BB6104E0D6
:1043AC007B681B68C3F30A03BB6107F11402FB7A39
:1043BC001946F868FEF750F9F868FEF772F80346EC
:1043CC00042B0BD1FB7A0533012202FA03F343F0E1
:1043DC0010031946F868FEF74CF80AE0FB7A05332F
:1043EC00012202FA03F343F001031946F868FEF7C1
:1043FC0040F8012318462837BD4680BD80B588B0EB
:10440C0000AF7860396007F10C0319467868FEF745
:10441C0009F90346012B57D1FB68002B07DA3B69DE
:10442C0023F0604343F080423B681A6004E03B6930
:10443C00C3F30A023B681A60FB681B0C03F00F0203
:10444C003B689A603B6800225A60FB6803F080432B
:10445C00002B06D03B685B6843F001023B685A6056
:10446C002CE00023FB7725E097F91F30002B00DAB6
:10447C0003339B105BB202339B0020333B4453F855
:10448C00142C97F91F30594203F0030301F0030178
:10449C0058BF4B425BB2DB00DA4097F91F30D1B208
:1044AC003A6813440A461A7397F91F30DBB201338A
:1044BC00DBB2FB7797F91F30072BD5DD0421786829
:1044CC00FDF7D7FF012300E0002318462037BD4637
:1044DC0080BD80B584B000AF78600B46FB70786807
:1044EC00FDF7FCFF0346FB7301217868FDF7E8FF3D
:1044FC00FB78012B06D17B681B6A43F001027B68B9
:10450C001A6204E07B681B6A7B6800221A62FB7BE0
:10451C0019467868FDF7D4FF00BF1037BD4680BD43
:10452C0080B483B000AF78600B46FB70FB783F2BF8
:10453C0014D8FB785B09DBB27A6808339B00134410
:10454C005B68FA7802F01F02012101FA02F21340B3
:10455C00002B14BF01230023DBB200E0002318461C
:10456C000C37BD4680BC704780B586B000AFF86094
:10457C00B9603B601346FB71BB687B61F868FEF762
:10458C0029F803467B82798AFA7913465B00134437
:10459C000B449B007A6913447B617B691B681B0E7F
:1045AC0003F00303032B01D0002339E07B690022C5
:1045BC001A607B691B685B0BDBB203F00703DAB292
:1045CC003B6A1A707B691B68C3F30A023B681A606A
:1045DC003B6800225A607B691B6803F08043002B08
:1045EC0002D03B6801225A607B691B681B0C03F0EC
:1045FC000F023B689A603B680C337A6952681A6008
:10460C003B680C3304337A6992681A607B691B68C7
:10461C001B0E03F00303002B01D0002300E0012349
:10462C0018461837BD4680BD80B400AF064BD3F892
:10463C00A83003F48063002B14BF01230023DBB2EA
:10464C001846BD4680BC704700C00F4080B400AF18
:10465C00064BD3F8A83003F40073002B14BF0123CE
:10466C000023DBB21846BD4680BC704700C00F402B
:10467C0080B500AF00F016FB0346024A136000BF82
:10468C0080BD00BFB807001080B500AF0122032128
:10469C00012000F003F90121012000F0B9F800BF5E
:1046AC00FFF7C2FF034683F00103DBB2002BF7D107
:1046BC000321012000F0ACF800BFFFF7C7FF034651
:1046CC0083F00103DBB2002BF7D11F2000F014F9AB
:1046DC0000BF80BD80B400AF064BD3F8883003F028
:1046EC008073002B14BF01230023DBB21846BD4698
:1046FC0080BC704700C00F4080B400AF064BD3F8AD
:10470C00A83003F48073002B14BF01230023DBB209
:10471C001846BD4680BC704700C00F4080B400AF47
:10472C00064BD3F8883003F00073002B14BF012321
:10473C000023DBB21846BD4680BC704700C00F405A
:10474C0080B400AF064BD3F8A83003F40073002BF1
:10475C0014BF01230023DBB21846BD4680BC704752
:10476C0000C00F4080B483B000AF0346FB71094A10
:10477C00FB795B0113448C33AA221A60054AFB793E
:10478C005B0113448C3355221A6000BF0C37BD46B5
:10479C0080BC704700C00F4080B400AF054BD3F80D
:1047AC000C31DBB203F00303DBB21846BD4680BC10
:1047BC00704700BF00C00F4080B400AF024B1B68B5
:1047CC001846BD4680BC70475485010080B400AFCC
:1047DC00024B1846BD4680BC704700BF00093D0027
:1047EC0080B400AF024B1B681846BD4680BC7047B6
:1047FC005885010080B500AF00F0D8F90346184683
:10480C0080BD80B500AFFFF7D7FF0346184680BDCB
:10481C0080B584B000AF03463960FB710C4AFB795C
:10482C0004335B0113441B68FB60FA683B68134359
:10483C00FB60074AFB7904335B011344FA681A6086
:10484C00FB791846FFF78EFF00BF1037BD4680BDC1
:10485C0000C00F4080B584B000AF03463960FB71D7
:10486C000D4AFB7904335B0113441B68FB603B6806
:10487C00DB43FA681340FB60074AFB7904335B01A6
:10488C001344FA681A60FB791846FFF76BFF00BFF8
:10489C001037BD4680BD00BF00C00F4080B586B04C
:1048AC0000AF0346B9607A60FB73FB7B002B05D12C
:1048BC007B681B04BA6813437B6104E07B685B0173
:1048CC00BA6813437B610B4AFB7B04335B011344D3
:1048DC0004337A691A60074AFB7B04335B01134487
:1048EC0001221A60FB7B1846FFF73CFF00BF18370C
:1048FC00BD4680BD00C00F4080B485B000AF0346FC
:10490C00FB71FB79FB60084BD3F8C4300121FA68CA
:10491C0001FA02F21146044A0B43C2F8C43000BF3C
:10492C001437BD4680BC704700C00F4080B485B0C2
:10493C0000AF0346FB71FB79FB60094BD3F8C43025
:10494C000121FA6801FA02F2D2431146044A0B43E0
:10495C00C2F8C43000BF1437BD4680BC704700BFDE
:10496C0000C00F4080B485B000AF0346FB71FB79EB
:10497C00FB600A4BD3F8C4300121FA6801FA02F249
:10498C001340FB60FB68002B14BF01230023DBB238
:10499C0018461437BD4680BC704700BF00C00F409E
:1049AC0080B582B000AF0346FB71FB79012B04D1BB
:1049BC0002210020FFF72CFF03E002210020FFF76B
:1049CC0049FF00BF0837BD4680BD80B582B000AF3F
:1049DC00FFF7A4FE0346002B02D00123FB7101E07C
:1049EC000023FB71FB7918460837BD4680BD0000DB
:1049FC0080B483B000AF7860044A7B68C2F804319D
:104A0C0000BF0C37BD4680BC704700BF00C00F40D4
:104A1C0080B400AF044BD3F80431DBB20133184639
:104A2C00BD4680BC704700BF00C00F4080B485B04D
:104A3C0000AF7860084BD3F8083123F00F03FB600C
:104A4C000549FA687B681343C1F8083100BF143775
:104A5C00BD4680BC704700BF00C00F4080B400AFA3
:104A6C00044BD3F8083103F00F0301331846BD464D
:104A7C0080BC704700C00F4080B487B000AF0346C5
:104A8C000A46FB711346BB71FB797B617B6903F0B2
:104A9C000F035B003B617B691B097B610E4A7B69E1
:104AAC006A3352F8233003213A6901FA02F2D243F5
:104ABC001340FB60BA793B6902FA03F3FA681343BB
:104ACC00FB6005497B696A33FA6841F8232000BF13
:104ADC001C37BD4680BC704700C00F4080B487B007
:104AEC0000AF0346FB7101237B61FB795B003B61EB
:104AFC003B6903F01F03FB603B695B093B61194A8F
:104B0C003B696A3352F823307B617A69FB6822FA7D
:104B1C0003F303F003037B617B69002B02D10423B5
:104B2C007B6119E07B69012B02D101237B6113E0CE
:104B3C007B69022B02D102237B610DE0FB790D2BEB
:104B4C0005D0FB790E2B02D0FB790F2B02D106235B
:104B5C007B6101E008237B617B6918461C37BD46ED
:104B6C0080BC704700C00F4080B485B000AF0346D6
:104B7C003960FB710C4BD3F8C83123F4FF7323F06D
:104B8C000103FB60FA793B68013B1B011343FA6894
:104B9C001343FB60044AFB68C2F8C83100BF1437EA
:104BAC00BD4680BC704700BF00C00F4080B500AF51
:104BBC00FFF7F2FD0346022B0ED0022B10DC002B6C
:104BCC0002D0012B04D00BE0FFF700FE034608E0F7
:104BDC00FFF7F2FD034604E0FFF702FE034600E098
:104BEC000023184680BD000080B584B000AF0023C0
:104BFC00FB60FFF76FFD0346002B18D00E4BD3F86C
:104C0C008430C3F30E030133BB600B4BD3F88430F9
:104C1C001B0CDBB201337B60FFF7ECFD0246BB687B
:104C2C0002FB03F35A007B68B2FBF3F3FB60FB68F7
:104C3C0018461037BD4680BD00C00F4080B582B00D
:104C4C0000AF00237B60FFF757FD0346002B0DD010
:104C5C00094BD3F8A43003F01F0301333B60FFF77B
:104C6C00D0FD02463B6802FB03F37B607B68184671
:104C7C000837BD4680BD00BF00C00F4080B500AFF7
:104C8C00FFF7A3FE0346002B05D0012B07D1FFF73E
:104C9C00ABFF034604E0FFF789FF034600E0002367
:104CAC00184680BD98B500AFFFF7E8FF0446FFF744
:104CBC00AFFE0346B4FBF3F3184698BD80B582B043
:104CCC0000AFFFF73DFD0346002B05D0FFF7B6FF05
:104CDC00386001237B6005E0FFF7D0FF3860FFF7F9
:104CEC00BDFE78603A687B68B2FBF3F31846083770
:104CFC00BD4680BD90B583B000AF0346FB71FFF796
:104D0C00D1FF0446FB791846FFF7E8FE0346B4FBD7
:104D1C00F3F318460C37BD4690BD80B582B000AF9A
:104D2C0078600021786800F025F800BF0837BD4690
:104D3C0080BD80B483B000AF786000BF0C37BD4637
:104D4C0080BC704780B485B000AF786039607B68F8
:104D5C001B6803F48033FB603B689B019BB2FA68D1
:104D6C001343FB607B68FA681A6000BF1437BD46BA
:104D7C0080BC704780B483B000AF786039607B68CA
:104D8C001B6823F480327B681A603B68012B05D1C9
:104D9C007B681B6843F480327B681A6000BF0C3759
:104DAC00BD4680BC704780B500AFFFF77BFF034664
:104DBC00184680BD80B483B000AF78607B684FF438
:104DCC004F421A607B687822C3F8002100BF0C3771
:104DDC00BD4680BC704780B584B000AF7860786801
:104DEC00FFF7E8FF0023FB6002E0FB680133FB6088
:104DFC00FB68632BF9D900BF00BF1037BD4680BDDF
:104E0C0080B582B000AF78600B46FB701E20FFF7B8
:104E1C0073FD7868FFF7DFFF7B6802221A607B68FE
:104E2C0031225A60FB78002B05D07B684FF4C862A6
:104E3C00C3F8002104E07B684FF48862C3F80021BA
:104E4C007B6815229A607B681222DA607B684FF4CB
:104E5C0080729A617B684FF4C0625A617B6843F23E
:104E6C000F721A617B68D3F8003143F080027B68C3
:104E7C00C3F800217B684FF6FF72C3F8E82F7B68FC
:104E8C000022C3F8E42F00BF0837BD4680BD80B5B3
:104E9C0082B000AF78607B681B6823F001027B68EE
:104EAC001A607B680022C3F800217B684FF6FF7202
:104EBC00C3F8E82F7B680022C3F8E42F1E20FFF70D
:104ECC0035FD00BF0837BD4680BD000080B485B0FD
:104EDC0000AFF860B9601346FB71FB791B0203F459
:104EEC00F8530A4A1360BB689B0003F03C0343F47D
:104EFC000042FB681A62FB681B6A23F40042FB68E1
:104F0C001A6200BF1437BD4680BC7047BC07001046
:104F1C0080B584B000AF786039600023FB60FFF788
:104F2C0042FF02463B68B2FBF3F3BB600023FB601D
:104F3C000CE00A4AFB6813441B781A46BB68934280
:104F4C0001D8FB6806E0FB680133FB60FB680E2BA5
:104F5C00EFD90E2318461037BD4680BD10850100D1
:104F6C0080B483B000AF78600B46FB7013463B8077
:104F7C007B6800225A62FB7803F01F02064B1B6809
:104F8C001A437B689A623A887B68DA6200BF0C37F6
:104F9C00BD4680BC704700BFBC07001080B483B016
:104FAC0000AF78600B46FB70FB7803F01F02064BDA
:104FBC001B681A437B689A627B6801225A6200BFA5
:104FCC000C37BD4680BC7047BC07001080B483B062
:104FDC0000AF78607B6800225A627B681B6B9BB2C7
:104FEC0018460C37BD4680BC704780B483B000AF08
:104FFC0078607B685B6843F001027B685A607B6871
:10500C00D3F8003143F480627B68C3F800217B68DD
:10501C0015229A6000BF0C37BD4680BC704780B427
:10502C0083B000AF78607B685B6823F001027B681B
:10503C005A607B68D3F8003123F480627B68C3F834
:10504C0000217B6812229A6000BF0C37BD4680BCE1
:10505C00704780B485B000AFF860B9607A603B608F
:10506C00BA68FB68C3F81C213B685A1EFB68C3F87E
:10507C0024217A68FB68C3F82021FB680022C3F85E
:10508C00282100BF1437BD4680BC704780B485B062
:10509C0000AFF860B9607A603B60BA68FB68C3F82F
:1050AC0008213B685A1EFB68C3F810217A68FB681C
:1050BC00C3F80C21FB680022C3F8182100BF143779
:1050CC00BD4680BC704780B485B000AFF860084620
:1050DC0011461A4603467B810B463B811346FB80E7
:1050EC003A897B899A4201D1002311E03B89002B3C
:1050FC0006D17A89FB88013B9A4201D1022307E051
:10510C003A897B8901339A4201D1022300E00123C1
:10511C0018461437BD4680BC704780B485B000AFCC
:10512C00F860084611461A4603467B810B463B81C4
:10513C001346FB803A897B899A4201D100230CE00B
:10514C003A897B899A4205D9FA883B89D21A7B899C
:10515C00134402E07A893B89D31A18461437BD46AA
:10516C0080BC704780B485B000AF78607B68D3F8A2
:10517C002831FB60FB680133FB607B68D3F824317A
:10518C00FA689A4201D90023FB607B68FA68C3F87D
:10519C002821FB689BB218461437BD4680BC70476B
:1051AC0080B485B000AF78607B68D3F81831FB60B1
:1051BC00FB680133FB607B68D3F81031FA689A42C4
:1051CC0001D90023FB607B68FA68C3F81821FB68DF
:1051DC009BB218461437BD4680BC704780B483B070
:1051EC0000AF78607B680F2B11D9154BD3F8C43105
:1051FC007A68103A012101FA02F21146104A0B4367
:10520C00C2F8C4317B68DBB2083BDBB212E07B68CE
:10521C00072B0DD90A4BD3F8C4317A68083A01210F
:10522C0001FA02F2D2431146054A0B40C2F8C431CE
:10523C007B68DBB218460C37BD4680BC704700BF9C
:10524C0000C00F4080B487B000AFF860B9607A60DE
:10525C003B6000237B61FB685B69072B7CD801A258
:10526C0052F823F091520000BD520000F55200009C
:10527C002D5300002D530000BD520000F5520000CC
:10528C002D530000FB685B68C3F30B02FB689B6843
:10529C009B0403F4E0131A43FB689B685B0503F45F
:1052AC006003134343F00C4343F410337B6155E02C
:1052BC00FB685B68C3F30B027B681B0303F4E043DE
:1052CC001A437B68DB0303F460331A433B6A9B0489
:1052DC0003F4E0131A433B6A5B0503F460031343C6
:1052EC0043F004437B6139E0FB685B68C3F30B025A
:1052FC00BB681B0303F4E0431A43BB68DB0303F4F2
:10530C0060331A433B689B0403F4E0131A433B6875
:10531C005B0503F46003134343F008437B611DE01A
:10532C00FB685B68C3F30B02BB681B0303F4E0432D
:10533C001A437B68DB0303F460331A433B689B041A
:10534C0003F4E0131A433B6A5B0503F46003134355
:10535C0043F000437B6101E0002300E07B691846C9
:10536C001C37BD4680BC704780B487B000AFF86076
:10537C00B9607A603B60FB68DA69BB681B68012125
:10538C0001FA03F31340DBB2002B01D0002344E0FD
:10539C00BB681B6808335B01FA6813447B61BB680C
:1053AC001B68012202FA03F3DAB2FB689A60BB684D
:1053BC001B68012202FA03F3DAB2FB681A617B69FB
:1053CC003A689A60FB6801221A6300BFFB681B6B8A
:1053DC0003F00103002BF9D0BB68DA687B691A6013
:1053EC00BB681A697B695A60BB685B69DB0203F4B2
:1053FC00605297F820305B0003F03E031A4397F895
:10540C0024309B0103F4F863134343F440427B695B
:10541C001A617B697A68DA60012318461C37BD462D
:10542C0080BC704780B584B000AF78601D20FFF75A
:10543C0063FA0823FB730BE0FB7B013B7A685B018F
:10544C00134403F5887300221A60FB7B013BFB734A
:10545C00FB7B002BF0D17B68FF229A607B68FF22DC
:10546C001A610023FB7306E0FB7B074A0021D15431
:10547C00FB7B0133FB73FB7B072BF5D900BF00BF14
:10548C001037BD4680BD00BFC007001080B582B08C
:10549C0000AF78601D20FFF749FA00BF0837BD4602
:1054AC0080BD000080B582B000AF78600B46FB7009
:1054BC00FB7800221946786800F04BF9FB781A4605
:1054CC000121786800F0C8F80346002B05D0FB7862
:1054DC001A460021786800F01DF9FB781A46022163
:1054EC00786800F0B9F80346002B05D0FB781A4613
:1054FC000121786800F00EF9FB78034A0021D154A1
:10550C0000BF0837BD4680BDC007001080B582B013
:10551C0000AF78600B46FB70FB781A460021786868
:10552C0000F09AF80346002B21D0FB781A46012193
:10553C00786800F091F80346002B07D0FB781A46E8
:10554C000021786800F0E6F8012311E0FB781A4698
:10555C000221786800F080F80346002B07D0FB7816
:10556C001A460121786800F0D5F8002300E00023EA
:10557C0018460837BD4680BD80B487B000AFF860D0
:10558C00B9603B601346FB714FF0FF337B61FA79D6
:10559C00BB681A6097F82820BB685A61BB687A6AA6
:1055AC005A6097F82830072B4DD801A252F823F0F7
:1055BC00DD550000FD550000175600003156000067
:1055CC0031560000FD550000175600003156000002
:1055DC00BB683A68DA60BB683A6A1A6103237B617C
:1055EC00BB6802229A607B6A9A08BB685A602BE0FF
:1055FC00BB683A68DA6001237B61164A3B6A52F851
:10560C0023301A46BB681A611EE0124A3B6852F8F6
:10561C0023301A46BB68DA60BB683A6A1A61022307
:10562C007B6111E00B4A3B6852F823301A46BB6889
:10563C00DA60084A3B6A52F823301A46BB681A6192
:10564C0000237B6100E000BF7B6918461C37BD4618
:10565C0080BC7047A000001080B483B000AF7860AD
:10566C000B46FB701346BB70FB78042B43D801A28E
:10567C0052F823F095560000AB560000C1560000BE
:10568C00D7560000ED5600007B681B68DAB2BB7879
:10569C00012101FA03F3DBB21340DBB235E07B6886
:1056AC005B68DAB2BB78012101FA03F3DBB2134079
:1056BC00DBB22AE07B68DB68DAB2BB78012101FA45
:1056CC0003F3DBB21340DBB21FE07B685B69DAB239
:1056DC00BB78012101FA03F3DBB21340DBB214E017
:1056EC007B689B69DAB2BB78012101FA03F3DBB268
:1056FC001340DBB209E07B68DB69DAB2BB780121CD
:10570C0001FA03F3DBB21340DBB218460C37BD468B
:10571C0080BC704780B483B000AF78600B46FB70E0
:10572C001346BB70FB78002B07D1BB78012202FA21
:10573C0003F3DAB27B689A6006E0BB78012202FAC6
:10574C0003F3DAB27B681A6100BF0C37BD4680BC2C
:10575C00704780B485B000AF78600B46FB70134681
:10576C00BB70FB7808335B017A681344FB60BB7831
:10577C00012B06D1FB681B6943F00102FB681A611F
:10578C0005E0FB681B6923F00102FB681A6100BF8E
:10579C001437BD4680BC7047B0B592B004AFF8600A
:1057AC007A603B600B46FB72002387F8373000238E
:1057BC0087F83630FA7A07F1140197F848300293DB
:1057CC00FB6C01933B6800937B68F868FFF7D4FE91
:1057DC0038633B6B002B01DA00234FE03B6B03F08B
:1057EC000103002B02D000237B6005E07868FFF7F3
:1057FC00F5FC034687F837303B6B03F00203002BB4
:10580C0002D000233B6005E03868FFF7E7FC034655
:10581C0087F836301B4A7B6813441B781946194AA3
:10582C003B6813441B781C46174A7B6813441B784F
:10583C001D46154A3B6813441B7807F1140000936E
:10584C002B462246FFF7FEFCF86207F1140197F88D
:10585C003630019397F8373000930023FA6AF868D2
:10586C00FFF782FD0346002B01D1002306E0FB7AF3
:10587C0001221946F868FFF76CFF012318463837E8
:10588C00BD46B0BD2085010038850100B0B590B093
:10589C0004AFF860B9607A603B6007F1140197F8C7
:1058AC00443002933B6C01933B6800937B6800226D
:1058BC00F868FFF761FEF862FB6A002B01DA00233F
:1058CC003DE0FB6A03F00103002B01D000237B6059
:1058DC00FB6A03F00203002B01D000233B603A6A01
:1058EC00BB681A607A6ABB685A60BA6CBB689A600B
:1058FC00154A7B6813441B781946134A3B681344BA
:10590C001B781C46114A7B6813441B781D460F4AB2
:10591C003B6813441B7807F1140000932B46224676
:10592C00FFF790FC0246BB68DA60BB6C002B05D01D
:10593C00BB68DB6823F00042BB68DA6001231846C1
:10594C003037BD46B0BD00BF208501003885010051
:10595C0080B594B004AFF8607A601A460B46FB72BF
:10596C001346BB727B68BB63002387F83F30002370
:10597C0087F83E307B681B687B637B685B683B63A6
:10598C00FA7A07F11401BB7A0293002301933B6B63
:10599C0000937B6BF868FFF7EFFDF862FB6A002B56
:1059AC0001DA002337E0FB6A03F00103002B02D07D
:1059BC0000237B6305E0786BFFF710FC034687F848
:1059CC003F30FB6A03F00203002B02D000233B6341
:1059DC0005E0386BFFF702FC034687F83E30BB6BE3
:1059EC00DA68BB6B986807F1140197F83E300193A5
:1059FC0097F83F3000930346F868FFF7B5FC034671
:105A0C00002B01D1002306E0FB7A01221946F8682D
:105A1C00FFF79FFE012318464037BD4680BD0000AE
:105A2C0080B584B000AF786039600023FB7300232D
:105A3C00FB7316E0FB7B1A4605217868FFF70CFE1A
:105A4C000346002B0AD1FB7B0A4AD35C002B05D101
:105A5C00FB7B084A0121D154FB7B06E0FB7B013325
:105A6C00FB73FB7B072BE5D9002318461037BD468B
:105A7C0080BD00BFC007001080B582B000AF0346E8
:105A8C00FB71FA7907491346DB009B1A9B000B4408
:105A9C0004331B781846FEF72FFF00BF0837BD46AE
:105AAC0080BD00BF0001001080B582B000AF03467E
:105ABC00FB71FA7907491346DB009B1A9B000B44D8
:105ACC0004331B781846FEF731FF00BF0837BD467C
