:1000000000800010D5BE00001DBF00001DBF000015
:100010001DBF00001DBF00001DBF0000000000004C
:100020000000000000000000000000001DBF0000F4
:100030001DBF0000000000001DBF000031D4000003
:100040001DBF0000153300001DBF00001DBF0000D4
:100050001DBF00001DBF00001DBF00001DBF000030
:10006000313000001DBF00001DBF00001DBF00009B
:100070001DBF00001DBF00001DBF00001DBF000010
:100080001DBF00001DBF00001DBF00001DBF000000
:100090001DBF00001DBF00001DBF00001DBF0000F0
:1000A0001DBF00001DBF00001DBF00001DBF0000E0
:1000B0001DBF00001DBF00001DBF00001DBF0000D0
:0C00C0001DBF00001DBF00001DBF0000A0
:1000CC0010B5054C237833B9044B13B10448AFF386
:1000DC0000800123237010BD5002001000000000AE
:1000EC0000AA010008B5034B1BB103490348AFF349
:1000FC00008008BD000000005402001000AA01009E
:10010C00A3F5803A704700BF174B002B08BF134B69
:10011C009D46FFF7F5FF00218B460F461348144A06
:10012C00121A18F023FB0E4B002B00D098470D4BE6
:10013C00002B00D098470020002104000D000D4832
:10014C00002802D00C48AFF3008018F0BDFA200054
:10015C00290003F06FFE18F083FA00BF00000800BE
:10016C000000000000000000000000005002001021
:10017C00A81D0010000000000000000053B94AB98F
:10018C00002908BF00281CBF4FF0FF314FF0FF3093
:10019C0000F076B9ADF1080C6DE904CE00F006F86C
:1001AC00DDF804E0DDE9022304B070472DE9F047E7
:1001BC00089E0D4604468846002B4DD18A42944633
:1001CC0068D9B2FA82F252B101FA02F3C2F12001FB
:1001DC0020FA01F10CFA02FC41EA030894404FEAC0
:1001EC001C41B8FBF1F71FFA8CFE01FB178807FBCB
:1001FC000EF0230C43EA084398420AD91CEB030384
:10020C0007F1FF3580F01E81984240F21B81023FBE
:10021C0063441B1AB3FBF1F001FB103300FB0EFE21
:10022C00A4B244EA0344A6450AD91CEB040400F129
:10023C00FF3380F00981A64540F206816444023800
:10024C000021A4EB0E0440EA07401EB10023D44069
:10025C00C6E90043BDE8F0878B4208D9002E00F0B8
:10026C00EE800021C6E900050846BDE8F087B3FA28
:10027C0083F100294AD1AB4202D3824200F2FC80C6
:10028C00841A65EB030301209846002EE2D0C6E9E0
:10029C000048DFE702B9FFDEB2FA82F2002A40F032
:1002AC009180A1EB0C0001214FEA1C471FFA8CFE38
:1002BC00B0FBF7F307FB1300250C45EA00450EFBDA
:1002CC0003F0A84208D91CEB050503F1FF3802D254
:1002DC00A84200F2CE8043462D1AB5FBF7F007FB7F
:1002EC0010550EFB00FEA4B244EA0544A64508D9FD
:1002FC001CEB040400F1FF3502D2A64500F2B680D7
:10030C002846A4EB0E0440EA03409EE7C1F1200707
:10031C008B4022FA07FC4CEA030C25FA07FA4FEA49
:10032C001C49BAFBF9F820FA07F309FB18AA8D400F
:10033C001FFA8CFE1D4300FA01F308FB0EF02C0C87
:10034C0044EA0A44A04202FA01F20BD91CEB040461
:10035C0008F1FF3A80F08880A04240F28580A8F135
:10036C0002086444241AB4FBF9F009FB104400FBA6
:10037C000EFEADB245EA0444A64508D91CEB0404B4
:10038C0000F1FF356CD2A6456AD90238644440EAC4
:10039C000840A0FB0295A4EB0E04AC42C846AE4646
:1003AC0056D353D0002E69D0B3EB080264EB0E0485
:1003BC0022FA01F304FA07F71F43CC40C6E9007494
:1003CC00002147E70CFA02FCC2F1200125FA01F3E7
:1003DC004FEA1C4720FA01F195400D43B3FBF7F1AE
:1003EC0007FB11331FFA8CFE280C40EA034001FB7B
:1003FC000EF3834204FA02F408D91CEB000001F15D
:10040C00FF382FD283422DD902396044C01AB0FB79
:10041C00F7F307FB1300ADB245EA004503FB0EF002
:10042C00A84208D91CEB050503F1FF3816D2A842E7
:10043C0014D9023B6544281A43EA014138E7314696
:10044C00304607E72F46E4E61846F9E64B45A9D2B5
:10045C00B9EB020865EB0C0E0138A3E74346EAE75B
:10046C00284694E74146D1E7D0467BE764440238FE
:10047C0047E7023B65442FE7084606E73146E9E6C5
:10048C00704700BF034613F8012B002AFBD1181A42
:10049C000138704780B586B000AF786039600023B2
:1004AC00BB753B681B88052B6CD17B6801331B78B3
:1004BC009BB21B02BB827B6802331B789AB2BB8A4D
:1004CC001343BB82BB8A0133BB827B6803331B782B
:1004DC009BB21B027B827B6804331B789AB27B8AAB
:1004EC0013437B827B8A002B49D07B8AB3F5FA6F4E
:1004FC0045D27B68FB603B6800221A80FB685A1C63
:10050C00FA6001221A703B681B8801339AB23B686F
:10051C001A807B8A03F00703002B06D07B8ADB084A
:10052C009BB2DBB20133FB7503E07B8ADB089BB229
:10053C00FB75FB685A1CFA60FA7D1A703B681B88C5
:10054C0001339AB23B681A807A8AB98A0023F86818
:10055C0004F030F80346FB72FB7A002B06D0FB7AD2
:10056C00184601F034FB0346BB750DE03B681A8856
:10057C00FB7D9BB213449AB23B681A8004E00323C0
:10058C00BB7501E00323BB75BB7D18461837BD4610
:10059C0080BD80B584B000AF786039600023FB73F8
:1005AC003B681B88052B40D17B6801331B789BB2C1
:1005BC001B02BB817B6802331B789AB2BB89134345
:1005CC00BB81BB890133BB817B6804331B78002B57
:1005DC0028D17B6803331B78FF2B04D07B68033353
:1005EC001B78002B1ED100237B727B6803331B7896
:1005FC00FF2B02D101233B7201E000233B72B9892E
:10060C0007F108000123012203F0D4FF0346FB721B
:10061C00FB7A002B0BD0FB7A184601F0D8FA034674
:10062C00FB7304E00323FB7301E00323FB73FB7BED
:10063C0018461037BD4680BD80B584B000AF7860D9
:10064C0039600023BB733B681B88052B54D97B682E
:10065C0001331B789BB21B02BB817B6802331B7876
:10066C009AB2BB891343BB81BB890133BB817B68C5
:10067C0003331B789BB21B027B817B6804331B7892
:10068C009AB27B8913437B817B685B797B727B8914
:10069C0003F00703002B06D07B89DB089BB2DBB28F
:1006AC000133FB7303E07B89DB089BB2FB737B8913
:1006BC00002B1ED07B89B3F5F66F1AD8FA7B7B7AA8
:1006CC009A4216D17B68981D7A89B989012303F067
:1006DC0071FF03463B723B7A002B06D03B7A1846DF
:1006EC0001F075FA0346BB7308E03B6805221A80DB
:1006FC0004E00323BB7301E00323BB73BB7B1846ED
:10070C001037BD4680BD80B586B000AF7B60034618
:10071C00FB730B46BB8113467B810023FB75FB7B74
:10072C00102B02D90223FB7536E0786802F09AFA96
:10073C000346002B02D10523FB752DE007F11003B6
:10074C00184602F03FF9FB7B184601F0BFFE3B69EF
:10075C0001221A70BB891B0A9AB23B690133D2B2CF
:10076C001A703B690233BA89D2B21A707B891B0AA0
:10077C009AB23B690333D2B21A703B6904337A895B
:10078C00D2B21A70052002F02BF9082002F030FAD0
:10079C0002F0A5FA0346FB75FB7D18461837BD46DB
:1007AC0080BD80B586B000AF786039600023BB7522
:1007BC0002F042F90346002B02D00023BB7556E031
:1007CC003B681B88012B50D907F10C03184602F02B
:1007DC00F9F8FB6801331B789BB21B02BB82FB68E8
:1007EC0002331B789AB2BB8A1343BB82BB8A013398
:1007FC00BB82FB6803331B789BB21B027B82FB68BA
:10080C0004331B789AB27B8A13437B827B8A03F076
:10081C000703002B06D07B8ADB089BB2DBB20133CB
:10082C00FB7503E07B8ADB089BB2FB757B8A002B94
:10083C0018D07B6801331B78FA7D9A4212D17B6801
:10084C00981C7A8AB98A002302F056FE03467B7400
:10085C007B7C002B0BD07B7C184601F0B8F903464F
:10086C00BB7504E00323BB7501E00323BB75BB7DA3
:10087C0018461837BD4680BD80B586B000AF7B608A
:10088C000346FB730B46BB8113467B810023FB7530
:10089C00FB7B102B02D90223FB7540E07B89B3F55F
:1008AC007F4F05D07B89002B02D00223FB7536E0ED
:1008BC00786802F0D7F90346002B02D10523FB75AB
:1008CC002DE007F11003184602F07CF8FB7B18466C
:1008DC0001F0FCFD3B6905221A70BB891B0A9AB218
:1008EC003B690133D2B21A703B690233BA89D2B276
:1008FC001A707B891B0A9AB23B690333D2B21A7005
:10090C003B6904337A89D2B21A70052002F068F878
:10091C00082002F06DF902F0E2F90346FB75FB7D4D
:10092C0018461837BD4680BD80B584B000AF7860DE
:10093C0039600023FB733B681B88052B40D17B6817
:10094C0001331B789BB21B02BB817B6802331B7883
:10095C009AB2BB891343BB81BB890133BB817B68D2
:10096C0004331B78002B28D17B6803331B78FF2BB7
:10097C0004D07B6803331B78002B1ED100237B72C1
:10098C007B6803331B78FF2B02D101233B7201E000
:10099C0000233B72B98907F108000123012202F000
:1009AC00ABFD0346FB72FB7A002B0BD0FB7A18468F
:1009BC0001F00DF90346FB7304E00323FB7301E024
:1009CC000323FB73FB7B18461037BD4680BD80B5F7
:1009DC0086B000AF7B600346FB730B46BB811346AE
:1009EC007B810023FB8200233B75FB7B102B02D900
:1009FC0002233B7569E07B89B3F5F66F02D90223BC
:100A0C003B7562E0386A02F02DF90346002B02D1E7
:100A1C0005233B7559E007F11003184601F0D2FF8E
:100A2C00FB7B184601F052FD3B690F221A70BB8903
:100A3C001B0A9AB23B690133D2B21A703B6902337A
:100A4C00BA89D2B21A707B891B0A9AB23B690333FA
:100A5C00D2B21A703B6904337A89D2B21A707B898C
:100A6C0003F00703002B06D07B89DB089BB2DBB2BB
:100A7C0001337B7503E07B89DB089BB27B753B699B
:100A8C0005337A7D1A703B6906333B610AE0FB8AB9
:100A9C005A1CFA821A467B681A443B69591C396104
:100AAC0012781A707B7D9BB2FA8A9A42EFD37B7DC7
:100ABC009BB206339BB2184601F092FF082002F05D
:100ACC0097F802F00CF903463B753B7D1846183736
:100ADC00BD4680BD80B586B000AF7860396000231C
:100AEC00BB753B681B88052B04D001F0A5FF0346A2
:100AFC00002B52D007F10C03184601F063FF7B6802
:100B0C0001331B789BB21B02BB827B6802331B78C0
:100B1C009AB2BB8A1343BB82BB8A0133BB827B680C
:100B2C0003331B789BB21B027B827B6804331B78DC
:100B3C009AB27B8A13437B82FB685B797B747B8ADA
:100B4C0003F00703002B06D07B8ADB089BB2DBB2D9
:100B5C000133FB7503E07B8ADB089BB2FB757B8A58
:100B6C00002B16D0FA7D7B7C9A4212D1FB68981D23
:100B7C007A8AB98A012302F0BFFC03463B743B7CA2
:100B8C00002B09D03B7C184601F021F80346BB75BD
:100B9C0002E00323BB7502E001E00323BB75BB7DC0
:100BAC0018461837BD4680BD80B586B000AF78605A
:100BBC0039600023BB753B681B88052B6CD17B68A7
:100BCC0001331B789BB21B02BB827B6802331B7800
:100BDC009AB2BB8A1343BB82BB8A0133BB827B684C
:100BEC0003331B789BB21B027B827B6804331B781C
:100BFC009AB27B8A13437B827B8A002B49D07B8AF7
:100C0C00B3F5FA6F45D27B68FB603B6800221A8013
:100C1C00FB685A1CFA6002221A703B681B8801336D
:100C2C009AB23B681A807B8A03F00703002B06D02C
:100C3C007B8ADB089BB2DBB20133FB7503E07B8A5A
:100C4C00DB089BB2FB75FB685A1CFA60FA7D1A70C4
:100C5C003B681B8801339AB23B681A807A8ABB8A3C
:100C6C001946F86803F054FD0346FB72FB7A002B1F
:100C7C0006D0FB7A184600F0AAFF0346BB750DE0C0
:100C8C003B681A88FB7D9BB213449AB23B681A806E
:100C9C0004E00323BB7501E00323BB75BB7D184641
:100CAC001837BD4680BD80B586B000AF7B6003466B
:100CBC00FB730B46BB8113467B810023FB75FB7BCF
:100CCC00102B02D90223FB7536E0786801F0CAFFBD
:100CDC000346002B02D10523FB752DE007F1100311
:100CEC00184601F06FFEFB7B184601F0EFFB3B69E9
:100CFC0002221A70BB891B0A9AB23B690133D2B229
:100D0C001A703B690233BA89D2B21A707B891B0AFA
:100D1C009AB23B690333D2B21A703B6904337A89B5
:100D2C00D2B21A70052001F05BFE082001F060FFC2
:100D3C0001F0D5FF0346FB75FB7D18461837BD4601
:100D4C0080BD80B586B000AF786039600023BB757C
:100D5C0001F072FE0346002B02D00023BB7556E057
:100D6C003B681B88012B50D907F10C03184601F086
:100D7C0029FEFB6801331B789BB21B02BB82FB680C
:100D8C0002331B789AB2BB8A1343BB82BB8A0133F2
:100D9C00BB82FB6803331B789BB21B027B82FB6814
:100DAC0004331B789AB27B8A13437B827B8A03F0D1
:100DBC000703002B06D07B8ADB089BB2DBB2013326
:100DCC00FB7503E07B8ADB089BB2FB757B8A002BEF
:100DDC0018D07B6801331B78FA7D9A4212D17B685C
:100DEC0002337A8AB98A184602F03CFC03467B74BB
:100DFC007B7C002B0BD07B7C184600F0E8FE034676
:100E0C00BB7504E00323BB7501E00323BB75BB7DFD
:100E1C0018461837BD4680BD80B584B000AF7860E9
:100E2C0039600023FB733B681B88052B22D17B6840
:100E3C0001331B789BB21B02BB817B6802331B788E
:100E4C009AB2BB891343BB81BB890133BB817B68DD
:100E5C00D81CB9890123012203F026FB0346FB723F
:100E6C00FB7A002B08D0FB7A184600F0B0FE034644
:100E7C00FB7301E00323FB73FB7B18461037BD4665
:100E8C0080BD80B584B000AF786039600023FB73FF
:100E9C003B681B88052B46D97B6801331B789BB2BA
:100EAC001B02BB817B6802331B789AB2BB8913434C
:100EBC00BB81BB890133BB817B6803331B789BB23D
:100ECC001B027B817B6804331B789AB27B891343AA
:100EDC007B817B685B797B727B89002B20D07B8943
:100EEC00782B1DD87B89DBB25B00DBB27A7A9A4215
:100EFC0016D17B68981D7A89B989012303F0D4FA3D
:100F0C0003463B723B7A002B06D03B7A184600F026
:100F1C005EFE0346FB7308E03B6805221A8004E082
:100F2C000323FB7301E00323FB73FB7B1846103791
:100F3C00BD4680BD80B586B000AF786039600023B7
:100F4C00FB753B681B88052B5FD17B6801331B78D5
:100F5C009BB21B02BB827B6802331B789AB2BB8AA2
:100F6C001343BB82BB8A0133BB827B6803331B7880
:100F7C009BB21B027B827B6804331B789AB27B8A00
:100F8C0013437B827B8A002B3CD07B8A7D2B39D808
:100F9C007B68FB603B6800221A80FB685A1CFA6075
:100FAC0003221A703B681B8801339AB23B681A8083
:100FBC007B8ADAB2FB68591CF9605200D2B21A7003
:100FCC003B681B8801339AB23B681A807A8AB98ACB
:100FDC000023F86803F068FA0346FB72FB7A002BD7
:100FEC0006D0FB7A184600F0F2FD0346FB750EE0C6
:100FFC003B681A887B8A5B009BB213449AB23B68AD
:10100C001A8004E00323FB7501E00323FB75FB7DD1
:10101C0018461837BD4680BD80B586B000AF7860E5
:10102C0039600023FB753B681B88092B40F29980C3
:10103C007B6801331B789BB21B02BB827B6802333B
:10104C001B789AB2BB8A1343BB82BB8A0133BB8227
:10105C007B6803331B789BB21B027B827B68043357
:10106C001B789AB27B8A13437B827B6805331B788F
:10107C009BB21B023B827B6806331B789AB23B8A7D
:10108C0013433B823B8A01333B827B6807331B78DB
:10109C009BB21B02FB817B6808331B789AB2FB89DD
:1010AC001343FB817B685B7A7B737B8A002B56D066
:1010BC007B8A7D2B53D8FB89002B50D0FB89792B55
:1010CC004DD8FB895A007B7B9A4248D17B6803F14F
:1010DC000A00FA89398A012303F0E6F90346BB7545
:1010EC00BB7D002B31D17B68BB603B6800221A8032
:1010FC00BB685A1CBA6017221A703B681B880133F4
:10110C009AB23B681A807B8ADAB2BB68591CB96008
:10111C005200D2B21A703B681B8801339AB23B68FA
:10112C001A807A8AB98A0023B86803F0BDF903469D
:10113C00BB75BB7D002B08D13B681A887B8A5B0092
:10114C009BB213449AB23B681A80BB7D002B08D02B
:10115C00BB7D184600F03BFD0346FB7501E0032305
:10116C00FB75FB7D18461837BD4680BD80B586B033
:10117C0000AF7B600346FB730B46BB8113467B8140
:10118C000023FB75FB7B102B02D90223FB7535E08A
:10119C00786801F067FD0346002B02D10523FB752F
:1011AC002CE007F11003184601F00CFCB62001F0FE
:1011BC008DF93B6906221A70BB891B0A9AB23B69EE
:1011CC000133D2B21A703B690233BA89D2B21A70A7
:1011DC007B891B0A9AB23B690333D2B21A703B6902
:1011EC0004337A89D2B21A70052001F0F9FB082079
:1011FC0001F0FEFC01F073FD0346FB75FB7D184608
:10120C001837BD4680BD80B584B000AF78603960BA
:10121C000023FB733B681B88052B22D17B680133B1
:10122C001B789BB21B02BB817B6802331B789AB282
:10123C00BB891343BB81BB890133BB817B68D81C41
:10124C00B9890123012202F0C7F80346FB72FB7A2D
:10125C00002B08D0FB7A184600F0B9FC0346FB7350
:10126C0001E00323FB73FB7B18461037BD4680BDA2
:10127C0080B586B000AF7B600346FB730B46BB8129
:10128C0013467B810023FB8200237B75FB7B102B99
:10129C0002D902237B7562E0386A01F0E3FC034655
:1012AC00002B02D105237B7559E007F1100318467A
:1012BC0001F088FBFB7B184601F008F93B69102212
:1012CC001A70BB891B0A9AB23B690133D2B21A70ED
:1012DC003B690233BA89D2B21A707B891B0A9AB263
:1012EC003B690333D2B21A703B6904337A89D2B2A8
:1012FC001A707B89DAB23B6905335200D2B21A708C
:10130C003B6906333B6117E0FB8A5B007A68134448
:10131C001B881B0A99B23B695A1C3A61CAB21A70F3
:10132C00FB8A5A1CFA825B007A68134419883B6961
:10133C005A1C3A61CAB21A707A89FB8A9A42E3D86B
:10134C007B8903339BB25B009BB2184601F048FBD0
:10135C00082001F04DFC01F0C2FC03467B757B7D3F
:10136C0018461837BD4680BD80B586B000AF786092
:10137C0039600023FB753B681B88052B04D001F0FA
:10138C005BFB0346002B3FD007F10C03184601F022
:10139C0019FBFB6801331B789BB21B02BB82FB68F9
:1013AC0002331B789AB2BB8A1343BB82BB8A0133CC
:1013BC00BB82FB6803331B789BB21B027B82FB68EE
:1013CC0004331B789AB27B8A13437B82FB685B796C
:1013DC007B747A7C7B8A5B009A4212D1FB68981DE5
:1013EC007A8AB98A012301F0F7FF03463B743B7CF0
:1013FC00002B0CD03B7C184600F0E9FB0346FB7538
:10140C0005E00323FB7502E00323FB7500E000BF3E
:10141C00FB7D18461837BD4680BD80B586B000AF41
:10142C007B600346FB730B46BB8113467B81002319
:10143C00FB75FB7B102B02D90223FB7536E0786819
:10144C0001F010FC0346002B02D10523FB752DE0A7
:10145C0007F11003184601F0B5FAFB7B184601F0B2
:10146C0035F83B6903221A70BB891B0A9AB23B6997
:10147C000133D2B21A703B690233BA89D2B21A70F4
:10148C007B891B0A9AB23B690333D2B21A703B694F
:10149C0004337A89D2B21A70052001F0A1FA08201F
:1014AC0001F0A6FB01F01BFC0346FB75FB7D184607
:1014BC001837BD4680BD80B586B000AF7860396006
:1014CC000023FB7501F0B8FA0346002B02D0002371
:1014DC00FB7547E03B681B88012B41D907F10C03D6
:1014EC00184601F06FFAFB6801331B789BB21B02A4
:1014FC00BB82FB6802331B789AB2BB8A1343BB8254
:10150C00BB8A0133BB82FB6803331B789BB21B0283
:10151C007B82FB6804331B789AB27B8A13437B82F1
:10152C007B8A002B19D07B8A5B007A680132127897
:10153C00934212D17B68981C7A8AB98A002301F0F5
:10154C004BFF03467B747B7C002B0BD07B7C1846BB
:10155C0000F03DFB0346FB7504E00323FB7501E043
:10156C000323FB75FB7D18461837BD4680BD80B53F
:10157C0086B000AF7B600346FB730B46BB81134602
:10158C007B810023FB8200237B75FB7B102B02D914
:10159C0002237B757AE0B86A01F064FB0346002BEA
:1015AC0002D105237B7571E007F11003184601F099
:1015BC0009FAFB7B184600F089FF3B6917221A7069
:1015CC00BB891B0A9AB23B690133D2B21A703B69D0
:1015DC000233BA89D2B21A707B891B0A9AB23B6960
:1015EC000333D2B21A703B6904337A89D2B21A70BF
:1015FC003B8C1B0A9AB23B690533D2B21A703B6919
:10160C0006333A8CD2B21A70BB8C1B0A9AB23B6965
:10161C000733D2B21A703B690833BA8CD2B21A7043
:10162C00BB8CDAB23B6909335200D2B21A703B69F7
:10163C000A333B6117E0FB8A5B007A6813441B8812
:10164C001B0A99B23B695A1C3A61CAB21A70FB8ADE
:10165C005A1CFA825B007A68134419883B695A1C3D
:10166C003A61CAB21A70BA8CFB8A9A42E3D8BB8C24
:10167C0005339BB25B009BB2184601F0B1F9082010
:10168C0001F0B6FA01F02BFB03467B757B7D184607
:10169C001837BD4680BD80B586B000AF7860396024
:1016AC000023FB7501F0C8F90346002B02D0002380
:1016BC00FB756BE03B681B88012B67D907F10803AE
:1016CC00184601F07FF9BB6801331B789BB21B02F3
:1016DC00BB82BB6802331B789AB2BB8A1343BB82B2
:1016EC00BB8A0133BB82BB6803331B789BB21B02E2
:1016FC007B82BB6804331B789AB27B8A13437B8250
:10170C00BB6805331B789BB21B023B82BB6806335C
:10171C001B789AB23B8A13433B823B8A01333B8250
:10172C00BB6807331B789BB21B02FB81BB68083379
:10173C001B789AB2FB891343FB817B8A5B007A6826
:10174C000132127893421FD1BB6803F10A00FA8967
:10175C00398A012301F040FE0346BB75BB7D002B8B
:10176C0008D17B68981C7A8AB98A002301F034FE70
:10177C000346BB75BB7D002B08D0BB7D184600F023
:10178C0026FA0346FB7501E00323FB75FB7D184627
:10179C001837BD4680BD80B586B000AF7860396023
:1017AC000023FB753B681B88052B5FD17B680133DD
:1017BC001B789BB21B02BB827B6802331B789AB2EC
:1017CC00BB8A1343BB82BB8A0133BB827B68033366
:1017DC001B789BB21B027B827B6804331B789AB20A
:1017EC007B8A13437B827B8A002B3CD07B8A7C2BAD
:1017FC0039D87B68FB603B6800221A80FB685A1C56
:10180C00FA6004221A703B681B8801339AB23B6859
:10181C001A807B8ADAB2FB68591CF9605200D2B28A
:10182C001A703B681B8801339AB23B681A807A8A1B
:10183C00BB8A1946F86802F0E3FD0346FB72FB7A9B
:10184C00002B06D0FB7A184600F0C1F90346FB7555
:10185C000EE03B681A887B8A5B009BB213449AB2F9
:10186C003B681A8004E00323FB7501E00323FB753E
:10187C00FB7D18461837BD4680BD80B586B000AFDD
:10188C007B600346FB730B46BB8113467B810023B5
:10189C00FB75FB7B102B02D90223FB7536E07868B5
:1018AC0001F0E0F90346002B02D10523FB752DE076
:1018BC0007F11003184601F085F8FB7B184600F081
:1018CC0005FE3B6904221A70BB891B0A9AB23B695C
:1018DC000133D2B21A703B690233BA89D2B21A7090
:1018EC007B891B0A9AB23B690333D2B21A703B69EB
:1018FC0004337A89D2B21A70052001F071F80820ED
:10190C0001F076F901F0EBF90346FB75FB7D184607
:10191C001837BD4680BD80B586B000AF78603960A1
:10192C000023FB7501F088F80346002B02D000233E
:10193C00FB7547E03B681B88012B41D907F10C0371
:10194C00184601F03FF8FB6801331B789BB21B0271
:10195C00BB82FB6802331B789AB2BB8A1343BB82EF
:10196C00BB8A0133BB82FB6803331B789BB21B021F
:10197C007B82FB6804331B789AB27B8A13437B828D
:10198C007B8A002B19D07B8A5B007A680132127833
:10199C00934212D17B6802337A8AB98A184601F0D5
:1019AC00B9FC03467B747B7C002B0BD07B7C1846EC
:1019BC0000F00DF90346FB7504E00323FB7501E011
:1019CC000323FB75FB7D18461837BD4680BD000010
:1019DC0080B584B000AF3A601A460346FB710B46E3
:1019EC00BB711346BB800023FB73BB881D2B30D807
:1019FC001B4B00221A801A4B1B885A1C91B2184A96
:101A0C0011801946174AFB795354BB79002B01D02E
:101A1C00FF2100E00021124B1B885A1C90B2104A87
:101A2C0010801A460F4B9954BB88002B13D00C4BCB
:101A3C001B881A460B4B1344BA883968184616F0A3
:101A4C0087FE074B1A88BB8813449AB2044B1A8042
:101A5C0001E00423FB73FB7B18461037BD4680BDA9
:101A6C008C0200106C02001080B582B000AF786060
:101A7C0039607B680133084A12880849184616F009
:101A8C0067FE054B1B8801339AB23B681A80002312
:101A9C0018460837BD4680BD8C0200106C02001041
:101AAC0080B487B000AF7860084611461A460346EA
:101ABC007B800B467B7013463B703B78FB827B88AC
:101ACC00DB08BB82BB8ADB009BB27A88D31A7B8291
:101ADC00FA8A7B8A02FA03F3FB827B78012202FAF0
:101AEC0003F39BB2013B3B823A8A7988BB8ADB00C9
:101AFC00CB1A02FA03F33B82BB8A7A6813441B7835
:101B0C00FB81BB8A01337A6813441B781B021AB21F
:101B1C00B7F90E3013431BB2FB81B7F91030DB431E
:101B2C001AB2B7F90E3013401AB2B7F91630134384
:101B3C001BB2FB81BB8A7A681344FA89D2B21A7041
:101B4C00FB891B0A99B2BB8A01337A681344CAB267
:101B5C001A7000BF1C37BD4680BC704780B485B07E
:101B6C0000AF78600B467B8013467B707B88DB086C
:101B7C00FB81FB89DB009BB27A88D31ABB817B7813
:101B8C00012202FA03F39BB2013B7B81FB897A6849
:101B9C0013441B783B81FB8901337A6813441B780F
:101BAC001B021AB2B7F9083013431BB23B813A89B6
:101BBC00BB8942FA03F33B813A897B8913403B8111
:101BCC003B89DBB218461437BD4680BC704780B4E5
:101BDC0085B000AF0346FB71FB79072B0CD0072BAC
:101BEC000DDC002B02D0012B03D008E00023FB738B
:101BFC0008E00223FB7305E00623FB7302E00423D9
:101C0C00FB7300BFFB7B18461437BD4680BC704786
:101C1C0080B584B000AF3B600346FB710B46BB71D3
:101C2C0013467B710023FB73BB79002B05D0BB796A
:101C3C00002B02D0BB79F72B02D90223FB7316E0E1
:101C4C000D4ABB7913700223FB7300BFFB7B002B87
:101C5C000DD101F079FD0346002B02D10323FB7358
:101C6C0005E0064AFB791370054B01221A70FB7BC9
:101C7C0018461037BD4680BD8E0200108F02001032
:101C8C000400001080B584B000AF0346FB80002335
:101C9C00FB73FB88184600F0DBFE0346FB73FB7BF3
:101CAC00002B03D0144B01221A701FE001F04CFDE5
:101CBC000346002B02D10323FB7317E00F4B104A92
:101CCC001A60104B104A1A60104B114A1A60114BD3
:101CDC00114A1A60114B00221A60114BFF221A7024
:101CEC00104B02221A70044B01221A70FB7B18460F
:101CFC001037BD4680BD00BF0400001094020010D8
:101D0C00872A000098020010932A00009C02001001
:101D1C009F2A000090020010112B0000A00200105E
:101D2C008E0200108F02001080B584B000AF034605
:101D3C003960FB71FB79002B55D097F90730002BDC
:101D4C0051DB00F00DFF3B68002B2BD00023FB6018
:101D5C001DE0284AFB68DB0013445B68002B07D0AE
:101D6C00244AFB68DB0013445B683A689A420BD147
:101D7C002049FB68FA7901F833201E4AFB68DB0026
:101D8C0013443A685A6005E0FB680133FB60FB685A
:101D9C000F2BDEDDFB68102B01D0002300E00423A9
:101DAC00FB721DE00023FB6015E0124AFB6812F881
:101DBC003330FA799A420BD10E4AFB68002102F8B3
:101DCC0033100C4AFB68DB00134400225A6005E018
:101DDC00FB680133FB60FB680F2BE6DD0023FB7215
:101DEC0000F0E2FE01E00223FB72FB7A184610378A
:101DFC00BD4680BD0800001080B582B000AF002346
:101E0C00FB71094B1B78012B07D1084B1B68002B6E
:101E1C0005D0064B1B68984701E00623FB71FB7944
:101E2C0018460837BD4680BD04000010A002001003
:101E3C0080B582B000AF0023FB71094B1B78012BDE
:101E4C0006D1084B1B689847054B00221A7001E01D
:101E5C000623FB71FB7918460837BD4680BD00BFD1
:101E6C00040000109402001080B582B000AF0D4B3E
:101E7C001B78002B08D10C4B1B689847094B01228F
:101E8C001A700023FB7108E0064B1B78012B02D162
:101E9C000023FB7101E00623FB71FB791846083720
:101EAC00BD4680BD040000109802001090B583B0B0
:101EBC0000AF0023FB70564B1B78002B01D0062380
:101ECC00A1E0BB1C184601F061FC0346012B40F05D
:101EDC009480BB78013B072B00F2948001A252F84E
:101EEC0023F000BF11200000111F00001120000082
:101EFC00431F0000112000001120000011200000E1
:101F0C0011200000434B1B68434A444944489847FE
:101F1C000346FB70FB78002B71D1414B1A78414B77
:101F2C001B789A4203D03E4B1B78002B67D10420C0
:101F3C0001F016FC63E0394B1B681A783A4B1A70A7
:101F4C003A4B01221A7000237B601FE0384A7B68F1
:101F5C0012F83330002B1DD0354A7B6812F8332031
:101F6C00314B1B789A420ED1314A7B68DB0013440B
:101F7C005B682A4A126828491046984703461A4655
:101F8C002A4B1A7007E07B6801337B607B680F2B50
:101F9C00DCDD00E000BF224B1B78002B31D0234B43
:101FAC001B78002B1DD01C4B00221A801E4B1A785C
:101FBC001A4B1968184B1B88581C84B2164804809D
:101FCC000B4462F07F02D2B21A70144B1A68124B97
:101FDC001B88591C88B2104908801344134A127884
:101FEC001A70144B1B680F4A10780C4A11680A4A75
:101FFC00128898470346FB7003E000BF02E000BF65
:10200C0000E000BF002318460C37BD4690BD00BF52
:10201C00040000109C020010C0020010BC02001052
:10202C00B80200108E020010C2020010C302001091
:10203C00080000109002001080B584B000AF3A6028
:10204C001A460346FB710B46BB7113467B7100238A
:10205C00FB73FB79002B20D11C4B1D4A1A601D4BC6
:10206C001D4A1A601D4B1E4A1A601E4B1E4A1A60EE
:10207C001E4B00221A601E4B1E4A1A601E4B1F4A32
:10208C001A601F4B1F4A1A607A79BB793968184657
:10209C0000F07CFA0346FB7302E00223FB7300BFE3
:1020AC00FB7B002B0CD100F097FD0346002B02D1DB
:1020BC000323FB7302E0144B01221A7000F0CCFDD9
:1020CC00FB7B18461037BD4680BD00BFCC0200100C
:1020DC0009260000D002001031260000C8020010B2
:1020EC00BD260000D40200104D260000D8020010BE
:1020FC00DC02001091270000E00200104D280000C7
:10210C00E4020010FD2800008800001080B582B0A9
:10211C0000AF0023FB71094B1B78012B07D1084B37
:10212C001B68002B05D0064B1B68984701E0062363
:10213C00FB71FB7918460837BD4680BD880000103E
:10214C00D802001080B582B000AF0023FB71094BA0
:10215C001B78012B06D1084B1B689847054B0022B6
:10216C001A7001E00623FB71FB7918460837BD464F
:10217C0080BD00BF88000010CC02001080B582B07A
:10218C0000AF0F4B1B78002B03D00D4B1B78032B90
:10219C0008D10C4B1B689847094B01221A7000237D
:1021AC00FB7108E0064B1B78012B02D10023FB715D
:1021BC0001E00623FB71FB7918460837BD4680BD4C
:1021CC0088000010D002001080B400AF054B1B78C3
:1021DC00032B01D1012300E000231846BD4680BC2F
:1021EC00704700BF88000010F0B585B000AF002329
:1021FC00FB719B4B1B78002B05D0994B1B78032B49
:10220C0001D0062327E13B1D184600F007FD0346CD
:10221C00012B40F01C81BB88013B0F2B00F2198174
:10222C0001A252F823F000BF752200007D220000AD
:10223C005F240000BB2200005F2400005F2400002C
:10224C005F240000AF2300005F2400005F24000027
:10225C005F2400005F2400005F2400005F24000066
:10226C005F240000D92300007D4B03221A70F1E09B
:10227C007C4B1B687C4A7D497D4898470346FB7123
:10228C00FB79002B0CD100F017F903461A46784B5A
:10229C001B789A4204D1042000F0AAFC00BFD9E0BC
:1022AC00012000F02DF9102000F0A2FCD2E06F4BC1
:1022BC001B681A786F4B1A706F4B01221A706D4B9A
:1022CC001B785BB2002B06DA684B1B6801331A785B
:1022DC00694B1A7055E00023FB604DE0674AFB68C0
:1022EC0012F83330002B4BD0644AFB6812F83320C1
:1022FC00604B1B789A423CD1012000F0CDF800F0E5
:10230C009BFB0346002B22D000F07AFB03461A46B7
:10231C00554B1A800123BB6015E0BB68DBB2184635
:10232C0000F0D4F8554AFB68DB0013445B684F4A55
:10233C0012684D491046984703461A464E4B1A7080
:10234C00BB680133BB60BB68102BE6DD0DE04B4A6C
:10235C00FB68DB0013445B68444A12684249104630
:10236C00984703461A46444B1A70002000F094F824
:10237C0007E0FB680133FB60FB680F2BAEDD00E070
:10238C0000BF3D4B1B78002B06D0022000F0B8F8A4
:10239C00102000F02DFC5DE000F09BFC00F06CFCCC
:1023AC0058E0324800F00EFB354B1C6800F084F806
:1023BC0003461E462D4B1D6800F022FB03461A46B1
:1023CC0029463046A0470346FB7143E000F08EF8E7
:1023DC000346BB71254800F0F5FABB79022B24D0DB
:1023EC00022B31DC002B02D0012B0FD02CE000F0A3
:1023FC0063F803461D461D4B1C6800F001FB0346A9
:10240C001A462146284600F03DFC1DE000F054F829
:10241C0003461D46154B1C6800F0F2FA03461A469B
:10242C002146284600F03BFC0EE000F045F8034640
:10243C001D460E4B1C6800F0E3FA03461A46214673
:10244C00284600F039FC00BF00F016FC02E000BF8B
:10245C0000E000BF002318461437BD46F0BD00BF96
:10246C0088000010D4020010F8020010F4020010D2
:10247C00F0020010FA020010FB0200108C00001099
:10248C00C802001080B400AF024B1B781846BD4642
:10249C0080BC7047C502001080B483B000AF034607
:1024AC00FB71044AFB79137000BF0C37BD4680BC2E
:1024BC00704700BFC502001080B400AF024B1B7800
:1024CC001846BD4680BC7047C402001080B483B06F
:1024DC0000AF0346FB71044AFB79137000BF0C3745
:1024EC00BD4680BC704700BFC402001080B400AF72
:1024FC00024B1B781846BD4680BC7047C6020010C4
:10250C0080B483B000AF0346FB71044AFB791370AF
:10251C0000BF0C37BD4680BC704700BFC602001020
:10252C0080B485B000AF78600B467B80FF23FB73D3
:10253C00FF23BB7313E07B685A1C7A601A78BB7B51
:10254C005340DBB2BB600F4ABB6813441A78FB7B69
:10255C005340BB730C4ABB6813441B78FB737B88DA
:10256C005A1E7A80002BE6D1FB7B1B021AB2BB7B76
:10257C001BB213431BB29BB218461437BD4680BC2A
:10258C00704700BFB8A50100B8A6010080B584B0A3
:10259C0000AF03463960FB711346BB710023FB731C
:1025AC0000F0DEFABB79F8790822396800F074FC87
:1025BC000346012B02D00323FB7316E03B68B3F5F3
:1025CC00964F02D92323BB6005E03B685B000A4AA7
:1025DC00B2FBF3F3BB60BB689BB2184600F0C4FDC2
:1025EC000346012B01D00323FB7300F0DDFAFB7BC8
:1025FC0018461037BD4680BDA07F170080B500AFD0
:10260C0000F0AEFA064B00221A700021012000F0F7
:10261C0073FC00F0E7FD00F0C7FA00BF80BD00BFFF
:10262C00FD02001080B500AF00F09AFA00210020E6
:10263C0000F062FC00F04EFE00F0B6FA00BF80BD68
:10264C0080B586B000AFF860B9607A600023FB7586
:10265C0000F086FA134B1B889BB2032B19D9114B34
:10266C001B889BB219461048FFF75AFF0346002BF4
:10267C000FD10D4B1B78DAB2FB681A70094B1B8813
:10268C009BB2033B9AB27B681A80BB68074A1A60FC
:10269C0001E00523FB7500F087FAFB7D184618371F
:1026AC00BD4680BD0A050010000400100104001096
:1026BC0080B584B000AF03463960FB711346BB8014
:1026CC000023FB73FB79102B01D902234BE000F0A4
:1026DC0047FA274B1B78DBB2012B3FD13B68013B00
:1026EC00244A1360244B01221A80224B1B68FA796E
:1026FC001A70214B1B889AB2BB8813449AB21E4B9A
:10270C001A801C4B1B681C4A128892B21146184640
:10271C00FFF706FF0346BB81174B1B889BB25A1C65
:10272C0091B2154A11801A46BB89D9B2134B9954F0
:10273C00BB891B0A99B2104B1B889BB25A1C90B2D6
:10274C000D4A10801A46C9B20C4B99540C4B0122FD
:10275C001A700121002000F0CFFB01E00523FB7370
:10276C0000F022FAFB7B18461037BD4680BD00BF37
:10277C00FD020010040500100805001000030010F5
:10278C00FC02001080B582B000AF0023FB71BB1DB2
:10279C00184600F021FC264B1B78DBB2032B41D8EA
:1027AC0001A252F823F000BFC5270000D12700007A
:1027BC0003280000CB27000000F014FD32E000F0ED
:1027CC0011FD2FE000F086FD1A4B00221A701A4BF7
:1027DC0000221A80184B1B889BB25A1C91B2164AC5
:1027EC0011801A46B979154B9954114B02221A7063
:1027FC0000F0F8FC16E0104B1B889BB2FF2B0BD89B
:10280C000D4B1B889BB25A1C91B20B4A11801A4675
:10281C00B9790A4B995402E0054B03221A7000F067
:10282C00E1FC00BFFB7918460837BD4680BD00BFF0
:10283C00FD020010FC0200100A050010000400103C
:10284C0080B582B000AF0023FB71244B1B78DBB248
:10285C00002B02D0012B05D03AE00021012000F022
:10286C004BFB35E01E4B1B889BB2002B13D01D4B32
:10287C001B681B78DBB2184600F09CFB194B1B68DD
:10288C000133184A1360164B1B889BB2013B9AB25A
:10289C00134B1A801BE0144B1B78DBB2002B0CBFC4
:1028AC0001230023DBB21A46104B1A7000210120C1
:1028BC0000F022FB094B02221A700C4B1B78DBB286
:1028CC00012B02D100F0BAFC01E000F0DDFC00BFEE
:1028DC00FB7918460837BD4680BD00BFFC020010CE
:1028EC000805001004050010000300100C05001072
:1028FC0080B582B000AF0023FB71274B1B78DBB295
:10290C00032B12D0032B19DC002B02D0022B06D088
:10291C0014E0012000F06CF90346FB710FE002207B
:10292C0000F066F90346FB7109E00120FFF7E8FDB2
:10293C00102000F05DF90346FB7100E000BF164B60
:10294C0001221A70154B1B78DBB2022B0DD1144BE4
:10295C001B78DBB2002B0AD10020FFF7D1FD102031
:10296C0000F046F90346FB7101E000BF00E000BF38
:10297C000A4B00221A7000F0ADFC0A4B1B78DBB23C
:10298C00022B04D1042000F033F90346FB71FB79D0
:10299C0018460837BD4680BDFD020010FC02001031
:1029AC000C0500100D05001080B483B000AF7860EA
:1029BC007B68034A1A6000BF0C37BD4680BC704769
:1029CC000003001080B483B000AF78607B68034ACA
:1029DC001A6000BF0C37BD4680BC70470103001065
:1029EC0080B483B000AF0346FB80044AFB8813809D
:1029FC0000BF0C37BD4680BC704700BF00050010FF
:102A0C0080B400AF034B1B889BB21846BD4680BCFC
:102A1C00704700BF0005001080B483B000AF0346C0
:102A2C00FB71044AFB79137000BF0C37BD4680BCA8
:102A3C00704700BF0D05001080B400AF034B1B782E
:102A4C00DBB21846BD4680BC704700BF0C050010B9
:102A5C0080B584B000AF0346FB800023FB73FB887A
:102A6C00184600F0A7FF0346002B01D10323FB738C
:102A7C00FB7B18461037BD4680BD80B400AF00BF4D
:102A8C00BD4680BC704780B500AF01F043F800BF75
:102A9C0080BD80B588B000AFF860B9607A6005235E
:102AAC00FB7707F1160207F118031146184601F0DF
:102ABC0035F90346002B1ED0BB6902331B789BB241
:102ACC001B02BB83BB6903331B789AB2BB8B1343CA
:102ADC00BB83BB8B002B10D1BB69DA1DBB681A60A2
:102AEC00FB8A073B9AB27B681A800023FB77FB6852
:102AFC00FF221A7001E00523FB77FB7F1846203775
:102B0C00BD4680BD80B586B000AF03463960FB7111
:102B1C001346BB800023FB753B68073B3B61BB88BE
:102B2C000733FB81BB8801331A123B690433D2B2E1
:102B3C001A70BB88DAB23B6905330132D2B21A7013
:102B4C00FB891946386901F003F90346002B01D1C2
:102B5C000523FB75FB7D18461837BD4680BD00006C
:102B6C0080B400AF0E4B1B680E4A13600C4B5B68B5
:102B7C000C4A53600A4BD3F880200A4B1B68084957
:102B8C001343C1F88030064BD3F88420054B5B68A7
:102B9C0003491343C1F8843000BFBD4680BC704765
:102BAC0000E100E01005001080B400AF084B1A687B
:102BBC00084B1B68064913430B60054B5A68054BC1
:102BCC005B68034913434B6000BFBD4680BC704734
:102BDC0000E100E01005001080B400AF034B0022B0
:102BEC001A7001231846BD4680BC704719050010A9
:102BFC0080B483B000AF0346FB80064B01221A70F1
:102C0C00FB88DAB2044B1A70012318460C37BD4608
:102C1C0080BC7047190500101805001080B485B0F1
:102C2C0000AF78600023FB73094B1B78002B09D095
:102C3C00084B1B789AB27B681A80054B00221A70DD
:102C4C000123FB73FB7B18461437BD4680BC7047D1
:102C5C00190500101805001080B400AF00BFBD4668
:102C6C0080BC704780B483B000AF786001231846F5
:102C7C000C37BD4680BC704780B400AF00BFBD466A
:102C8C0080BC704780B483B000AF03463960FB71E1
:102C9C001346BB8000BF0C37BD4680BC704780B468
:102CAC0083B000AF03463960FB711346BB8000BF95
:102CBC000C37BD4680BC704780B483B000AF034670
:102CCC003960FB711346BB8000BF0C37BD4680BC1E
:102CDC00704780B400AF00BFBD4680BC704780B465
:102CEC0083B000AF0023FB71FB7918460C37BD464F
:102CFC0080BC704780B483B000AF0346FB71FB7996
:102D0C0003F01F03012202FA03F1054A97F9073079
:102D1C005B0942F8231000BF0C37BD4680BC7047DE
:102D2C0000E100E080B483B000AF03463960FB7172
:102D3C0097F90730002B0BDA3B68DAB20C49FB79B8
:102D4C0003F00F03043BD200D2B20B441A7609E015
:102D5C003B68DAB2074997F90730D200D2B20B447C
:102D6C0083F8002300BF0C37BD4680BC704700BF02
:102D7C0000ED00E000E100E080B483B000AF7860CB
:102D8C00084611461A460346FB700B46BB701346A9
:102D9C007B707B78002B0ED0FB785B017A68134438
:102DAC009969BB7801229A40FB785B0178680344EF
:102DBC000A439A610DE0FB785B017A681344D96988
:102DCC00BB7801229A40FB785B01786803440A4384
:102DDC00DA6100BF0C37BD4680BC704780B584B04B
:102DEC0000AFF860B96011461A460B46FB711346EA
:102DFC00BB71BB68D9B2BB79FA79F868FFF7BCFF35
:102E0C0000BF1037BD4680BD80B483B000AF786082
:102E1C007B681B68DBB218460C37BD4680BC70471C
:102E2C0080B483B000AF786039607B685A683B68C7
:102E3C001A437B685A6000BF0C37BD4680BC704794
:102E4C0080B483B000AF786039607B685A683B68A7
:102E5C00DB431A407B685A6000BF0C37BD4680BC10
:102E6C00704780B483B000AF786039607B683A6893
:102E7C009A6000BF0C37BD4680BC704780B483B0ED
:102E8C0000AF786039607B683A68DA6000BF0C3755
:102E9C00BD4680BC7047000080B582B000AF396081
:102EAC0011461A460346FB710B46BB7113467B71E8
:102EBC00104808F035F939680E4808F045FA032136
:102ECC000C48FFF7DBFF01210A48FFF7CAFF09484E
:102EDC0008F074F907210748FFF7C3FF0121082008
:102EEC00FFF720FF0820FFF705FF012318460837DE
:102EFC00BD4680BD00C0094080B582B000AF03461E
:102F0C000A46FB711346BB71FB79002B10D00121D3
:102F1C002348FFF785FF0023152201212148FFF7E5
:102F2C005DFF0023142201211E48FFF757FF0FE01D
:102F3C0001211B48FFF784FF0123152201211948A9
:102F4C00FFF74CFF0123142201211648FFF746FF1F
:102F5C00BB79002B10D002211148FFF761FF012330
:102F6C00152201210F48FFF739FF012314220121FB
:102F7C000C48FFF733FF0FE002210948FFF760FF11
:102F8C000023152201210748FFF728FF00231422F4
:102F9C0001210448FFF722FF00BF0837BD4680BD62
:102FAC0000C0004000C0092080B400AF00BFBD4687
:102FBC0080BC704780B582B000AF0346FB71FB79D3
:102FCC0001221946034808F04BF90123184608372B
:102FDC00BD4680BD00C0094080B582B000AF7860AE
:102FEC000548FFF711FF03461A467B681A70012348
:102FFC0018460837BD4680BD00C0004080B500AF04
:10300C00024B1B68984700BF80BD00BFE002001058
:10301C0080B500AF024B1B68984700BF80BD00BF56
:10302C00DC02001080B400AF034B9B68024B9B6822
:10303C0000BFBD4680BC704700C0094080B483B05F
:10304C0000AF0346FB71FB7903F01F03012202FA68
:10305C0003F1054A97F907305B0942F8231000BFCA
:10306C000C37BD4680BC704700E100E080B483B0F3
:10307C0000AF0346FB71FB7903F01F03012202FA38
:10308C0003F1064A97F907305B09203342F8231005
:10309C0000BF0C37BD4680BC704700BF00E100E0AC
:1030AC0080B483B000AF78607B685B6843F001024A
:1030BC007B685A6000BF0C37BD4680BC704780B43B
:1030CC0083B000AF78607B685B6823F001027B689B
:1030DC005A6000BF0C37BD4680BC704780B485B0C9
:1030EC0000AFF8600B467A60FB7297F90B20FB6817
:1030FC000632796843F8221000BF1437BD4680BCF5
:10310C00704780B483B000AF78600B46FB707B686F
:10311C00596997F9032013465B001344012202FA04
:10312C0003F341EA03027B685A6100BF0C37BD46CA
:10313C0080BC704780B483B000AF78600B46FB70E6
:10314C007B68596997F9032013465B0013440133DC
:10315C00012202FA03F341EA03027B685A6100BFC1
:10316C000C37BD4680BC704780B582B000AF0346BB
:10317C00FB801B4AFB8813804FF0402007F025FE94
:10318C000121012004F012F800214FF04020FFF73C
:10319C00B8FF00214FF04020FFF7CCFF104B1B88ED
:1031AC001A464FF4965302FB03F31A4600214FF0D4
:1031BC004020FFF793FF4FF04020FFF780FF0120E6
:1031CC00FFF73CFF4FF0402007F0F0FD4FF04020A0
:1031DC00FFF766FF012318460837BD4680BD00BFC8
:1031EC001A05001080B500AF4FF04020FFF767FFC5
:1031FC000120FFF73BFF4FF0402007F0E6FD0E4BA0
:10320C001B881A464FF4965302FB03F31A4600210F
:10321C004FF04020FFF762FF0020FFF7FDFB4FF05F
:10322C00402007F0C3FD0120FFF708FF4FF04020BE
:10323C00FFF736FF00BF80BD1A05001080B500AF48
:10324C004FF04020FFF73BFF0120FFF70FFF4FF03F
:10325C00402007F0BAFD0B4A00214FF04020FFF749
:10326C003DFF0220FFF7D8FB4FF0402007F09EFDFA
:10327C000120FFF7E3FE4FF04020FFF711FF00BFE6
:10328C0080BD00BF00F8240180B500AF4FF0402096
:10329C00FFF715FF0120FFF7E9FE4FF0402007F084
:1032AC0094FD0B4A00214FF04020FFF717FF01203F
:1032BC00FFF7B2FB4FF0402007F078FD0120FFF73D
:1032CC00BDFE4FF04020FFF7EBFE00BF80BD00BFFE
:1032DC00007C920080B500AF4FF04020FFF7EFFE6E
:1032EC000120FFF7C3FE4FF0402007F06EFD00BF3A
:1032FC0080BD000080B500AF024B1B68984700BF33
:10330C0080BD00BFE402001080B500AFFFF7F2FFF4
:10331C0000BF80BD80B586B000AF78600B467B8067
:10332C0013463B800023FB75FFF7C6F80346013BB1
:10333C00C82202FB03F3264A13443B610023FB81A2
:10334C006423BB81234B1B887B817B88013B7B8067
:10335C007A88FB899A4233D37A883B881A44F98954
:10336C00BB890B449A422BDC7A887B89D31ABB82AB
:10337C0022E07B685A1C7A601B789AB2BB8A5B008D
:10338C0039690B44120292B21A807B685A1C7A601B
:10339C001878BB8A5B003A691344198882B2BB8ADD
:1033AC005B00386903440A4392B21A80BB8A01332A
:1033BC00BB823B88013B3B803B88002BD9D101E091
:1033CC000123FB75FB7D18461837BD4680BD00BF39
:1033DC00C8050010C405001080B588B000AFF860B7
:1033EC00084611461A4603467B810B463B81134621
:1033FC00FB710023FB77FFF75FF803465A1E134659
:10340C009B0013449B003A4A1344BB610023FB828C
:10341C000A23BB82374B1B887B820123FB717B8980
:10342C00013B7B817A89FB8A9A4259D37A893B8901
:10343C001A44F98ABB8A0B449A4251DC7A897B8AFA
:10344C00D31ABB83FB79002B1ED0012B43D049E050
:10345C00BB8B5B00BA6913441B881B0A99B2FB68CF
:10346C005A1CFA60CAB21A70BB8B5B00BA6913445F
:10347C001988FB685A1CFA60CAB21A70BB8B0133EC
:10348C00BB833B89013B3B813B89002BE0D126E090
:10349C00FB685A1CFA601B789AB2BB8B5B00B9694B
:1034AC000B44120292B21A80FB685A1CFA6018780C
:1034BC00BB8B5B00BA691344198882B2BB8B5B006F
:1034CC00B86903440A4392B21A80BB8B0133BB83A5
:1034DC003B89013B3B813B89002BD9D100BF01E0EB
:1034EC000123FB77FB7F18462037BD4680BD00BF0C
:1034FC004C1200104812001090B58BB000AFF86061
:10350C00084611461A4603467B810B463B811346FF
:10351C00FB71002387F827303B89DB089BB2013312
:10352C007B84FEF7C9FF0346013BDB004B4A134487
:10353C00FB6100237B8340233B83494B1B88FB822D
:10354C000123FB717B89013B7B817A897B8B9A42BE
:10355C007BD37A893B891A44798B3B8B0B449A42F7
:10356C0073DC7A89FB8AD31A9BB2DB08BB847A8919
:10357C00FB8AD31A9BB203F00703BB82FB79002BA7
:10358C0015D0012B45D063E0BB8C5A1CBA841A466B
:10359C00FB699818FC68631CFB60BB8A08221946FF
:1035AC00FEF7DCFA034623707B8C013B7B847B8C1F
:1035BC00002BE9D1FB68013BFB603B8903F007035F
:1035CC003B81FB681B781A463B89C3F1080302FA5E
:1035DC0003F3DAB2FB681A70FB681B781A463B8956
:1035EC00C3F1080342FA03F3DAB2FB681A702BE05A
:1035FC00BB8C5A1CBA841A46FB699818FB685A1C77
:10360C00FA601B78B98A0822FEF74AFA7B8C013BD8
:10361C007B847B8C012BEBD83B8903F007033B812C
:10362C003B89002B0FD0BB8C5A1CBA841A46FB6901
:10363C0098183B89DCB2FB685A1CFA601B78B98A73
:10364C002246FEF72DFA00BF02E0012387F827304F
:10365C0097F8273018462C37BD4690BD440500100E
:10366C004005001090B589B000AF78600B467B80A8
:10367C0013463B800023FB773B88DB089BB201336E
:10368C007B83FEF719FF0346013B5B002C4A134476
:10369C007B6100237B8210233B822A4B1B88FB819E
:1036AC007B88013B7B807A887B8A9A4241D37A88DB
:1036BC003B881A44798A3B8A0B449A4239DC7A88D3
:1036CC00FB89D31A9BB2DB08BB837A88FB89D31A9C
:1036DC009BB203F00703BB8110E0BB8B5A1CBA836F
:1036EC001A467B6998187B685A1C7A601B78B989D2
:1036FC000822FEF7D5F97B8B013B7B837B8B012B5F
:10370C00EBD83B8803F007033B803B88002B12D09F
:10371C00BB8B5A1CBA831A467B6998183B88DCB25F
:10372C007B685A1C7A601B78B9892246FEF7B8F977
:10373C0001E00123FB77FB7F18462437BD4690BD83
:10374C00200500101C05001080B400AF034B0022B4
:10375C001A7001231846BD4680BC70478D130010AB
:10376C0080B483B000AF0346FB71064B01221A7084
:10377C00054AFB791370012318460C37BD4680BCF3
:10378C00704700BF8D1300108C13001080B485B0EF
:10379C0000AF78600023FB73094B1B78002B08D01B
:1037AC00084B1A787B681A70054B00221A7001239B
:1037BC00FB73FB7B18461437BD4680BC704700BFBB
:1037CC008D1300108C13001080B588B000AFF8601A
:1037DC00B9601346FB8000237B614FF400733B619F
:1037EC00BB68002B05D1554B554A2F21554814F079
:1037FC0013FF0023FB617DE0FB69082B50D801A26D
:10380C0052F823F035380000AD380000493800007C
:10381C00AD3800005D380000AD3800007138000094
:10382C0085380000993800007B69474A1344474AA1
:10383C003969184615F0EEFBB86134E07B69424AF1
:10384C001344434A3969184615F0E4FBB8612AE081
:10385C007B693D4A13443F4A3969184615F0DAFB37
:10386C00B86120E07B69384A13443B4A39691846F1
:10387C0015F0D0FBB86116E07B69334A1344374A24
:10388C003969184615F0C6FBB8610CE07B692E4A05
:10389C001344334A3969184615F0BCFBB86102E091
:1038AC000023BB6100BFBB69B3F1FF3F28D07A692D
:1038BC00BB6913447B61BB693A69D31A3B617B6971
:1038CC00214A9818FB69BA6813441B78254A396950
:1038DC0015F0A0FBB861BB69B3F1FF3F12D07A6958
:1038EC00BB6913447B61BB693A69D31A3B61FB69C1
:1038FC000133FB61FB88FA699A42FFF67DAF02E067
:10390C0000BF00E000BFBB69B3F1FF3F12D07B6981
:10391C000D4A1344144A3969184615F07BFBB861FB
:10392C00BB69B3F1FF3F05D0074B104AF968002083
:10393C0000F01EF800BF2037BD4680BDF0A201008C
:10394C00B8A7010004A301009013001024A30100E8
:10395C0030A301003CA3010048A3010054A30100C3
:10396C0060A301006CA3010074A301007CA30100FF
:10397C000CB480B584B000AF03463960FB71FB79A1
:10398C000A4A52F823303A681946094815F0EAFAFF
:10399C0007F11C03FB60F968B86915F06FFB00BFF9
:1039AC001037BD46BDE8804002B070470C010010D6
:1039BC0080A3010080B586B000AF0346FB800023D6
:1039CC007B75FB88002B03D14FF4FB73FB8201E06A
:1039DC00FB88FB820DF0F8FE38613B69FB60FB68ED
:1039EC00002B02D100237B7528E0FB8A1A4617496D
:1039FC00F8680CF08FFF0346002B05D038690CF0EB
:103A0C00AFFE00237B7519E0FF21F8680DF002F87A
:103A1C00F860FB68002B05D138690CF0A1FE00237F
:103A2C007B750BE00A49F8680DF01BFF094AFB682F
:103A3C001360094A09490020FFF79AFF01237B759F
:103A4C007B7D18461837BD4680BD00BFFCA8010021
:103A5C00393B000090150010ACA30100C4A3010079
:103A6C0080B586B004AF78607B68002B33D0786863
:103A7C000CF076FE0346002B02D078680CF03EFF6B
:103A8C00174B1B687A689A421DD17B6804331B78EC
:103A9C0018467B68043301331B781A467B68043361
:103AAC0002331B7819467B68043303331B7802936B
:103ABC000191009203460B4A0B490020FFF758FF77
:103ACC00074B00221A60094B1B687A689A4202D194
:103ADC00064B00221A6000BF0837BD4680BD00BFF0
:103AEC0094150010D4A30100F8A301009015001048
:103AFC0080B500AF054B1B681846FFF7B1FF044BB0
:103B0C001B681846FFF7ACFF00BF80BD9415001072
:103B1C009015001080B500AF034B1B681846FFF7DB
:103B2C009FFF00BF80BD00BF9415001080B58AB008
:103B3C0004AFF860B9601346FB7197F90730002B9E
:103B4C0002D097F907303AE01F4B1B68002B2FD19E
:103B5C001D4ABB6813601D49B8680DF04AFE1C492C
:103B6C00B8680DF06BFEB968B8680DF035FE194BEE
:103B7C0000221A80BB6804331B781846BB680433D8
:103B8C0001331B781A46BB68043302331B78194681
:103B9C00BB68043303331B780293019100920346F4
:103BAC000D4A0E490020FFF7E3FE0023FB7504E0ED
:103BBC00B868FFF755FF0023FB7597F917301846C7
:103BCC001837BD4680BD00BF94150010253C000081
:103BDC00ED3B0000A016001004A40100C4A30100DA
:103BEC0080B584B000AF78600B46FB707B68FB60DF
:103BFC00FB68002B07D0064A06490020FFF7B8FEE9
:103C0C00F868FFF72DFF00BF1037BD4680BD00BF21
:103C1C0028A4010054A4010080B586B000AFF86060
:103C2C00B9607A60FB7097F90330002B02D097F9DA
:103C3C00033064E07B68002B04D1B868FFF710FFF9
:103C4C0000235CE07B685B891946B8680CF0B4FF14
:103C5C002D4B1B881A467B685B891344B3F5837F15
:103C6C0005DDB868FFF7FCFE0023FB7542E0264B30
:103C7C001B881A46254BD0187B6859687B685B8972
:103C8C001A4614F065FD7B685A891F4B1B88134438
:103C9C009AB21D4B1A801C4B1B88062B2AD91B4B26
:103CAC001B799BB21B02BB82184B5B799AB2BB8A05
:103CBC001343BB82BB8A0533134A1288934219DA29
:103CCC00114B1B881A46BB8A06339A420AD10E4BFB
:103CDC001B881A460D490E48FFF776FD0220FFF7A8
:103CEC003FFD07E00B4A0C490020FFF741FEB86886
:103CFC00FFF7B6FE78680BF05AFE97F917301846A6
:103D0C001837BD4680BD00BFA016001098150010D6
:103D1C0060A401006CA4010054A4010080B483B021
:103D2C0000AF786039607B68074A1A60074B1A88C5
:103D3C003B681A80054B00221A80012318460C3769
:103D4C00BD4680BC704700BF98150010A01600102F
:103D5C0080B584B000AF78600B467B800023FB738A
:103D6C00194B1B68002B2AD0174B1B68B3F8663015
:103D7C007A889A4206D9154B154A4FF49B7115480F
:103D8C0014F04AFC104B18687A880123796810F0FB
:103D9C004CF90346002B0DD17B881A460E490F486F
:103DAC00FFF712FD084B1B68184610F06BFD012342
:103DBC00FB7304E0044B1B681846FFF751FEFB7BBA
:103DCC0018461037BD4680BD9415001098A401000C
:103DDC00CCA70100C4A4010098150010E4A40100B4
:103DEC0080B483B000AF78607B684FF480729A61C6
:103DFC0000BF0C37BD4680BC704780B483B000AFA9
:103E0C0078607B6800229A6100BF0C37BD4680BC8D
:103E1C00704780B500AF02F0C5FF08F007FB00212A
:103E2C00002008F08FFA012009F0D0FA08F035FDD7
:103E3C0000BF80BD80B58AB004AF0023FB74FFF7D0
:103E4C00E8FF0BF0DBF8374B7B600023FB606FF077
:103E5C007F43BB603B1D07F1080207F10C013248A0
:103E6C000290324801900020009031480BF0D8F8B5
:103E7C002F480BF033FA2E480BF03EFA2C4809F081
:103E8C000BFE00234FF4964202210020FEF7D4F8DB
:103E9C00FEF758F90020FDF7F5FE0346002B3BD149
:103EAC00FDF7C6FF0346002B36D1786900F046F8C3
:103EBC007861FDF7FBFF0346BB74FEF795F900F044
:103ECC009DF800F0BFF81B4B1B88B3F57A7F20D10F
:103EDC00184B00221A80642301221421B620FDF70E
:103EEC0045F9642301220021B620FDF796FA124B06
:103EFC00B3F88838002B06D0642301220A21B6209F
:103F0C00FDF734F905E0642300220A21B620FDF701
:103F1C002DF9BB7C002BC8D0FDF7A6FFFDF76CFF7D
:103F2C00B8E700BFC0A80A0125850100ADD200008A
:103F3C00B4180010EE1800104C12001080B582B0AE
:103F4C0000AF78602B4809F018F900BF294809F038
:103F5C00E5F80346002BF9D1264809F040F911F099
:103F6C006FFA00F0E9F978607B6803F00403002B2A
:103F7C003BD07B6803F00803002B23D001210020E9
:103F8C0008F0E0F97B6803F01003002B04D04FF02D
:103F9C00A040FFF725FF03E04FF0A040FFF72DFFF7
:103FAC007B6803F02003002B04D04FF0A04003F0FB
:103FBC00B6FB03E04FF0A04003F0CBFB0D480BF039
:103FCC00E9F906E00021002008F0BCF909480BF0E3
:103FDC0014FA7B6803F00803002B14BF01230023A1
:103FEC00DBB21946044814F0BDFF7B68184608374D
:103FFC00BD4680BDB4180010F0A4010080B500AF20
:10400C000E4B1B88B3F57A7F07D10021012008F0F5
:10401C0099F90B4B01221A800EE0084B1B88B3F563
:10402C00FA6F09D10121012008F08CF9044B002210
:10403C001A80024B00221A8000BF80BDEC180010C1
:10404C00B017001080B500AF154B1B8803F00203AE
:10405C00002B04D00121022008F074F909E0104B68
:10406C001B8803F00203002B03D10021022008F06F
:10407C0069F90B4B1B8803F00403002B04D00121BE
:10408C00032008F05FF909E0054B1B8803F00403DB
:10409C00002B03D10021032008F054F900BF80BD90
:1040AC00B017001080B483B000AF78607B685B6B96
:1040BC0003F00103002B14BF01230023DBB21846CD
:1040CC000C37BD4680BC704780B584B000AF03464A
:1040DC000A46FB711346BB800023FB73FA23BB60BB
:1040EC00BA88FB7919464FF0A04003F0D3FA12E0DE
:1040FC004FF0A040FFF7D6FF0346002B07D0BB685C
:10410C00013BBB60084B1B680120984703E0002370
:10411C00BB600123FB73BB68002BE9DCFB7B1846FF
:10412C001037BD4680BD00BF0019001080B584B0AB
:10413C0000AF03463960FB710023FB73FA23BB60AD
:10414C00FB7919464FF0A04003F0C2FA1DE04FF086
:10415C00A040FFF7A7FF034683F00103DBB2002B5F
:10416C000CD00023BB604FF0A04003F0C9FA03460B
:10417C001A463B681A800123FB7306E0BB68013BBF
:10418C00BB60064B1B6801209847BB68002BDEDC2C
:10419C00FB7B18461037BD4680BD00BF00190010D0
:1041AC0080B483B000AF03460A46FB801346BB8045
:1041BC00FB8803F00403002B06D0324B1B6843F042
:1041CC000803304A136005E02E4B1B6823F00803EC
:1041DC002C4A1360BB8803F01C03142B12D0142B35
:1041EC0003DC042B28D0082B19D0264B1B6843F07A
:1041FC001003244A1360234B1B6843F02003214A0D
:10420C00136026E01F4B1B6823F010031D4A13603C
:10421C001C4B1B6843F020031A4A136019E0194B1E
:10422C001B6843F01003174A1360164B1B6823F0EE
:10423C002003144A13600CE0124B1B6823F010038C
:10424C00104A13600F4B1B6823F020030D4A1360B8
:10425C0000BF0C4B1A680C4B1B68534003F038031F
:10426C00002B09D0074B1B68074A1360054B1B68D2
:10427C0043F00403034A136000BF0C37BD4680BCF7
:10428C00704700BFF4180010F818001080B584B007
:10429C0000AF03463960FB71234A3B681360234B24
:1042AC0000221A60224B00221A60214B1B68214A03
:1042BC0013604FF400410020FFF706FF0346012B6B
:1042CC0001D000232CE04FF4C873FB601AE0164BAE
:1042DC001B680120984707F10A0319460020FFF7D5
:1042EC0025FF0346012B01D0002319E07B8903F441
:1042FC000843002B03D14FF0FF33FB6002E0FB6857
:10430C00013BFB60FB68002BE1DCFB68002B01D15F
:10431C00002305E04FF480510020FFF7D5FE012368
:10432C0018461037BD4680BD00190010FC1800104F
:10433C00F4180010F818001098B500AF2D4B1B683E
:10434C00012B16D0022B2FD001214FF0A04003F0EF
:10435C00BFF9294B1B6823F00403274A1360264B33
:10436C001B6843F00203244A1360224B01221A609B
:10437C003CE04FF0A040FFF795FE034683F00103AD
:10438C00DBB2002B2FD04FF0A04003F0B9F903465D
:10439C001A461A4B1A801F214FF0A04003F098F9CF
:1043AC00144B02221A601EE04FF0A040FFF77AFE79
:1043BC00034683F00103DBB2002B16D00E4B1B68B7
:1043CC0023F002030C4A13600C4B1C884FF0A040E6
:1043DC0003F096F9034619462046FFF7E1FE054B1C
:1043EC0000221A6001E000BF00E000BF024B1B6816
:1043FC00184698BDFC180010F41800100419001091
:10440C0080B487B000AF78600B467B8013463B804E
:10441C000023FB75224B3B610023FB816423BB8192
:10442C00204B1B887B817B88013B7B807A88FB89B6
:10443C009A422CD37A883B881A44F989BB890B445D
:10444C009A4224DC7A887B89D31ABB821BE0BB8A14
:10445C005B003A6913441B881B0A99B27B685A1C8F
:10446C007A60CAB21A70BB8A5B003A691344198825
:10447C007B685A1C7A60CAB21A70BB8A0133BB8241
:10448C003B88013B3B803B88002BE0D101E00123C2
:10449C00FB75FB7D18461C37BD4680BC704700BFC2
:1044AC00181900101419001080B489B000AFF8600E
:1044BC00084611461A4603467B810B463B81134640
:1044CC00FB710023FB77394BBB610023FB82642318
:1044DC00BB82374B1B887B827B89013B7B817A8932
:1044EC00FB8A9A4259D37A893B891A44F98ABB8A46
:1044FC000B449A4251DC7A897B8AD31ABB83FB79B1
:10450C00002B1ED0012B43D049E0BB8B5B00BA695A
:10451C0013441B881B0A99B2FB685A1CFA60CAB276
:10452C001A70BB8B5B00BA6913441988FB685A1C60
:10453C00FA60CAB21A70BB8B0133BB833B89013B57
:10454C003B813B89002BE0D126E0FB685A1CFA60CA
:10455C001B789AB2BB8B5B00B9690B44120292B206
:10456C001A80FB685A1CFA601878BB8B5B00BA691E
:10457C001344198882B2BB8B5B00B86903440A43AD
:10458C0092B21A80BB8B0133BB833B89013B3B81CD
:10459C003B89002BD9D100BF01E00123FB77FB7FC6
:1045AC0018462437BD4680BC704700BFE419001084
:1045BC00E019001090B58BB000AFF86008461146BA
:1045CC001A4603467B810B463B811346FB71002345
:1045DC0087F827303B89DB089BB201337B844A4B3D
:1045EC00FB6100237B8340233B83484B1B88FB826E
:1045FC007B89013B7B817A897B8B9A427BD37A893D
:10460C003B891A44798B3B8B0B449A4273DC7A8935
:10461C00FB8AD31A9BB2DB08BB847A89FB8AD31A38
:10462C009BB203F00703BB82FB79002B15D0012B47
:10463C0045D063E0BB8C5A1CBA841A46FB699818A7
:10464C00FC68631CFB60BB8A08221946FDF786FADE
:10465C00034623707B8C013B7B847B8C002BE9D144
:10466C00FB68013BFB603B8903F007033B81FB6864
:10467C001B781A463B89C3F1080302FA03F3DAB23A
:10468C00FB681A70FB681B781A463B89C3F1080358
:10469C0042FA03F3DAB2FB681A702BE0BB8C5A1C9B
:1046AC00BA841A46FB699818FB685A1CFA601B7886
:1046BC00B98A0822FDF7F4F97B8C013B7B847B8C57
:1046CC00012BEBD83B8903F007033B813B89002B83
:1046DC000FD0BB8C5A1CBA841A46FB6998183B89BC
:1046EC00DCB2FB685A1CFA601B78B98A2246FDF7CB
:1046FC00D7F900BF02E0012387F8273097F827305D
:10470C0018462C37BD4690BD0C1900100A19001024
:10471C0090B589B000AF78600B467B8013463B8028
:10472C000023FB773B88DB089BB201337B83304B48
:10473C007B6100237B8210233B822E4B1B88FB81E9
:10474C007B88013B7B807A887B8A9A4249D37A8822
:10475C003B881A44798A3B8A0B449A4241DC7A881A
:10476C00FB89D31A9BB2DB08BB837A88FB89D31AEB
:10477C009BB203F00703BB8112E0BB8B5A1CBA83BC
:10478C001A467B6998187C68631C7B60BB8908227D
:10479C001946FDF7E3F9034623707B8B013B7B83C2
:1047AC007B8B002BE9D17B68013B7B603B8803F062
:1047BC0007033B807B681B781A463B88C3F10803D0
:1047CC0002FA03F3DAB27B681A707B681B781A461C
:1047DC003B88C3F1080342FA03F3DAB27B681A7020
:1047EC0001E00123FB77FB7F18462437BD4690BDC3
:1047FC00081900100619001080B400AF41231846A8
:10480C00BD4680BC704780B588B000AFF8607A6058
:10481C001A460B46FB721346BB720C2002F004FEC8
:10482C00F861FFF7E9FF03461A467B6802FB03F3C6
:10483C00BB61FB695A00BB691A44BB695B00B2FBE4
:10484C00F3F3DBB2013BFB75FB7D18462037BD460D
:10485C0080BD80B485B000AF78600B46FB707B6880
:10486C001B6823F0E063FB60FB781A06FB681A43B5
:10487C007B681A6000BF1437BD4680BC704780B49B
:10488C0087B000AFF8600B467A60FB72FA7AFB686F
:10489C00043253F822307B617B69002B01DB00234F
:1048AC0008E07B691B099BB2C3F30B039AB27B68CC
:1048BC001A80012318461C37BD4680BC7047000087
:1048CC0080B586B000AF7860396000237B610C2026
:1048DC0002F0ACFB7B684FF470625A637B68002279
:1048EC00DA607B6943F400137B613B68104A1A6001
:1048FC003B6800221A7100233B613B6800225A710D
:10490C003B681A683B69DBB200217868FFF77BFFD4
:10491C000346FB73FB7B1B021A467B6913437B61CB
:10492C007B687A691A6000BF1837BD4680BD00BF2E
:10493C00400D030080B582B000AF78607B684FF407
:10494C008072DA607B6800221A600C2002F088FB0F
:10495C0000BF0837BD4680BD80B584B000AFF8609D
:10496C000B467A60FB72FB7A7A681946F868FFF797
:10497C0086FF034618461037BD4680BD80B485B00F
:10498C0000AFF8600B467A60FB727B68022B26D076
:10499C007B68022B2CD87B68002B03D07B68012B07
:1049AC000DD025E0FB681A6BFB7A22FA03F303F0B7
:1049BC000103002B14BF01230023DBB21AE0FB7AA6
:1049CC000833FB72FB681A6BFB7A22FA03F303F0D1
:1049DC000103002B14BF01230023DBB20AE0FB68A8
:1049EC001B6B1B0C002B14BF01230023DBB201E05B
:1049FC0000BF002318461437BD4680BC704780B4F6
:104A0C0083B000AF78600B46FB701346BB70BB786D
:104A1C00012B09D17B68DA68FB78012101FA03F3D9
:104A2C001A437B68DA6009E07B68DA68FB7801215D
:104A3C0001FA03F3DB431A407B68DA6000BF0C37E2
:104A4C00BD4680BC704780B582B000AF78600B4625
:104A5C00FB701346BB70FB78012B12D0FB78002B3C
:104A6C000FD0BB78002B06D07B681B6843F000622C
:104A7C007B681A6005E07B681B6823F000627B682A
:104A8C001A60FB7819467868FFF7E3FE00BF083719
:104A9C00BD4680BD80B586B000AFF860B9607A6065
:104AAC00FB681B6823F47F437B61BB687A681A60E0
:104ABC00BB685979BB681B79C3F10B03DBB27A680D
:104ACC00F868FFF7A0FE0346FB74FB7C1B021A463A
:104ADC007B6913437B61FB687A691A6000BF1837E6
:104AEC00BD4680BD80B483B000AF78600B46FB70D0
:104AFC001346BB70BB78012B09D17B681A68FB7815
:104B0C00012101FA03F31A437B681A600FE07B68FA
:104B1C001B6823F0E0627B681A607B681A68FB787C
:104B2C00012101FA03F3DB431A407B681A6000BFD2
:104B3C000C37BD4680BC704780B582B000AF786042
:104B4C000B46FB7000217868FFF783FEFB78002B87
:104B5C0006D17B681B6823F480327B681A6005E001
:104B6C007B681B6843F480327B681A6000BF08378F
:104B7C00BD4680BD80B586B000AFF8600B467A604C
:104B8C00FB7207F11402FB7A1946F868FFF777FEFF
:104B9C000346FB75BB8ADAB27B681A70FB7D18463C
:104BAC001837BD4680BD80B483B000AF78603960E3
:104BBC007B683A685A6000BF0C37BD4680BC7047B2
:104BCC0080B483B000AF78607B68DB6918460C3723
:104BDC00BD4680BC704780B483B000AF78607B6802
:104BEC001B68DBB223F04003DBB218460C37BD4622
:104BFC0080BC704780B483B000AF78600B46FB700C
:104C0C00FA787B681A6000BF0C37BD4680BC7047D1
:104C1C0080B483B000AF78607B681B68DBB2184649
:104C2C000C37BD4680BC704780B582B000AF786051
:104C3C00396001220121786801F00CF93B681B886E
:104C4C00C3F309023B689B789B039BB21A433B68F6
:104C5C00DB781B0403F470231A433B681B791B0598
:104C6C0003F470031A437B685A613B685B79002B31
:104C7C0005D07B685B6943F400027B685A610022B3
:104C8C000121786801F0E6F800BF0837BD4680BD09
:104C9C0080B485B000AFF8607A603B600B46FB7265
:104CAC00FB7A002B03D17B6800221A800CE0FB7A84
:104CBC00013BFA689B0013445B689B089BB2C3F3EF
:104CCC0009039AB27B681A80FB7AFA689B0013443A
:104CDC005B689B089BB2C3F309039AB23B681A80CA
:104CEC003B681B88002B06D03B681B88013B9AB2A3
:104CFC003B681A8003E07B681A883B681A8000BF07
:104D0C001437BD4680BC704780B483B000AF786068
:104D1C007B685B699B089BB2C3F309039BB2184683
:104D2C000C37BD4680BC704780B483B000AF786050
:104D3C000B46FB7013463B803B889B001946FB7867
:104D4C0040F6FC720A4079689B000B445A6000BF25
:104D5C000C37BD4680BC704790B482B000AF786011
:104D6C0039603A687B68144620330FCB84E80F0017
:104D7C007B68DB6903F00103002B14BF01230023C4
:104D8C00DBB218460837BD4690BC704790B484B06F
:104D9C0000AFF8600B467A60FB72FB7AFA6803335B
:104DAC001B011A447B6814460FCB84E80F0000BF2C
:104DBC001037BD4690BC704780B485B000AF7860AA
:104DCC000B46FB700023FB817B681B785B03FB812C
:104DDC007B685B781B031BB203F480531AB2B7F9E0
:104DEC000E3013431BB2FB817B685B881BB2C3F391
:104DFC000A031AB2B7F90E3013431BB2FB81FB78CE
:104E0C00002B03D0FB8943F40063FB81FB8918461C
:104E1C001437BD4680BC704780B483B000AF0346E6
:104E2C00FB71FB795B031BB243F480531BB29BB247
:104E3C0018460C37BD4680BC704780B483B000AFB9
:104E4C0003463960FB80FB885B0B9BB2DBB203F043
:104E5C000703DAB23B681A70FB881B0B9BB2DBB200
:104E6C0003F00103DAB23B685A70FB88C3F30A0300
:104E7C009AB23B685A8000BF0C37BD4680BC704765
:104E8C0080B586B000AFF860B96011461A460B4683
:104E9C00FB8013467B710023BB8200237B820023A3
:104EAC00FB826BE0FB8A9B00BA6813445B88BA8A6E
:104EBC009A4201D9002366E0FB8A9B00BA6813442E
:104ECC005B88BB82FB8A9B00BA6813447A791146D3
:104EDC001846FFF771FF03463B823B8A19047B8A15
:104EEC009B00FA6813440A461A60FB8A5A1CFB881A
:104EFC009A422ADAFB8A01339B00BA6813445B8816
:104F0C00BA8A9A4201D900233DE0FB8A01339B0007
:104F1C00BA6813445B88BB82FB8A01339B00BA6876
:104F2C0013447A7911461846FFF746FF03463B8235
:104F3C007B8A9B00FA68134419683A8A7B8A9B0027
:104F4C00F86803440A431A6012E0BB681B781846E1
:104F5C00FFF762FF034619467B8A9B00FA681344ED
:104F6C001A6808467B8A9B00F9680B4402431A6056
:104F7C007B8A01337B82FB8A0233FB82FA8AFB88B1
:104F8C009A428FD3012318461837BD4680BD80B591
:104F9C0084B000AFF860B9601346FB80FB885B00FF
:104FAC009AB20023B968F868FFF76AFF03461846FF
:104FBC001037BD4680BD90B587B000AF78603960C2
:104FCC0000237B613B68002B46DD7B681B683B61E3
:104FDC003B691A0C7B681A6000237B6116E07B69C5
:104FEC0001339B007A6813441B68BB603B6919044E
:104FFC00BB681A0C7B6901339B00786803440A4335
:10500C001A60BB683B617B6901337B613B68DA0FDB
:10501C0013445B101A467B699342E0D33B6803F060
:10502C000103002B19D13B695B0BDBB203F00703C7
:10503C00FB733B691C04FB7B1846FFF7EDFE034634
:10504C0019463B68DA0F13445B109B007A681344D3
:10505C0044EA01021A6000E000BF1C37BD4690BD57
:10506C0090B587B000AF7860396000237B61002376
:10507C00FB6000233B610023FB723B68002B54DD7B
:10508C003B680133DA0F13445B1003F18043013B9F
:10509C009B007A6813441B683B613B695B0BDBB27A
:1050AC0003F00703FB723B6803F00103002B15D1DF
:1050BC003B691C04FB7A1846FFF7AEFE0346194603
:1050CC003B680133DA0F13445B1003F18043013B5F
:1050DC009B007A68134444EA01021A603B6801336E
:1050EC00DA0F13445B10013B7B611AE07B6903F11F
:1050FC008043013B9B007A6813441B68FB603B694F
:10510C00190CFB681A047B6903F18043013B9B007B
:10511C00786803440A431A60FB683B617B69013B76
:10512C007B617B69002BE1DC00E000BF1C37BD46D6
:10513C0090BD80B485B000AF78600023FB607B68C5
:10514C001B785B07FB607B685B6823F06043FA6845
:10515C001343FB60FB6818461437BD4680BC704790
:10516C0080B483B000AF786039607B685B0FDAB2D3
:10517C003B681A707B6823F060423B685A6000BF42
:10518C000C37BD4680BC704780B588B000AFF86066
:10519C00B9601346FB800023BB610023FB82002314
:1051AC00FB8323E0FB8BDB00BA6813445B68BA69B2
:1051BC009A4201D900231EE0FB8BDB00BA68134432
:1051CC005B68BB61FB8BDB00BA6813441846FFF7C6
:1051DC00B0FF3861FB8A9B00FA6813443A691A6085
:1051EC00FB8A0133FB82FB8B0133FB83FA8BFB883D
:1051FC009A42D7D3012318462037BD4680BD80B5CF
:10520C0084B000AFF860B9601346FB80FB885B008C
:10521C009BB21A46B968F868FFF7B6FF0346184602
:10522C001037BD4680BD80B489B000AFF860B9605E
:10523C001346FB710023FB770023BB61FA79BB6833
:10524C0002FB03F37B61FB79022B0BD1BB6803F0F0
:10525C000103002B03D07B69023B7B6102E07B697D
:10526C0002337B610023FB7711E0FA7F7B691344E7
:10527C00FA6813441B781A46FB7FDB0002FA03F32F
:10528C001A46BB691343BB61FB7F0133FB77FA7F83
:10529C00FB799A42E9D3BB6918462437BD4680BCDA
:1052AC00704780B58AB000AFF860B9607A603B6037
:1052BC00FB68FB61BB68002B01D1002369E0002374
:1052CC007B62BB68013B3B6221E07A6A3B6A134418
:1052DC005B08BB6197F830301A46B969F869FFF77B
:1052EC00A2FF02463B6813407B617A697B689A4255
:1052FC0002D14FF0FF334CE07A697B689A4203D2BB
:10530C00BB6901337B6202E0BB69013B3B627B6A98
:10531C0001333A6A9A42D8D897F830301A46796AEB
:10532C00F869FFF780FF02463B6813407A689A429F
:10533C000CD097F830301A46396AF869FFF773FFCA
:10534C0002463B6813407A689A4202D14FF0FF3311
:10535C001FE097F830301A46796AF869FFF763FF57
:10536C0002463B6813407A689A4201D27B6A10E08D
:10537C0097F830301A46396AF869FFF754FF02463D
:10538C003B6813407A689A4202D93B6A013300E0C9
:10539C003B6A18462837BD4680BD90B591B002AF28
:1053AC00F860B9607A60FB7000233B630023FB86D6
:1053BC000023BB860023FB62F868FFF729FC034639
:1053CC0087F82B30F868FFF79FFC0346B3F5007F96
:1053DC0001D300236BE1FB78002B08D007F11803F5
:1053EC0007F11A020021F868FFF752FC07E007F1F9
:1053FC00180307F11A020121F868FFF749FC3A8BF0
:10540C007B8B9A421DD93B8B1A467B8BD31A01336B
:10541C009BB25B00FB863B8B1A46BB6853F8223071
:10542C00C3F30A03002B0CD13B8B1A46BB6853F811
:10543C0022301B0B03F00103012B02D1FB8E013B2D
:10544C00FB867B8B9B00BA68D018F98E7B685B88D7
:10545C00C3F30A020223009340F2FF73FFF721FF0C
:10546C0038633B6BB3F1FF3F03D0FB8E3A6B9A4230
:10547C0001DD00231BE10121F868FFF7BBFBFB8E6C
:10548C0003F001039BB2002B68D1F868FFF73CFCDA
:10549C000346BB860BE0BB8E591EBA8EBB6853F815
:1054AC002110BB6843F82210BB8E013BBB863B8BA3
:1054BC00BA8E9A42EFD8FB78002B0FD007F1140369
:1054CC0007F116020021F868FFF7E2FBBB8A0233F2
:1054DC009BB21A460021F868FFF726FC07F114036B
:1054EC0007F116020121F868FFF7D2FBBB8A0233E1
:1054FC009BB21A460121F868FFF716FC07F114035A
:10550C0007F116020221F868FFF7C2FBBB8A0233CF
:10551C009BB21A460221F868FFF706FC07F1140348
:10552C0007F116020321F868FFF7B2FBBB8A0233BE
:10553C009BB21A460321F868FFF7F6FB07F1140338
:10554C0007F116020421F868FFF7A2FBBB8A0233AD
:10555C009BB21A460421F868FFF7E6FB3B6B03F09D
:10556C000103002B10D17B8B19463B6BDA0F1344D4
:10557C005B100B449B00BA68D018FA8E3B6BD31AA5
:10558C001946FFF718FD11E07B8B19463B6BDA0FC0
:10559C0013445B100B4401339B00BA68D018FA8E8D
:1055AC003B6BD31A013B1946FFF705FDFB781946F7
:1055BC007868FFF701FC0346FB623B6B03F00103C9
:1055CC00002B33D1FB8E3A6B9A4214D1FB6A1C042C
:1055DC007B681B781846FFF71FFC034619467B8B2C
:1055EC0018463B6BDA0F13445B10C2182143BB689F
:1055FC0043F8221054E07B8B19463B6BDA0F1344B3
:10560C005B10CA18BB6853F822309BB2FB61FB6A73
:10561C0019047B8B18463B6BDA0F13445B10C218D2
:10562C00FB691943BB6843F8221039E07B8B1946A0
:10563C003B6BDA0F13445B10CA18BB6853F822306B
:10564C007B627B8B19463B6BDA0F13445B100B446C
:10565C005A1CBB6853F822303B62FB8E3A6B9A4261
:10566C000FDA3B6A98B27B6A19047B8B1C463B6B46
:10567C00DA0F13445B1023445A1C0143BB6843F8F4
:10568C0022107B6A1B0C1B047A8B10463A6BD10FD1
:10569C000A4452100244F96A1943BB6843F82210B9
:1056AC0097F82B301946F868FFF7A4FA012318462F
:1056BC003C37BD4690BD80B586B000AFF860B96090
:1056CC0011461A460B46FB8013467B710023FB8266
:1056DC007B79002B08D007F1120307F1140200218B
:1056EC00F868FFF7D5FA07E007F1120307F1140287
:1056FC000121F868FFF7CCFA7A8ABB8A9A421DD945
:10570C007B8A1A46BB8AD31A01339BB25B00FB829D
:10571C007B8A1A46BB6853F82230C3F30A03002B6A
:10572C000CD17B8A1A46BB6853F822301B0B03F052
:10573C000103012B02D1FB8A013BFB82FA88FB8A15
:10574C009A4201D3002324E0FB8803F001039BB2AF
:10575C00002B0FD1BB8A1A46FB885B089BB21A44FC
:10576C00BB6853F822301B0C9BB2396A1846FFF702
:10577C0064FB0DE0BB8A1A46FB885B089BB21A449B
:10578C00BB6853F822309BB2396A1846FFF755FBB9
:10579C00012318461837BD4680BD90B58BB000AFBD
:1057AC00F860B96011461A460B46FB8013467B71B4
:1057BC000023FB8400233B62F868FFF729FA0346B9
:1057CC00FB77B7F90630002B01DA002357E1F868B4
:1057DC00FFF79AFA0346B3F5007F01D300234EE19D
:1057EC007B79002B08D007F11A0307F11C0200216A
:1057FC00F868FFF74DFA07E007F11A0307F11C02EE
:10580C000121F868FFF744FA7A8BBB8B9A421DD9B9
:10581C007B8B1A46BB8BD31A01339BB25B00FB8488
:10582C007B8B1A46BB6853F82230C3F30A03002B58
:10583C000CD17B8B1A46BB6853F822301B0B03F040
:10584C000103012B02D1FB8C013BFB84B7F9062031
:10585C00FB8C9A4201DB002311E10121F868FFF770
:10586C00C9F9BB8B1946B7F90630DA0F13445B1034
:10587C001BB20B445A1CBB6853F822303B62FB88AA
:10588C0003F001039BB2002B13D1BB8B1946B7F964
:10589C000630DA0F13445B101BB20B449B00BA6842
:1058AC00D018FA8CB7F90630D31A1946FFF7D8FB83
:1058BC0079E0BB8B1946B7F90630DA0F13445B104D
:1058CC001BB20B4401339B00BA68D018FA8CB7F9A1
:1058DC000630D31A013B1946FFF7C2FBBB8B1846A7
:1058EC00B7F90630DA0F13445B1019B20B46C21825
:1058FC00BB6853F82230BA8B10460A4681181B0C31
:10590C001B04BA6842F82130B7F90620FB8C013B26
:10591C009A4231D1BB8B1946B7F90630DA0F1344D2
:10592C005B101BB2CA18BB6853F822301B0C3B62CD
:10593C003B6A5B0BDBB203F00703BB77BB7F1846FC
:10594C00FFF76AFA03461C46BB8B1846B7F90630BC
:10595C00DA0F13445B1019B20B46C218BB6853F82C
:10596C0022302046BA8B14460A46224443EA0001F0
:10597C00BB6843F8221016E0BB8B1946B7F906300A
:10598C00DA0F13445B1018B20346CA18BB6853F8FD
:10599C0022103B6A1B0CBA8B144602462244194354
:1059AC00BB6843F82210FB8C03F001039BB2002B65
:1059BC005FD07B8BBB840BE0BB8C591CBA8CBB6857
:1059CC0053F82110BB6843F82210BB8C0133BB8405
:1059DC00F868FFF799F903461A46BB8C9342EBD350
:1059EC007B79002B0DD007F1160307F1180200216B
:1059FC00F868FFF74DF9FB8A1A460021F868FFF7A3
:105A0C0093F907F1160307F118020121F868FFF763
:105A1C003FF9FB8A1A460121F868FFF785F907F16F
:105A2C00160307F118020221F868FFF731F9FB8A17
:105A3C001A460221F868FFF777F907F1160307F108
:105A4C0018020321F868FFF723F9FB8A1A46032191
:105A5C00F868FFF769F907F1160307F1180204213A
:105A6C00F868FFF715F9FB8A1A460421F868FFF766
:105A7C005BF9FB7F1946F868FFF7BCF80123184661
:105A8C002C37BD4690BD80B588B000AFF860B960CA
:105A9C0011461A460B46FB711346BB800023FB8351
:105AAC0001237B7700237B83F868FFF7B1F803466B
:105ABC007B76B7F90430002B01DA0023B3E0F868E9
:105ACC00FFF722F90346B3F5007F01D30023AAE0C8
