:1000000000800010D18000001981000019810000DB
:100010001981000019810000198100000000000012
:100020000000000000000000000000001981000036
:10003000198100000000000019810000B195000046
:100040001981000019810000198100001981000048
:100050001981000019810000198100001981000038
:100060001981000019810000198100001981000028
:100070001981000019810000198100001981000018
:100080001981000019810000198100001981000008
:1000900019810000198100001981000019810000F8
:1000A00019810000198100001981000019810000E8
:1000B00019810000198100001981000019810000D8
:0C00C00019810000198100001981000066
:1000CC0010B5054C237833B9044B13B10448AFF386
:1000DC0000800123237010BD2801001000000000D7
:1000EC00C042010008B5034B1BB103490348AFF3F1
:1000FC00008008BD000000002C010010C04201006F
:10010C00A3F5803A704700BF174B002B08BF134B69
:10011C009D46FFF7F5FF00218B460F461348144A06
:10012C00121A12F0CBFC0E4B002B00D098470D4B43
:10013C00002B00D098470020002104000D000D4832
:10014C00002802D00C48AFF3008012F065FC2000B0
:10015C00290000F0C9F912F04BFC00BF00000800A8
:10016C00000000000000000000000000280100104A
:10017C006C040010000000000000000053B94AB9E4
:10018C00002908BF00281CBF4FF0FF314FF0FF3093
:10019C0000F076B9ADF1080C6DE904CE00F006F86C
:1001AC00DDF804E0DDE9022304B070472DE9F047E7
:1001BC00089E0D4604468846002B4DD18A42944633
:1001CC0068D9B2FA82F252B101FA02F3C2F12001FB
:1001DC0020FA01F10CFA02FC41EA030894404FEAC0
:1001EC001C41B8FBF1F71FFA8CFE01FB178807FBCB
:1001FC000EF0230C43EA084398420AD91CEB030384
:10020C0007F1FF3580F01E81984240F21B81023FBE
:10021C0063441B1AB3FBF1F001FB103300FB0EFE21
:10022C00A4B244EA0344A6450AD91CEB040400F129
:10023C00FF3380F00981A64540F206816444023800
:10024C000021A4EB0E0440EA07401EB10023D44069
:10025C00C6E90043BDE8F0878B4208D9002E00F0B8
:10026C00EE800021C6E900050846BDE8F087B3FA28
:10027C0083F100294AD1AB4202D3824200F2FC80C6
:10028C00841A65EB030301209846002EE2D0C6E9E0
:10029C000048DFE702B9FFDEB2FA82F2002A40F032
:1002AC009180A1EB0C0001214FEA1C471FFA8CFE38
:1002BC00B0FBF7F307FB1300250C45EA00450EFBDA
:1002CC0003F0A84208D91CEB050503F1FF3802D254
:1002DC00A84200F2CE8043462D1AB5FBF7F007FB7F
:1002EC0010550EFB00FEA4B244EA0544A64508D9FD
:1002FC001CEB040400F1FF3502D2A64500F2B680D7
:10030C002846A4EB0E0440EA03409EE7C1F1200707
:10031C008B4022FA07FC4CEA030C25FA07FA4FEA49
:10032C001C49BAFBF9F820FA07F309FB18AA8D400F
:10033C001FFA8CFE1D4300FA01F308FB0EF02C0C87
:10034C0044EA0A44A04202FA01F20BD91CEB040461
:10035C0008F1FF3A80F08880A04240F28580A8F135
:10036C0002086444241AB4FBF9F009FB104400FBA6
:10037C000EFEADB245EA0444A64508D91CEB0404B4
:10038C0000F1FF356CD2A6456AD90238644440EAC4
:10039C000840A0FB0295A4EB0E04AC42C846AE4646
:1003AC0056D353D0002E69D0B3EB080264EB0E0485
:1003BC0022FA01F304FA07F71F43CC40C6E9007494
:1003CC00002147E70CFA02FCC2F1200125FA01F3E7
:1003DC004FEA1C4720FA01F195400D43B3FBF7F1AE
:1003EC0007FB11331FFA8CFE280C40EA034001FB7B
:1003FC000EF3834204FA02F408D91CEB000001F15D
:10040C00FF382FD283422DD902396044C01AB0FB79
:10041C00F7F307FB1300ADB245EA004503FB0EF002
:10042C00A84208D91CEB050503F1FF3816D2A842E7
:10043C0014D9023B6544281A43EA014138E7314696
:10044C00304607E72F46E4E61846F9E64B45A9D2B5
:10045C00B9EB020865EB0C0E0138A3E74346EAE75B
:10046C00284694E74146D1E7D0467BE764440238FE
:10047C0047E7023B65442FE7084606E73146E9E6C5
:10048C00704700BF034613F8012B002AFBD1181A42
:10049C000138704780B483B000AF78607B684FF44C
:1004AC0080729A6100BF0C37BD4680BC704780B427
:1004BC0083B000AF78607B6800229A6100BF0C3774
:1004CC00BD4680BC704780B500AF02F069FD08F0F6
:1004DC006FF80021002008F00FF8012009F036F821
:1004EC0008F09BFA00BF80BD80B58AB004AF002332
:1004FC00FB75FFF7E8FF09F0D9F8584B7B60584BB8
:10050C00FB606FF07F43BB603B1D07F1080207F1F6
:10051C000C0154480290544801900020009053481C
:10052C0009F0D4F8514809F02BFA504809F036FA82
:10053C0012F072F84D4808F0E0FE4C4808F00FFF3E
:10054C000FF096FA00F0F2F938613B6903F00403FE
:10055C00002B3ED03B6903F00803002B26D0012171
:10056C00002007F0C9FF424B00221A603B6903F0E0
:10057C001003002B04D04FF0A040FFF78BFF03E0DB
:10058C004FF0A040FFF793FF3B6903F02003002BD3
:10059C0004D04FF0A04003F0C0F903E04FF0A040AE
:1005AC0003F0D5F9314809F047FA06E000210020A4
:1005BC0007F0A2FF2D4809F06BFA3B6903F0080322
:1005CC00002B14BF01230023DBB21946294812F07B
:1005DC006DFB274B1B68002B24D1244B5B68002B35
:1005EC0020D010222449254810F0FEF90346194664
:1005FC00234812F05BFB10221F49224810F0F4F93B
:10060C0003461946204812F051FB10221A491F4884
:10061C0010F0EAF9034619461D4812F047FB144B3B
:10062C0001221A6008F0D0FF02461A4BA3FB0213FA
:10063C009B094FF47A7101FB03F3D31A002B7FF45F
:10064C0079AFFB7D1946012007F056FFFB7DDB439C
:10065C00002B14BF01230023FB756BE7C0A80A0114
:10066C00C0A80A32892201002D9400004401001018
:10067C0078010010F83F01007C01001048010010C7
:10068C00144001004C0100102840010050010010E2
:10069C003C400100D34D621080B483B000AF786051
:1006AC007B685B6B03F00103002B14BF0123002359
:1006BC00DBB218460C37BD4680BC704780B584B0A1
:1006CC0000AF03460A46FB711346BB800023FB7345
:1006DC00FA23BB60BA88FB7919464FF0A04003F0AF
:1006EC00D7F812E04FF0A040FFF7D6FF0346002BDF
:1006FC0007D0BB68013BBB60084B1B6801209847C7
:10070C0003E00023BB600123FB73BB68002BE9DC17
:10071C00FB7B18461037BD4680BD00BF980100100A
:10072C0080B584B000AF03463960FB710023FB73C6
:10073C00FA23BB60FB7919464FF0A04003F0C6F8D2
:10074C001DE04FF0A040FFF7A7FF034683F0010325
:10075C00DBB2002B0CD00023BB604FF0A04003F0A9
:10076C00CDF803461A463B681A800123FB7306E05A
:10077C00BB68013BBB60064B1B6801209847BB68FC
:10078C00002BDEDCFB7B18461037BD4680BD00BF5E
:10079C009801001080B483B000AF03460A46FB807A
:1007AC001346BB80FB8803F00403002B06D0324BAE
:1007BC001B6843F00803304A136005E02E4B1B689E
:1007CC0023F008032C4A1360BB8803F01C03142B82
:1007DC0012D0142B03DC042B28D0082B19D0264B59
:1007EC001B6843F01003244A1360234B1B6843F02F
:1007FC002003214A136026E01F4B1B6823F01003D3
:10080C001D4A13601C4B1B6843F020031A4A1360EB
:10081C0019E0194B1B6843F01003174A1360164B71
:10082C001B6823F02003144A13600CE0124B1B6866
:10083C0023F01003104A13600F4B1B6823F02003A6
:10084C000D4A136000BF0C4B1A680C4B1B685340CD
:10085C0003F03803002B09D0074B1B68074A1360C1
:10086C00054B1B6843F00403034A136000BF0C37AD
:10087C00BD4680BC704700BF8C0100109001001079
:10088C0080B584B000AF03463960FB71234A3B68E6
:10089C001360234B00221A60224B00221A60214B5A
:1008AC001B68214A13604FF400410020FFF706FF3C
:1008BC000346012B01D000232CE04FF4C873FB60DE
:1008CC001AE0164B1B680120984707F10A031946DA
:1008DC000020FFF725FF0346012B01D0002319E070
:1008EC007B8903F40843002B03D14FF0FF33FB60EB
:1008FC0002E0FB68013BFB60FB68002BE1DCFB6862
:10090C00002B01D1002305E04FF480510020FFF7AC
:10091C00D5FE012318461037BD4680BD9801001046
:10092C00940100108C0100109001001098B500AFDC
:10093C002D4B1B68012B16D0022B2FD001214FF011
:10094C00A04002F0C3FF294B1B6823F00403274A85
:10095C001360264B1B6843F00203244A1360224B9E
:10096C0001221A603CE04FF0A040FFF795FE0346D1
:10097C0083F00103DBB2002B2FD04FF0A04002F02C
:10098C00BDFF03461A461A4B1A801F214FF0A04098
:10099C0002F09CFF144B02221A601EE04FF0A040A4
:1009AC00FFF77AFE034683F00103DBB2002B16D06F
:1009BC000E4B1B6823F002030C4A13600C4B1C8873
:1009CC004FF0A04002F09AFF034619462046FFF76D
:1009DC00E1FE054B00221A6001E000BF00E000BF01
:1009EC00024B1B68184698BD940100108C01001036
:1009FC009C01001080B400AF41231846BD4680BC5A
:100A0C00704780B588B000AFF8607A601A460B4624
:100A1C00FB721346BB720C2002F004FEF861FFF768
:100A2C00E9FF03461A467B6802FB03F3BB61FB69D3
:100A3C005A00BB691A44BB695B00B2FBF3F3DBB22F
:100A4C00013BFB75FB7D18462037BD4680BD80B44D
:100A5C0085B000AF78600B46FB707B681B6823F099
:100A6C00E063FB60FB781A06FB681A437B681A602C
:100A7C0000BF1437BD4680BC704780B487B000AF50
:100A8C00F8600B467A60FB72FA7AFB68043253F812
:100A9C0022307B617B69002B01DB002308E07B6942
:100AAC001B099BB2C3F30B039AB27B681A80012318
:100ABC0018461C37BD4680BC7047000080B586B018
:100ACC0000AF7860396000237B610C2002F0ACFB36
:100ADC007B684FF470625A637B680022DA607B6932
:100AEC0043F400137B613B68104A1A603B68002298
:100AFC001A7100233B613B6800225A713B681A68EB
:100B0C003B69DBB200217868FFF77BFF0346FB7380
:100B1C00FB7B1B021A467B6913437B617B687A69FA
:100B2C001A6000BF1837BD4680BD00BF400D0300E2
:100B3C0080B582B000AF78607B684FF48072DA6069
:100B4C007B6800221A600C2002F088FB00BF08377B
:100B5C00BD4680BD80B584B000AFF8600B467A60AE
:100B6C00FB72FB7A7A681946F868FFF786FF034632
:100B7C0018461037BD4680BD80B485B000AFF86014
:100B8C000B467A60FB727B68022B26D07B68022BAB
:100B9C002CD87B68002B03D07B68012B0DD025E073
:100BAC00FB681A6BFB7A22FA03F303F00103002BA8
:100BBC0014BF01230023DBB21AE0FB7A0833FB726B
:100BCC00FB681A6BFB7A22FA03F303F00103002B88
:100BDC0014BF01230023DBB20AE0FB681B6B1B0C68
:100BEC00002B14BF01230023DBB201E000BF002364
:100BFC0018461437BD4680BC704780B483B000AF34
:100C0C0078600B46FB701346BB70BB78012B09D187
:100C1C007B68DA68FB78012101FA03F31A437B68DD
:100C2C00DA6009E07B68DA68FB78012101FA03F3EA
:100C3C00DB431A407B68DA6000BF0C37BD4680BCD2
:100C4C00704780B582B000AF78600B46FB701346DE
:100C5C00BB70FB78012B12D0FB78002B0FD0BB782C
:100C6C00002B06D07B681B6843F000627B681A601F
:100C7C0005E07B681B6823F000627B681A60FB78D8
:100C8C0019467868FFF7E3FE00BF0837BD4680BD04
:100C9C0080B586B000AFF860B9607A60FB681B68FD
:100CAC0023F47F437B61BB687A681A60BB6859790F
:100CBC00BB681B79C3F10B03DBB27A68F868FFF7EA
:100CCC00A0FE0346FB74FB7C1B021A467B69134394
:100CDC007B61FB687A691A6000BF1837BD4680BD1E
:100CEC0080B483B000AF78600B46FB701346BB70CA
:100CFC00BB78012B09D17B681A68FB78012101FABA
:100D0C0003F31A437B681A600FE07B681B6823F0BF
:100D1C00E0627B681A607B681A68FB78012101FA33
:100D2C0003F3DB431A407B681A6000BF0C37BD46E7
:100D3C0080BC704780B582B000AF78600B46FB700A
:100D4C0000217868FFF783FEFB78002B06D17B68C7
:100D5C001B6823F480327B681A6005E07B681B6893
:100D6C0043F480327B681A6000BF0837BD4680BDF3
:100D7C0080B586B000AFF8600B467A60FB7207F165
:100D8C001402FB7A1946F868FFF777FE0346FB75E9
:100D9C00BB8ADAB27B681A70FB7D18461837BD46E1
:100DAC0080BD80B483B000AF786039607B683A68EE
:100DBC005A6000BF0C37BD4680BC704780B483B00E
:100DCC0000AF78607B68DB6918460C37BD4680BC89
:100DDC00704780B483B000AF78607B681B68DBB26F
:100DEC0023F04003DBB218460C37BD4680BC70477D
:100DFC0080B483B000AF78600B46FB70FA787B68E8
:100E0C001A6000BF0C37BD4680BC704780B483B0FD
:100E1C0000AF78607B681B68DBB218460C37BD46A8
:100E2C0080BC704780B582B000AF78603960012219
:100E3C000121786801F00CF93B681B88C3F30902A7
:100E4C003B689B789B039BB21A433B68DB781B0483
:100E5C0003F470231A433B681B791B0503F47003DE
:100E6C001A437B685A613B685B79002B05D07B6821
:100E7C005B6943F400027B685A61002201217868A7
:100E8C0001F0E6F800BF0837BD4680BD80B485B0E0
:100E9C0000AFF8607A603B600B46FB72FB7A002B6C
:100EAC0003D17B6800221A800CE0FB7A013BFA68C4
:100EBC009B0013445B689B089BB2C3F309039AB273
:100ECC007B681A80FB7AFA689B0013445B689B086A
:100EDC009BB2C3F309039AB23B681A803B681B8828
:100EEC00002B06D03B681B88013B9AB23B681A80EA
:100EFC0003E07B681A883B681A8000BF1437BD4634
:100F0C0080BC704780B483B000AF78607B685B694D
:100F1C009B089BB2C3F309039BB218460C37BD4622
:100F2C0080BC704780B483B000AF78600B46FB7018
:100F3C0013463B803B889B001946FB7840F6FC72BD
:100F4C000A4079689B000B445A6000BF0C37BD46C1
:100F5C0080BC704790B482B000AF786039603A685A
:100F6C007B68144620330FCB84E80F007B68DB6969
:100F7C0003F00103002B14BF01230023DBB218463E
:100F8C000837BD4690BC704790B484B000AFF86091
:100F9C000B467A60FB72FB7AFA6803331B011A4426
:100FAC007B6814460FCB84E80F0000BF1037BD469A
:100FBC0090BC704780B485B000AF78600B46FB7076
:100FCC000023FB817B681B785B03FB817B685B7870
:100FDC001B031BB203F480531AB2B7F90E30134340
:100FEC001BB2FB817B685B881BB2C3F30A031AB28A
:100FFC00B7F90E3013431BB2FB81FB78002B03D0E7
:10100C00FB8943F40063FB81FB8918461437BD460A
:10101C0080BC704780B483B000AF0346FB71FB7992
:10102C005B031BB243F480531BB29BB218460C37C4
:10103C00BD4680BC704780B483B000AF03463960B6
:10104C00FB80FB885B0B9BB2DBB203F00703DAB2CD
:10105C003B681A70FB881B0B9BB2DBB203F00103DD
:10106C00DAB23B685A70FB88C3F30A039AB23B6846
:10107C005A8000BF0C37BD4680BC704780B586B027
:10108C0000AFF860B96011461A460B46FB80134658
:10109C007B710023BB8200237B820023FB826BE0ED
:1010AC00FB8A9B00BA6813445B88BA8A9A4201D9BE
:1010BC00002366E0FB8A9B00BA6813445B88BB8202
:1010CC00FB8A9B00BA6813447A7911461846FFF7DD
:1010DC0071FF03463B823B8A19047B8A9B00FA68AA
:1010EC0013440A461A60FB8A5A1CFB889A422ADA75
:1010FC00FB8A01339B00BA6813445B88BA8A9A4214
:10110C0001D900233DE0FB8A01339B00BA681344EC
:10111C005B88BB82FB8A01339B00BA6813447A79E3
:10112C0011461846FFF746FF03463B827B8A9B001D
:10113C00FA68134419683A8A7B8A9B00F86803445E
:10114C000A431A6012E0BB681B781846FFF762FF6F
:10115C00034619467B8A9B00FA6813441A680846B2
:10116C007B8A9B00F9680B4402431A607B8A01332B
:10117C007B82FB8A0233FB82FA8AFB889A428FD3EA
:10118C00012318461837BD4680BD80B584B000AF2A
:10119C00F860B9601346FB80FB885B009AB20023B1
:1011AC00B968F868FFF76AFF034618461037BD4662
:1011BC0080BD90B587B000AF7860396000237B614B
:1011CC003B68002B46DD7B681B683B613B691A0C56
:1011DC007B681A6000237B6116E07B6901339B00FE
:1011EC007A6813441B68BB603B691904BB681A0C12
:1011FC007B6901339B00786803440A431A60BB681F
:10120C003B617B6901337B613B68DA0F13445B10F4
:10121C001A467B699342E0D33B6803F00103002B31
:10122C0019D13B695B0BDBB203F00703FB733B6922
:10123C001C04FB7B1846FFF7EDFE034619463B6882
:10124C00DA0F13445B109B007A68134444EA0102E2
:10125C001A6000E000BF1C37BD4690BD90B587B04A
:10126C0000AF7860396000237B610023FB600023B2
:10127C003B610023FB723B68002B54DD3B68013360
:10128C00DA0F13445B1003F18043013B9B007A6837
:10129C0013441B683B613B695B0BDBB203F0070338
:1012AC00FB723B6803F00103002B15D13B691C0456
:1012BC00FB7A1846FFF7AEFE034619463B6801332E
:1012CC00DA0F13445B1003F18043013B9B007A68F7
:1012DC00134444EA01021A603B680133DA0F1344E9
:1012EC005B10013B7B611AE07B6903F18043013B9E
:1012FC009B007A6813441B68FB603B69190CFB6804
:10130C001A047B6903F18043013B9B00786803441A
:10131C000A431A60FB683B617B69013B7B617B691B
:10132C00002BE1DC00E000BF1C37BD4690BD80B453
:10133C0085B000AF78600023FB607B681B785B078F
:10134C00FB607B685B6823F06043FA681343FB60C7
:10135C00FB6818461437BD4680BC704780B483B018
:10136C0000AF786039607B685B0FDAB23B681A704B
:10137C007B6823F060423B685A6000BF0C37BD4667
:10138C0080BC704780B588B000AFF860B960134678
:10139C00FB800023BB610023FB820023FB8323E043
:1013AC00FB8BDB00BA6813445B68BA699A4201D9BB
:1013BC0000231EE0FB8BDB00BA6813445B68BB6147
:1013CC00FB8BDB00BA6813441846FFF7B0FF38619B
:1013DC00FB8A9B00FA6813443A691A60FB8A013352
:1013EC00FB82FB8B0133FB83FA8BFB889A42D7D3AE
:1013FC00012318462037BD4680BD80B584B000AFB0
:10140C00F860B9601346FB80FB885B009BB21A4600
:10141C00B968F868FFF7B6FF034618461037BD46A3
:10142C0080BD80B489B000AFF860B9601346FB7121
:10143C000023FB770023BB61FA79BB6802FB03F343
:10144C007B61FB79022B0BD1BB6803F00103002BF2
:10145C0003D07B69023B7B6102E07B6902337B61D9
:10146C000023FB7711E0FA7F7B691344FA6813447D
:10147C001B781A46FB7FDB0002FA03F31A46BB69A2
:10148C001343BB61FB7F0133FB77FA7FFB799A42F5
:10149C00E9D3BB6918462437BD4680BC704780B57C
:1014AC008AB000AFF860B9607A603B60FB68FB61A2
:1014BC00BB68002B01D1002369E000237B62BB6871
:1014CC00013B3B6221E07A6A3B6A13445B08BB61D7
:1014DC0097F830301A46B969F869FFF7A2FF02464F
:1014EC003B6813407B617A697B689A4202D14FF06A
:1014FC00FF334CE07A697B689A4203D2BB690133B3
:10150C007B6202E0BB69013B3B627B6A01333A6A56
:10151C009A42D8D897F830301A46796AF869FFF7AA
:10152C0080FF02463B6813407A689A420CD097F8C9
:10153C0030301A46396AF869FFF773FF02463B6888
:10154C0013407A689A4202D14FF0FF331FE097F8AC
:10155C0030301A46796AF869FFF763FF02463B6838
:10156C0013407A689A4201D27B6A10E097F83030C7
:10157C001A46396AF869FFF754FF02463B68134074
:10158C007A689A4202D93B6A013300E03B6A1846FA
:10159C002837BD4680BD90B591B002AFF860B960F8
:1015AC007A60FB7000233B630023FB860023BB8621
:1015BC000023FB62F868FFF729FC034687F82B3001
:1015CC00F868FFF79FFC0346B3F5007F01D30023B7
:1015DC006BE1FB78002B08D007F1180307F11A0216
:1015EC000021F868FFF752FC07E007F1180307F138
:1015FC001A020121F868FFF749FC3A8B7B8B9A425F
:10160C001DD93B8B1A467B8BD31A01339BB25B00E3
:10161C00FB863B8B1A46BB6853F82230C3F30A0394
:10162C00002B0CD13B8B1A46BB6853F822301B0B9A
:10163C0003F00103012B02D1FB8E013BFB867B8B5C
:10164C009B00BA68D018F98E7B685B88C3F30A02DA
:10165C000223009340F2FF73FFF721FF38633B6BCB
:10166C00B3F1FF3F03D0FB8E3A6B9A4201DD0023AE
:10167C001BE10121F868FFF7BBFBFB8E03F00103B4
:10168C009BB2002B68D1F868FFF73CFC0346BB8685
:10169C000BE0BB8E591EBA8EBB6853F82110BB6889
:1016AC0043F82210BB8E013BBB863B8BBA8E9A4211
:1016BC00EFD8FB78002B0FD007F1140307F11602BB
:1016CC000021F868FFF7E2FBBB8A02339BB21A4693
:1016DC000021F868FFF726FC07F1140307F1160246
:1016EC000121F868FFF7D2FBBB8A02339BB21A4682
:1016FC000121F868FFF716FC07F1140307F1160235
:10170C000221F868FFF7C2FBBB8A02339BB21A4670
:10171C000221F868FFF706FC07F1140307F1160223
:10172C000321F868FFF7B2FBBB8A02339BB21A465F
:10173C000321F868FFF7F6FB07F1140307F1160213
:10174C000421F868FFF7A2FBBB8A02339BB21A464E
:10175C000421F868FFF7E6FB3B6B03F00103002B59
:10176C0010D17B8B19463B6BDA0F13445B100B4487
:10177C009B00BA68D018FA8E3B6BD31A1946FFF748
:10178C0018FD11E07B8B19463B6BDA0F13445B1091
:10179C000B4401339B00BA68D018FA8E3B6BD31AFA
:1017AC00013B1946FFF705FDFB7819467868FFF7F2
:1017BC0001FC0346FB623B6B03F00103002B33D1AE
:1017CC00FB8E3A6B9A4214D1FB6A1C047B681B7823
:1017DC001846FFF71FFC034619467B8B18463B6BDC
:1017EC00DA0F13445B10C2182143BB6843F8221074
:1017FC0054E07B8B19463B6BDA0F13445B10CA1811
:10180C00BB6853F822309BB2FB61FB6A19047B8BDB
:10181C0018463B6BDA0F13445B10C218FB69194373
:10182C00BB6843F8221039E07B8B19463B6BDA0F0F
:10183C0013445B10CA18BB6853F822307B627B8B55
:10184C0019463B6BDA0F13445B100B445A1CBB68F4
:10185C0053F822303B62FB8E3A6B9A420FDA3B6AAA
:10186C0098B27B6A19047B8B1C463B6BDA0F1344D2
:10187C005B1023445A1C0143BB6843F822107B6A5B
:10188C001B0C1B047A8B10463A6BD10F0A44521076
:10189C000244F96A1943BB6843F8221097F82B30BD
:1018AC001946F868FFF7A4FA012318463C37BD46E1
:1018BC0090BD80B586B000AFF860B96011461A468D
:1018CC000B46FB8013467B710023FB827B79002B3C
:1018DC0008D007F1120307F114020021F868FFF792
:1018EC00D5FA07E007F1120307F114020121F86899
:1018FC00FFF7CCFA7A8ABB8A9A421DD97B8A1A46A0
:10190C00BB8AD31A01339BB25B00FB827B8A1A46DB
:10191C00BB6853F82230C3F30A03002B0CD17B8A2B
:10192C001A46BB6853F822301B0B03F00103012B42
:10193C0002D1FB8A013BFB82FA88FB8A9A4201D3D3
:10194C00002324E0FB8803F001039BB2002B0FD192
:10195C00BB8A1A46FB885B089BB21A44BB6853F8D7
:10196C0022301B0C9BB2396A1846FFF764FB0DE062
:10197C00BB8A1A46FB885B089BB21A44BB6853F8B7
:10198C0022309BB2396A1846FFF755FB01231846E3
:10199C001837BD4680BD90B58BB000AFF860B9600C
:1019AC0011461A460B46FB8013467B710023FB84C1
:1019BC0000233B62F868FFF729FA0346FB77B7F977
:1019CC000630002B01DA002357E1F868FFF79AFA8A
:1019DC000346B3F5007F01D300234EE17B79002B46
:1019EC0008D007F11A0307F11C020021F868FFF771
:1019FC004DFA07E007F11A0307F11C020121F86800
:101A0C00FFF744FA7A8BBB8B9A421DD97B8B1A4613
:101A1C00BB8BD31A01339BB25B00FB847B8B1A46C6
:101A2C00BB6853F82230C3F30A03002B0CD17B8B19
:101A3C001A46BB6853F822301B0B03F00103012B31
:101A4C0002D1FB8C013BFB84B7F90620FB8C9A423C
:101A5C0001DB002311E10121F868FFF7C9F9BB8B09
:101A6C001946B7F90630DA0F13445B101BB20B445E
:101A7C005A1CBB6853F822303B62FB8803F001030D
:101A8C009BB2002B13D1BB8B1946B7F90630DA0F7A
:101A9C0013445B101BB20B449B00BA68D018FA8C31
:101AAC00B7F90630D31A1946FFF7D8FB79E0BB8B90
:101ABC001946B7F90630DA0F13445B101BB20B440E
:101ACC0001339B00BA68D018FA8CB7F90630D31AD8
:101ADC00013B1946FFF7C2FBBB8B1846B7F9063022
:101AEC00DA0F13445B1019B20B46C218BB6853F8DB
:101AFC002230BA8B10460A4681181B0C1B04BA689C
:101B0C0042F82130B7F90620FB8C013B9A4231D1C7
:101B1C00BB8B1946B7F90630DA0F13445B101BB2B6
:101B2C00CA18BB6853F822301B0C3B623B6A5B0B38
:101B3C00DBB203F00703BB77BB7F1846FFF76AFAEB
:101B4C0003461C46BB8B1846B7F90630DA0F134414
:101B5C005B1019B20B46C218BB6853F822302046F2
:101B6C00BA8B14460A46224443EA0001BB6843F888
:101B7C00221016E0BB8B1946B7F90630DA0F134466
:101B8C005B1018B20346CA18BB6853F822103B6AA4
:101B9C001B0CBA8B1446024622441943BB6843F80B
:101BAC002210FB8C03F001039BB2002B5FD07B8BCC
:101BBC00BB840BE0BB8C591CBA8CBB6853F821104E
:101BCC00BB6843F82210BB8C0133BB84F868FFF769
:101BDC0099F903461A46BB8C9342EBD37B79002BC5
:101BEC000DD007F1160307F118020021F868FFF772
:101BFC004DF9FB8A1A460021F868FFF793F907F1B3
:101C0C00160307F118020121F868FFF73FF9FB8A68
:101C1C001A460121F868FFF785F907F1160307F159
:101C2C0018020221F868FFF731F9FB8A1A460221E3
:101C3C00F868FFF777F907F1160307F1180203218B
:101C4C00F868FFF723F9FB8A1A460321F868FFF7B7
:101C5C0069F907F1160307F118020421F868FFF778
:101C6C0015F9FB8A1A460421F868FFF75BF9FB7F2C
:101C7C001946F868FFF7BCF8012318462C37BD4607
:101C8C0090BD80B588B000AFF860B96011461A46B7
:101C9C000B46FB711346BB800023FB8301237B7730
:101CAC0000237B83F868FFF7B1F803467B76B7F91E
:101CBC000430002B01DA0023B3E0F868FFF722F9B7
:101CCC000346B3F5007F01D30023AAE0FB79002B78
:101CDC0008D1B7F904200123B968F868FFF75BFE57
:101CEC0003469EE0FB79012B08D1B7F904200023B1
:101CFC00B968F868FFF74FFE034692E0FB79042BB6
:101D0C0001D102237B7707F1140307F11602F9794D
:101D1C00F868FFF7BBF8BA8AFB8A9A4208D9BB8AE3
:101D2C001A46FB8AD31A5A1C7B7F92FBF3F3FB8374
:101D3C00B7F90420FB8B9A4201DB002371E00121EF
:101D4C00F868FFF755F87B7F9BB2BA8802FB03F368
:101D5C009AB2FB8A13447B830CE07A8B7B7FD1187D
:101D6C007A8BBB6853F82110BB6843F822107B8B2D
:101D7C0001337B83F868FFF7C5F803461A467B8B63
:101D8C009342EAD3FB79042B2ED0042B48DC022B94
:101D9C0002D0032B14D043E007F1100307F1120219
:101DAC000221F868FFF772F83A8A7B7F9BB2D31A4C
:101DBC009BB201339BB21A460221F868FFF7B2F8C6
:101DCC0007F1100307F112020321F868FFF75EF820
:101DDC003A8A7B7F9BB2D31A9BB201339BB21A46D1
:101DEC000321F868FFF79EF807F1100307F11202C0
:101DFC000421F868FFF74AF83A8A7B7F9BB2D31A22
:101E0C009BB201339BB21A460421F868FFF78AF89B
:101E1C0000BF7B7E1946F868FEF7EAFF012300E05D
:101E2C00002318462037BD4680BD80B584B000AF76
:101E3C00786039600023FB607868FEF7E7FF0346A3
:101E4C00FB7201217868FEF7D3FF0023FB6007E0EB
:101E5C003B68FA68002143F82210FB680133FB60F1
:101E6C00FB68B3F5007FF3D3002200217868FFF7FD
:101E7C0059F8002201217868FFF754F8002202215A
:101E8C007868FFF74FF8002203217868FFF74AF8CB
:101E9C00002204217868FFF745F8FB7A1946786828
:101EAC00FEF7A6FF00BF1037BD4680BD80B485B0DD
:101EBC0000AF78607B68074A934202D10D23FB7315
:101ECC0001E00E23FB73FB7B18461437BD4680BC28
:101EDC00704700BF0040044080B485B000AF78600C
:101EEC007B68074A934202D10D23FB7301E00E235A
:101EFC00FB73FB7B18461437BD4680BC704700BF94
:101F0C000040044080B586B000AFF860B9607A60DC
:101F1C00F868FFF7CBFF0346184601F085F9FB681C
:101F2C0001221A60FB681B69FB6800221A61FB68BE
:101F3C009B68FB6800229A60FB680E225A60FB6863
:101F4C00DB687B61FB6800221A607968B868FFF770
:101F5C006CFF0021B868FEF74BFF00BF1837BD4679
:101F6C0080BD80B582B000AF78607868FFF79EFFC7
:101F7C000346184601F072F900BF0837BD4680BD14
:101F8C0080B588B000AF7860396000237B61002396
:101F9C00BB7700237B7700233B610023BB61786810
:101FAC00FFF79AFF0346184601F03CFB38613A698B
:101FBC003B68B2FBF3F37B611823FB7728E0FA7FD5
:101FCC007B69B3FBF2F101FB02F29B1A002B1CD1D3
:101FDC00FB7F7A69B2FBF3F3013BBB61FB7F013BF7
:101FEC00FB77FB7F194AA2FB03235B08DBB2013BA7
:101FFC007B77FB7F154AA2FB03235B08DBB2FA7FDE
:10200C00D31ADBB2013BBB7705E0FB7F023BFB77CE
:10201C00FB7F002BD3D1FB7F002B01D1002311E0E0
:10202C00BB7FFB727B7F3B73BB699BB23B81032302
:10203C00BB7200237B7307F1080319467868FEF71F
:10204C00F1FE012318462037BD4680BDABAAAAAAD3
:10205C0080B483B000AF78600B46FB701346BB7046
:10206C00FB7803F00203002B04D1FB7803F004038C
:10207C00002B1FD07B681B6843F001027B681A6041
:10208C00BB78002B06D07B681A68FB781A437B68F8
:10209C001A6008E07B681B68FA78D243134003F09F
:1020AC00BF027B681A607B681B6803F0BE027B680A
:1020BC001A6012E0BB78002B06D07B681A68FB789C
:1020CC001A437B681A6008E07B681B68FA78D24375
:1020DC00134003F0BF027B681A6000BF0C37BD468B
:1020EC0080BC704780B584B000AF78600023FB7370
:1020FC000023FB730FE07868FEF760FE0246FB7B63
:10210C00DB000233012101FA03F31340002B06D14B
:10211C00FB7B0133FB73FB7B022BECD900E000BF94
:10212C00FB7B18461037BD4680BD80B586B000AF2E
:10213C00F860B9607A600023BB8200237B820023A5
:10214C00FB75F868FEF762FE03467B740121F868A4
:10215C00FEF74EFE7B689B880133DA0F13445B104D
:10216C0019467B689B890133DA0F13445B100B44CF
:10217C007A68928A13447A68928B1A447B689B8C97
:10218C005B001344B3F5007F02DD0023FB75A7E071
:10219C00BB8A9B00BA68D0187B6819687B689A88E0
:1021AC000123FEF76BFF0346FB75FB7D002B00F054
:1021BC008E807B689B8801335B10BB82BB8A7B82E1
:1021CC00BB8A1A460021F868FEF7ACFEBB8A9B005E
:1021DC00BA68D0187B6899687B689A890023FEF7E7
:1021EC004DFF0346FB75FB7D002B72D07B689B89F2
:1021FC0001335B109AB2BB8A1344BB82BB8A1A466A
:10220C000121F868FEF78EFEBB8A9B00BA68D018D5
:10221C007B6819697B689B8A1A46FEF7B6FF0346F2
:10222C00FB75FB7D002B56D07B689A8ABB8A1344C6
:10223C00BB82BB8A1A460221F868FEF773FEBB8A82
:10224C009B00BA68D0187B6899697B689B8B1A468F
:10225C00FFF798F80346FB75FB7D002B3DD07B68A0
:10226C009A8BBB8A1344BB82BB8A1A460321F8683B
:10227C00FEF758FEBB8A9B00BA68D0187B68196AB7
:10228C007B689B8C1A46FFF7B8F80346FB75FB7D01
:10229C00002B24D07B689B8C5B009AB2BB8A1344C6
:1022AC00BB82BB8A1A460421F868FEF73BFE7B8A88
:1022BC00002B15D07A8A134692009B1A5B0003F50B
:1022CC000062BB8A9A420BDA0023FB7508E000BF60
:1022DC0006E000BF04E000BF02E000BF00E000BF6A
:1022EC007B7C1946F868FEF783FDFB7D1846183792
:1022FC00BD4680BD80B586B000AFF860B9601346AE
:10230C00FB710023FB8207F1120307F11402F97928
:10231C00F868FEF7BBFD7A8ABB8A9A4201D8002383
:10232C003DE0FB79002B02D0FB79012B1ED17B8A7F
:10233C001A46BB8AD31A01339BB25B00FB827B8AA1
:10234C001A46BB6853F82230C3F30A03002B24D17E
:10235C007B8A1A46BB6853F822301B0B03F001032F
:10236C00012B1AD1FB8A013BFB8216E0FB79022B75
:10237C0002D0FB79032B06D17A8ABB8AD31A9BB283
:10238C000133FB820AE07B8A1A46BB8AD31A0133DB
:10239C00DA0F13445B10FB8200E000BFFB8A184687
:1023AC001837BD4680BD80B584B000AFF860B96009
:1023BC007A6001237A68B968F868FFF7ECF803468D
:1023CC0018461037BD4680BD80B584B000AFF860AC
:1023DC00B9607A6000237A68B968F868FFF7DBF8AF
:1023EC00034618461037BD4680BD80B58CB002AF91
:1023FC00F860B9607A6000233B620023FB84002301
:10240C00BB840023FB61F868FEF700FD0346FB76F6
:10241C00F868FEF777FD0346B3F5007F01D3002380
:10242C007AE007F1160307F118020321F868FEF7AA
:10243C002DFDFA8A3B8B9A4205D9FA8A3B8BD31A2B
:10244C009BB20133FB843B8B9B00BA68D018F98C90
:10245C007B685B6823F06042042300936FF0604359
:10246C00FFF71DF838623B6AB3F1FF3F03D0FB8CDA
:10247C003A6A9A4201DD00234EE00121F868FEF72A
:10248C00B7FCF868FEF73EFD0346BB840BE0BB8C43
:10249C00591EBA8CBB6853F82110BB6843F8221044
:1024AC00BB8C013BBB84BA8C3B8B19463B6A0B44FF
:1024BC009A42ECDC7868FEF73AFFF8613B8B1A46DF
:1024CC003B6A1A44BB68F96943F8221007F11603FA
:1024DC0007F118020321F868FEF7D8FCFB8A0233D7
:1024EC009BB21A460321F868FEF71CFD07F1160390
:1024FC0007F118020421F868FEF7C8FCFB8A0233C6
:10250C009BB21A460421F868FEF70CFDFB7E1946B7
:10251C00F868FEF76DFC012318462837BD4680BDD0
:10252C0080B58CB000AFF860B9607A600023FB8591
:10253C000023BB8500237B8500233B85F868FEF7D1
:10254C0065FC034687F82730F868FEF7DBFC03468A
:10255C00B3F5007F01D3002316E107F1140307F153
:10256C0016020221F868FEF791FCFB8AFB8518E045
:10257C00FA8DBB6853F822301B0C9BB2C3F30A03D1
:10258C00BB85FA8DBB6853F822309BB2C3F30A03A8
:10259C007B857B685B88BA8D9A4207D2FB8D0133B1
:1025AC00FB85BB8AFA8D9A42E2D900E000BFFB8D15
:1025BC00002B32D0FB8D5A1EBB6853F822309BB2D5
:1025CC00C3F30A03BB847B68DB88BA8C9A4201D3C1
:1025DC000123D9E07B68DB88BA8D9A421DD97B68D0
:1025EC005B88BA8C9A425ED9FB8D5A1EBB6853F835
:1025FC0022301B0C1B043B627B6804330021184601
:10260C00FEF7D8FC03461946FB8D5A1E3B6A19434C
:10261C00BB6843F822100123B6E0BB8A002B44D0E0
:10262C00BB8AFA8D9A4240D87B68DB887A8D9A42B5
:10263C0019D87B6800211846FEF7BCFC03461B0426
:10264C00BB617B68043300211846FEF7B3FC0346DC
:10265C001A46BB691343BB61FA8DBB68B96943F871
:10266C002210012390E07B68DB887A8D9A421CD97A
:10267C007B68DB88BA8D9A4217D2FA8DBB6853F807
:10268C0022309BB2FB617B6800211846FEF792FC5E
:10269C0003461B041946FA8DFB691943BB6843F8C2
:1026AC002210012370E000BF00E000BF0121F86898
:1026BC00FEF79EFBF868FEF725FC03463B850BE016
:1026CC003B8D591E3A8DBB6853F82110BB6843F8FB
:1026DC0022103B8D013B3B853A8DFB8D9A42EFD806
:1026EC007B6800211846FEF765FC03461B04FA8D37
:1026FC001946BB6843F822107B6804330021184646
:10270C00FEF758FC03461946FA8DBB6853F8223085
:10271C00FA8D1943BB6843F8221007F1140307F133
:10272C0016020221F868FEF7B1FBBB8A02339BB29A
:10273C001A460221F868FEF7F5FB07F1140307F1BE
:10274C0016020321F868FEF7A1FBBB8A02339BB289
:10275C001A460321F868FEF7E5FB07F1140307F1AD
:10276C0016020421F868FEF791FBBB8A02339BB278
:10277C001A460421F868FEF7D5FB97F8273019465E
:10278C00F868FEF735FB012318463037BD4680BD8F
:10279C0090B58BB000AFF860B9607A6000237B62B3
:1027AC0000233B620023FB6100237B83F868FEF768
:1027BC002DFB03467B76F868FEF7A4FB0346B3F5C6
:1027CC00007F01D30023D4E007F1100307F11202BC
:1027DC000421F868FEF75AFB7B8A7B6216E0BB6823
:1027EC007A6A53F8223023F060433B627B6A5A1CAE
:1027FC00BB6853F8223023F06043FB617B685B6855
:10280C003A6A9A4208D27B6A02337B623B8A1A4646
:10281C007B6A9342E3D900E000BF7B6A002B26D091
:10282C007B6A5A1EBB6853F8223023F060437B61ED
:10283C007B68DB687A699A4201D3012399E07B6853
:10284C00DB683A6A9A4212D97B685B687A699A4269
:10285C0046D97B6803F108027B6A5C1E1046FEF7C2
:10286C0066FD0246BB6843F82420012381E03B8AC5
:10287C00002B37D03B8A1A467B6A934232D27B6854
:10288C00DB68FA699A4216D87B681846FEF74FFD4A
:10289C000146BB687A6A43F822107B6803F1080290
:1028AC007B6A5C1C1046FEF742FD0246BB6843F88F
:1028BC00242001235DE07B68DB68FA699A4211D918
:1028CC007B68DB683A6A9A420CD27B681846FEF742
:1028DC002EFD0146BB687A6A43F82210012348E0BA
:1028EC0000BF00E000BF0121F868FEF781FAF8682C
:1028FC00FEF708FB034601337B830BE07B8B991EB1
:10290C007A8BBB6853F82110BB6843F822107B8B81
:10291C00013B7B837B8B7A6A9A42EFD37B681846A8
:10292C00FEF705FD0146BB687A6A43F822107B6806
:10293C0003F108027B6A5C1C1046FEF7F8FC0246A9
:10294C00BB6843F8242007F1100307F1120204219D
:10295C00F868FEF79BFA3B8A03339BB21A460421B4
:10296C00F868FEF7DFFA7B7E1946F868FEF740FA46
:10297C00012318462C37BD4690BD80B584B000AFFE
:10298C00F860B9601346FB80B7F906300022B968CD
:10299C00F868FFF776F9034618461037BD4680BD38
:1029AC0080B584B000AFF860B9601346FB80B7F90E
:1029BC0006300122B968F868FFF763F90346184638
:1029CC001037BD4680BD80B584B000AFF860B960EB
:1029DC001346FB80B7F906300222B968F868FFF796
:1029EC0050F9034618461037BD4680BD80B584B0FB
:1029FC0000AFF860B9601346FB80B7F906300322CC
:102A0C00B968F868FFF73DF9034618461037BD461C
:102A1C0080BD80B584B000AFF860B9601346FB8010
:102A2C00B7F906300422B968F868FFF72AF90346AB
:102A3C0018461037BD4680BD80B586B002AFF86031
:102A4C00B9603B601346FB80FA883B680093012316
:102A5C00B968F868FEF72DFF034618461037BD46D7
:102A6C0080BD80B586B002AFF860B9603B6013469C
:102A7C00FB80FA883B6800930023B968F868FEF77E
:102A8C0018FF034618461037BD4680BD80B586B08A
:102A9C0000AFF860B9603B601346FB800023FB82FB
:102AAC0007F1120307F114020221F868FEF7EEF9A0
:102ABC007A8ABB8A9A4205D97A8ABB8AD31A9BB284
:102ACC000133FB82FA88FB8A9A4201D300231CE073
:102ADC00BB8A1A46FB881A44BB6853F822301B0C7D
:102AEC009BB23A6811461846FEF7A5FABB8A1A46FD
:102AFC00FB881A44BB6853F822309AB23B68043303
:102B0C0019461046FEF797FA012318461837BD46AA
:102B1C0080BD80B586B000AFF860B9603B601346ED
:102B2C00FB800023FB8207F1120307F1140203213F
:102B3C00F868FEF7ABF97A8ABB8A9A4205D97A8A89
:102B4C00BB8AD31A9BB20133FB82FA88FB8A9A4266
:102B5C0001D300230BE0BB8A1A46FB881A44BB68DE
:102B6C0053F8223039681846FEF7F8FB0123184653
:102B7C001837BD4680BD80B586B000AFF860B9602F
:102B8C003B601346FB800023FB8207F1120307F125
:102B9C0014020421F868FEF779F97A8ABB8A9A4202
:102BAC0008D97B8A1A46BB8AD31A0133DA0F13442D
:102BBC005B10FB82FA88FB8A9A4201D300231CE04B
:102BCC00BB8A1A46FB885B001A44BB6853F8223058
:102BDC003A6811461846FEF7C1FBBB8A1A46FB88B9
:102BEC005B0013445A1CBB6853F822203B68083323
:102BFC0019461046FEF7B2FB012318461837BD469E
:102C0C0080BD80B58AB000AFF8600B467A60FB726D
:102C1C00002387F8273000237B617B685B6803F017
:102C2C000103002B04D07B6943F080437B613FE0C0
:102C3C007A697B689B681B0403F4702313437B61E4
:102C4C00002387F827302FE097F827309B007A680D
:102C5C0013441B7B194697F827309B0001337A6885
:102C6C0013441B7B1B0241EA030297F827309B009D
:102C7C00023379680B441B7B1B041A4397F82730EB
:102C8C009B00033379680B441B7B1B061A4397F894
:102C9C00273002339B0028333B4443F8142C97F81D
:102CAC002730013387F8273097F82730012BCBD901
:102CBC007B681B6803F08043002B09D07B6943F0D1
:102CCC0000437B617B681B6823F06043BB6104E0BD
:102CDC007B681B68C3F30A03BB6107F11402FB7A20
:102CEC001946F868FEF750F9F868FEF772F80346D3
:102CFC00042B0BD1FB7A0533012202FA03F343F0C8
:102D0C0010031946F868FEF74CF80AE0FB7A053315
:102D1C00012202FA03F343F001031946F868FEF7A7
:102D2C0040F8012318462837BD4680BD80B588B0D1
:102D3C0000AF7860396007F10C0319467868FEF72C
:102D4C0009F90346012B57D1FB68002B07DA3B69C5
:102D5C0023F0604343F080423B681A6004E03B6917
:102D6C00C3F30A023B681A60FB681B0C03F00F02EA
:102D7C003B689A603B6800225A60FB6803F0804312
:102D8C00002B06D03B685B6843F001023B685A603D
:102D9C002CE00023FB7725E097F91F30002B00DA9D
:102DAC0003339B105BB202339B0020333B4453F83C
:102DBC00142C97F91F30594203F0030301F003015F
:102DCC0058BF4B425BB2DB00DA4097F91F30D1B2EF
:102DDC003A6813440A461A7397F91F30DBB2013371
:102DEC00DBB2FB7797F91F30072BD5DD0421786810
:102DFC00FDF7D7FF012300E0002318462037BD461E
:102E0C0080BD80B584B000AF78600B46FB707868ED
:102E1C00FDF7FCFF0346FB7301217868FDF7E8FF23
:102E2C00FB78012B06D17B681B6A43F001027B689F
:102E3C001A6204E07B681B6A7B6800221A62FB7BC7
:102E4C0019467868FDF7D4FF00BF1037BD4680BD2A
:102E5C0080B483B000AF78600B46FB70FB783F2BDF
:102E6C0014D8FB785B09DBB27A6808339B001344F7
:102E7C005B68FA7802F01F02012101FA02F213409A
:102E8C00002B14BF01230023DBB200E00023184603
:102E9C000C37BD4680BC704780B586B000AFF8607B
:102EAC00B9603B601346FB71BB687B61F868FEF749
:102EBC0029F803467B82798AFA7913465B0013441E
:102ECC000B449B007A6913447B617B691B681B0E66
:102EDC0003F00303032B01D0002339E07B690022AC
:102EEC001A607B691B685B0BDBB203F00703DAB279
:102EFC003B6A1A707B691B68C3F30A023B681A6051
:102F0C003B6800225A607B691B6803F08043002BEE
:102F1C0002D03B6801225A607B691B681B0C03F0D2
:102F2C000F023B689A603B680C337A6952681A60EE
:102F3C003B680C3304337A6992681A607B691B68AE
:102F4C001B0E03F00303002B01D0002300E0012330
:102F5C0018461837BD4680BD80B400AF064BD3F879
:102F6C00A83003F48063002B14BF01230023DBB2D1
:102F7C001846BD4680BC704700C00F4080B400AFFF
:102F8C00064BD3F8A83003F40073002B14BF0123B5
:102F9C000023DBB21846BD4680BC704700C00F4012
:102FAC0080B500AF00F016FB0346024A136000BF69
:102FBC0080BD00BFA001001080B500AF012203212D
:102FCC00012000F003F90121012000F0B9F800BF45
:102FDC00FFF7C2FF034683F00103DBB2002BF7D1EE
:102FEC000321012000F0ACF800BFFFF7C7FF034638
:102FFC0083F00103DBB2002BF7D11F2000F014F992
:10300C0000BF80BD80B400AF064BD3F8883003F00E
:10301C008073002B14BF01230023DBB21846BD467E
:10302C0080BC704700C00F4080B400AF064BD3F893
:10303C00A83003F48073002B14BF01230023DBB2F0
:10304C001846BD4680BC704700C00F4080B400AF2E
:10305C00064BD3F8883003F00073002B14BF012308
:10306C000023DBB21846BD4680BC704700C00F4041
:10307C0080B400AF064BD3F8A83003F40073002BD8
:10308C0014BF01230023DBB21846BD4680BC704739
:10309C0000C00F4080B483B000AF0346FB71094AF7
:1030AC00FB795B0113448C33AA221A60054AFB7925
:1030BC005B0113448C3355221A6000BF0C37BD469C
:1030CC0080BC704700C00F4080B400AF054BD3F8F4
:1030DC000C31DBB203F00303DBB21846BD4680BCF7
:1030EC00704700BF00C00F4080B400AF024B1B689C
:1030FC001846BD4680BC70474041010080B400AF0B
:10310C00024B1846BD4680BC704700BF00093D000D
:10311C0080B400AF024B1B681846BD4680BC70479C
:10312C004441010080B500AF00F0D8F903461846C1
:10313C0080BD80B500AFFFF7D7FF0346184680BDB2
:10314C0080B584B000AF03463960FB710C4AFB7943
:10315C0004335B0113441B68FB60FA683B68134340
:10316C00FB60074AFB7904335B011344FA681A606D
:10317C00FB791846FFF78EFF00BF1037BD4680BDA8
:10318C0000C00F4080B584B000AF03463960FB71BE
:10319C000D4AFB7904335B0113441B68FB603B68ED
:1031AC00DB43FA681340FB60074AFB7904335B018D
:1031BC001344FA681A60FB791846FFF76BFF00BFDF
:1031CC001037BD4680BD00BF00C00F4080B586B033
:1031DC0000AF0346B9607A60FB73FB7B002B05D113
:1031EC007B681B04BA6813437B6104E07B685B015A
:1031FC00BA6813437B610B4AFB7B04335B011344BA
:10320C0004337A691A60074AFB7B04335B0113446D
:10321C0001221A60FB7B1846FFF73CFF00BF1837F2
:10322C00BD4680BD00C00F4080B485B000AF0346E2
:10323C00FB71FB79FB60084BD3F8C4300121FA68B1
:10324C0001FA02F21146044A0B43C2F8C43000BF23
:10325C001437BD4680BC704700C00F4080B485B0A9
:10326C0000AF0346FB71FB79FB60094BD3F8C4300C
:10327C000121FA6801FA02F2D2431146044A0B43C7
:10328C00C2F8C43000BF1437BD4680BC704700BFC5
:10329C0000C00F4080B485B000AF0346FB71FB79D2
:1032AC00FB600A4BD3F8C4300121FA6801FA02F230
:1032BC001340FB60FB68002B14BF01230023DBB21F
:1032CC0018461437BD4680BC704700BF00C00F4085
:1032DC0080B582B000AF0346FB71FB79012B04D1A2
:1032EC0002210020FFF72CFF03E002210020FFF752
:1032FC0049FF00BF0837BD4680BD80B582B000AF26
:10330C00FFF7A4FE0346002B02D00123FB7101E062
:10331C000023FB71FB7918460837BD4680BD0000C1
:10332C0080B483B000AF7860044A7B68C2F8043183
:10333C0000BF0C37BD4680BC704700BF00C00F40BB
:10334C0080B400AF044BD3F80431DBB20133184620
:10335C00BD4680BC704700BF00C00F4080B485B034
:10336C0000AF7860084BD3F8083123F00F03FB60F3
:10337C000549FA687B681343C1F8083100BF14375C
:10338C00BD4680BC704700BF00C00F4080B400AF8A
:10339C00044BD3F8083103F00F0301331846BD4634
:1033AC0080BC704700C00F4080B487B000AF0346AC
:1033BC000A46FB711346BB71FB797B617B6903F099
:1033CC000F035B003B617B691B097B610E4A7B69C8
:1033DC006A3352F8233003213A6901FA02F2D243DC
:1033EC001340FB60BA793B6902FA03F3FA681343A2
:1033FC00FB6005497B696A33FA6841F8232000BFFA
:10340C001C37BD4680BC704700C00F4080B487B0ED
:10341C0000AF0346FB7101237B61FB795B003B61D1
:10342C003B6903F01F03FB603B695B093B61194A75
:10343C003B696A3352F823307B617A69FB6822FA64
:10344C0003F303F003037B617B69002B02D104239C
:10345C007B6119E07B69012B02D101237B6113E0B5
:10346C007B69022B02D102237B610DE0FB790D2BD2
:10347C0005D0FB790E2B02D0FB790F2B02D1062342
:10348C007B6101E008237B617B6918461C37BD46D4
:10349C0080BC704700C00F4080B485B000AF0346BD
:1034AC003960FB710C4BD3F8C83123F4FF7323F054
:1034BC000103FB60FA793B68013B1B011343FA687B
:1034CC001343FB60044AFB68C2F8C83100BF1437D1
:1034DC00BD4680BC704700BF00C00F4080B500AF38
:1034EC00FFF7F2FD0346022B0ED0022B10DC002B53
:1034FC0002D0012B04D00BE0FFF700FE034608E0DE
:10350C00FFF7F2FD034604E0FFF702FE034600E07E
:10351C000023184680BD000080B584B000AF0023A6
:10352C00FB60FFF76FFD0346002B18D00E4BD3F852
:10353C008430C3F30E030133BB600B4BD3F88430E0
:10354C001B0CDBB201337B60FFF7ECFD0246BB6862
:10355C0002FB03F35A007B68B2FBF3F3FB60FB68DE
:10356C0018461037BD4680BD00C00F4080B582B0F4
:10357C0000AF00237B60FFF757FD0346002B0DD0F7
:10358C00094BD3F8A43003F01F0301333B60FFF762
:10359C00D0FD02463B6802FB03F37B607B68184658
:1035AC000837BD4680BD00BF00C00F4080B500AFDE
:1035BC00FFF7A3FE0346002B05D0012B07D1FFF725
:1035CC00ABFF034604E0FFF789FF034600E000234E
:1035DC00184680BD98B500AFFFF7E8FF0446FFF72B
:1035EC00AFFE0346B4FBF3F3184698BD80B582B02A
:1035FC0000AFFFF73DFD0346002B05D0FFF7B6FFEC
:10360C00386001237B6005E0FFF7D0FF3860FFF7DF
:10361C00BDFE78603A687B68B2FBF3F31846083756
:10362C00BD4680BD90B583B000AF0346FB71FFF77C
:10363C00D1FF0446FB791846FFF7E8FE0346B4FBBE
:10364C00F3F318460C37BD4690BD80B582B000AF81
:10365C0078600021786800F025F800BF0837BD4677
:10366C0080BD80B483B000AF786000BF0C37BD461E
:10367C0080BC704780B485B000AF786039607B68DF
:10368C001B6803F48033FB603B689B019BB2FA68B8
:10369C001343FB607B68FA681A6000BF1437BD46A1
:1036AC0080BC704780B483B000AF786039607B68B1
:1036BC001B6823F480327B681A603B68012B05D1B0
:1036CC007B681B6843F480327B681A6000BF0C3740
:1036DC00BD4680BC704780B500AFFFF77BFF03464B
:1036EC00184680BD80B483B000AF78607B684FF41F
:1036FC004F421A607B687822C3F8002100BF0C3758
:10370C00BD4680BC704780B584B000AF78607868E7
:10371C00FFF7E8FF0023FB6002E0FB680133FB606E
:10372C00FB68632BF9D900BF00BF1037BD4680BDC5
:10373C0080B582B000AF78600B46FB701E20FFF79F
:10374C0073FD7868FFF7DFFF7B6802221A607B68E5
:10375C0031225A60FB78002B05D07B684FF4C8628D
:10376C00C3F8002104E07B684FF48862C3F80021A1
:10377C007B6815229A607B681222DA607B684FF4B2
:10378C0080729A617B684FF4C0625A617B6843F225
:10379C000F721A617B68D3F8003143F080027B68AA
:1037AC00C3F800217B684FF6FF72C3F8E82F7B68E3
:1037BC000022C3F8E42F00BF0837BD4680BD80B59A
:1037CC0082B000AF78607B681B6823F001027B68D5
:1037DC001A607B680022C3F800217B684FF6FF72E9
:1037EC00C3F8E82F7B680022C3F8E42F1E20FFF7F4
:1037FC0035FD00BF0837BD4680BD000080B485B0E4
:10380C0000AFF860B9601346FB71FB791B0203F43F
:10381C00F8530A4A1360BB689B0003F03C0343F463
:10382C000042FB681A62FB681B6A23F40042FB68C7
:10383C001A6200BF1437BD4680BC7047A40100104B
:10384C0080B584B000AF786039600023FB60FFF76F
:10385C0042FF02463B68B2FBF3F3BB600023FB6004
:10386C000CE00A4AFB6813441B781A46BB68934267
:10387C0001D8FB6806E0FB680133FB60FB680E2B8C
:10388C00EFD90E2318461037BD4680BDFC40010011
:10389C0080B483B000AF78600B46FB7013463B805E
:1038AC007B6800225A62FB7803F01F02064B1B68F0
:1038BC001A437B689A623A887B68DA6200BF0C37DD
:1038CC00BD4680BC704700BFA401001080B483B01B
:1038DC0000AF78600B46FB70FB7803F01F02064BC1
:1038EC001B681A437B689A627B6801225A6200BF8C
:1038FC000C37BD4680BC7047A401001080B483B067
:10390C0000AF78607B6800225A627B681B6B9BB2AD
:10391C0018460C37BD4680BC704780B483B000AFEE
:10392C0078607B685B6843F001027B685A607B6857
:10393C00D3F8003143F480627B68C3F800217B68C4
:10394C0015229A6000BF0C37BD4680BC704780B40E
:10395C0083B000AF78607B685B6823F001027B6802
:10396C005A607B68D3F8003123F480627B68C3F81B
:10397C0000217B6812229A6000BF0C37BD4680BCC8
:10398C00704780B485B000AFF860B9607A603B6076
:10399C00BA68FB68C3F81C213B685A1EFB68C3F865
:1039AC0024217A68FB68C3F82021FB680022C3F845
:1039BC00282100BF1437BD4680BC704780B485B049
:1039CC0000AFF860B9607A603B60BA68FB68C3F816
:1039DC0008213B685A1EFB68C3F810217A68FB6803
:1039EC00C3F80C21FB680022C3F8182100BF143760
:1039FC00BD4680BC704780B485B000AFF860084607
:103A0C0011461A4603467B810B463B811346FB80CD
:103A1C003A897B899A4201D1002311E03B89002B22
:103A2C0006D17A89FB88013B9A4201D1022307E037
:103A3C003A897B8901339A4201D1022300E00123A8
:103A4C0018461437BD4680BC704780B485B000AFB3
:103A5C00F860084611461A4603467B810B463B81AB
:103A6C001346FB803A897B899A4201D100230CE0F2
:103A7C003A897B899A4205D9FA883B89D21A7B8983
:103A8C00134402E07A893B89D31A18461437BD4691
:103A9C0080BC704780B485B000AF78607B68D3F889
:103AAC002831FB60FB680133FB607B68D3F8243161
:103ABC00FA689A4201D90023FB607B68FA68C3F864
:103ACC002821FB689BB218461437BD4680BC704752
:103ADC0080B485B000AF78607B68D3F81831FB6098
:103AEC00FB680133FB607B68D3F81031FA689A42AB
:103AFC0001D90023FB607B68FA68C3F81821FB68C6
:103B0C009BB218461437BD4680BC704780B483B056
:103B1C0000AF78607B680F2B11D9154BD3F8C431EB
:103B2C007A68103A012101FA02F21146104A0B434D
:103B3C00C2F8C4317B68DBB2083BDBB212E07B68B5
:103B4C00072B0DD90A4BD3F8C4317A68083A0121F6
:103B5C0001FA02F2D2431146054A0B40C2F8C431B5
:103B6C007B68DBB218460C37BD4680BC704700BF83
:103B7C0000C00F4080B487B000AFF860B9607A60C5
:103B8C003B6000237B61FB685B69072B7CD801A23F
:103B9C0052F823F0C13B0000ED3B0000253C000037
:103BAC005D3C00005D3C0000ED3B0000253C00004E
:103BBC005D3C0000FB685B68C3F30B02FB689B6811
:103BCC009B0403F4E0131A43FB689B685B0503F446
:103BDC006003134343F00C4343F410337B6155E013
:103BEC00FB685B68C3F30B027B681B0303F4E043C5
:103BFC001A437B68DB0303F460331A433B6A9B0470
:103C0C0003F4E0131A433B6A5B0503F460031343AC
:103C1C0043F004437B6139E0FB685B68C3F30B0240
:103C2C00BB681B0303F4E0431A43BB68DB0303F4D8
:103C3C0060331A433B689B0403F4E0131A433B685C
:103C4C005B0503F46003134343F008437B611DE001
:103C5C00FB685B68C3F30B02BB681B0303F4E04314
:103C6C001A437B68DB0303F460331A433B689B0401
:103C7C0003F4E0131A433B6A5B0503F4600313433C
:103C8C0043F000437B6101E0002300E07B691846B0
:103C9C001C37BD4680BC704780B487B000AFF8605D
:103CAC00B9607A603B60FB68DA69BB681B6801210C
:103CBC0001FA03F31340DBB2002B01D0002344E0E4
:103CCC00BB681B6808335B01FA6813447B61BB68F3
:103CDC001B68012202FA03F3DAB2FB689A60BB6834
:103CEC001B68012202FA03F3DAB2FB681A617B69E2
:103CFC003A689A60FB6801221A6300BFFB681B6B71
:103D0C0003F00103002BF9D0BB68DA687B691A60F9
:103D1C00BB681A697B695A60BB685B69DB0203F498
:103D2C00605297F820305B0003F03E031A4397F87B
:103D3C0024309B0103F4F863134343F440427B6942
:103D4C001A617B697A68DA60012318461C37BD4614
:103D5C0080BC704780B584B000AF78601D20FFF741
:103D6C0063FA0823FB730BE0FB7B013B7A685B0176
:103D7C00134403F5887300221A60FB7B013BFB7331
:103D8C00FB7B002BF0D17B68FF229A607B68FF22C3
:103D9C001A610023FB7306E0FB7B074A0021D15418
:103DAC00FB7B0133FB73FB7B072BF5D900BF00BFFB
:103DBC001037BD4680BD00BFA801001080B582B091
:103DCC0000AF78601D20FFF749FA00BF0837BD46E9
:103DDC0080BD000080B582B000AF78600B46FB70F0
:103DEC00FB7800221946786800F04BF9FB781A46EC
:103DFC000121786800F0C8F80346002B05D0FB7849
:103E0C001A460021786800F01DF9FB781A46022149
:103E1C00786800F0B9F80346002B05D0FB781A46F9
:103E2C000121786800F00EF9FB78034A0021D15487
:103E3C0000BF0837BD4680BDA801001080B582B018
:103E4C0000AF78600B46FB70FB781A46002178684F
:103E5C0000F09AF80346002B21D0FB781A4601217A
:103E6C00786800F091F80346002B07D0FB781A46CF
:103E7C000021786800F0E6F8012311E0FB781A467F
:103E8C000221786800F080F80346002B07D0FB78FD
:103E9C001A460121786800F0D5F8002300E00023D1
:103EAC0018460837BD4680BD80B487B000AFF860B7
:103EBC00B9603B601346FB714FF0FF337B61FA79BD
:103ECC00BB681A6097F82820BB685A61BB687A6A8D
:103EDC005A6097F82830072B4DD801A252F823F0DE
:103EEC000D3F00002D3F0000473F0000613F0000E8
:103EFC00613F00002D3F0000473F0000613F000084
:103F0C00BB683A68DA60BB683A6A1A6103237B6162
:103F1C00BB6802229A607B6A9A08BB685A602BE0E5
:103F2C00BB683A68DA6001237B61164A3B6A52F837
:103F3C0023301A46BB681A611EE0124A3B6852F8DD
:103F4C0023301A46BB68DA60BB683A6A1A610223EE
:103F5C007B6111E00B4A3B6852F823301A46BB6870
:103F6C00DA60084A3B6A52F823301A46BB681A6179
:103F7C0000237B6100E000BF7B6918461C37BD46FF
:103F8C0080BC70470400001080B483B000AF786030
:103F9C000B46FB701346BB70FB78042B43D801A275
:103FAC0052F823F0C53F0000DB3F0000F13F00005A
:103FBC00074000001D4000007B681B68DAB2BB782C
:103FCC00012101FA03F3DBB21340DBB235E07B686D
:103FDC005B68DAB2BB78012101FA03F3DBB2134060
:103FEC00DBB22AE07B68DB68DAB2BB78012101FA2C
:103FFC0003F3DBB21340DBB21FE07B685B69DAB220
:10400C00BB78012101FA03F3DBB21340DBB214E0FD
:10401C007B689B69DAB2BB78012101FA03F3DBB24E
:10402C001340DBB209E07B68DB69DAB2BB780121B3
:10403C0001FA03F3DBB21340DBB218460C37BD4672
:10404C0080BC704780B483B000AF78600B46FB70C7
:10405C001346BB70FB78002B07D1BB78012202FA08
:10406C0003F3DAB27B689A6006E0BB78012202FAAD
:10407C0003F3DAB27B681A6100BF0C37BD4680BC13
:10408C00704780B485B000AF78600B46FB70134668
:10409C00BB70FB7808335B017A681344FB60BB7818
:1040AC00012B06D1FB681B6943F00102FB681A6106
:1040BC0005E0FB681B6923F00102FB681A6100BF75
:1040CC001437BD4680BC7047B0B592B004AFF860F1
:1040DC007A603B600B46FB72002387F83730002375
:1040EC0087F83630FA7A07F1140197F848300293C2
:1040FC00FB6C01933B6800937B68F868FFF7D4FE78
:10410C0038633B6B002B01DA00234FE03B6B03F071
:10411C000103002B02D000237B6005E07868FFF7D9
:10412C00F5FC034687F837303B6B03F00203002B9A
:10413C0002D000233B6005E03868FFF7E7FC03463C
:10414C0087F836301B4A7B6813441B781946194A8A
:10415C003B6813441B781C46174A7B6813441B7836
:10416C001D46154A3B6813441B7807F11400009355
:10417C002B462246FFF7FEFCF86207F1140197F874
:10418C003630019397F8373000930023FA6AF868B9
:10419C00FFF782FD0346002B01D1002306E0FB7ADA
:1041AC0001221946F868FFF76CFF012318463837CF
:1041BC00BD46B0BD0C41010024410100B0B590B02A
:1041CC0004AFF860B9607A603B6007F1140197F8AE
:1041DC00443002933B6C01933B6800937B68002254
:1041EC00F868FFF761FEF862FB6A002B01DA002326
:1041FC003DE0FB6A03F00103002B01D000237B6040
:10420C00FB6A03F00203002B01D000233B603A6AE7
:10421C00BB681A607A6ABB685A60BA6CBB689A60F1
:10422C00154A7B6813441B781946134A3B681344A0
:10423C001B781C46114A7B6813441B781D460F4A99
:10424C003B6813441B7807F1140000932B4622465D
:10425C00FFF790FC0246BB68DA60BB6C002B05D004
:10426C00BB68DB6823F00042BB68DA6001231846A8
:10427C003037BD46B0BD00BF0C41010024410100E8
:10428C0080B594B004AFF8607A601A460B46FB72A6
:10429C001346BB727B68BB63002387F83F30002357
:1042AC0087F83E307B681B687B637B685B683B638D
:1042BC00FA7A07F11401BB7A0293002301933B6B4A
:1042CC0000937B6BF868FFF7EFFDF862FB6A002B3D
:1042DC0001DA002337E0FB6A03F00103002B02D064
:1042EC0000237B6305E0786BFFF710FC034687F82F
:1042FC003F30FB6A03F00203002B02D000233B6328
:10430C0005E0386BFFF702FC034687F83E30BB6BC9
:10431C00DA68BB6B986807F1140197F83E3001938B
:10432C0097F83F3000930346F868FFF7B5FC034657
:10433C00002B01D1002306E0FB7A01221946F86814
:10434C00FFF79FFE012318464037BD4680BD000095
:10435C0080B584B000AF786039600023FB73002314
:10436C00FB7316E0FB7B1A4605217868FFF70CFE01
:10437C000346002B0AD1FB7B0A4AD35C002B05D1E8
:10438C00FB7B084A0121D154FB7B06E0FB7B01330C
:10439C00FB73FB7B072BE5D9002318461037BD4672
:1043AC0080BD00BFA801001080B582B000AF0346ED
:1043BC00FB71FA7907491346DB009B1A9B000B44EF
:1043CC0004331B781846FEF72FFF00BF0837BD4695
:1043DC0080BD00BF6400001080B582B000AF034602
:1043EC00FB71FA7907491346DB009B1A9B000B44BF
:1043FC0004331B781846FEF731FF00BF0837BD4663
:10440C0080BD00BF6400001080B582B000AF0346D1
:10441C00FB71FB79044AD35C1846FFF703F903469A
:10442C0018460837BD4680BD3C41010080B483B0BE
:10443C0000AF78607B683C229A617B6860221A60CE
:10444C0000BF0C37BD4680BC704780B483B000AF52
:10445C0078607B6838229A617B6844221A6000BFBE
:10446C000C37BD4680BC704780B483B000AF786019
:10447C007B681B6803F01003002B0CBF0123002387
:10448C00DBB218460C37BD4680BC704780B483B095
:10449C0000AF78607B685B6803F0F80318460C3754
:1044AC00BD4680BC704780B582B000AF786078683C
:1044BC00FFF7ECFF03465F2BD4BF01230023DBB2D5
:1044CC0018460837BD4680BD80B485B000AF786013
:1044DC00084611461A460346FB700B46BB70134642
:1044EC007B70FB78013BFB6079787B68FA680C3257
:1044FC0043F82210FB78012B03D1BA787B68DA6081
:10450C000BE07B682033BB60FB6803F18043013B0D
:10451C009B00BA681344BA781A6000BF1437BD46C2
:10452C0080BC704780B483B000AF0346FB710B4670
:10453C00BB7113467B717B7943F001037B71FA7974
:10454C00BB795340DBB21A467B79DB431340002B1B
:10455C000CBF01230023DBB218460C37BD4680BCD0
:10456C00704780B582B000AF78600B46FB70FB786B
:10457C005B08DBB2002B01D100233CE07B68DB68DD
:10458C00D8B27B681B6BDAB2FB781946FFF7CAFF0F
:10459C000346002B01D001232DE07B681B6AD8B2A7
:1045AC007B685B6BDAB2FB781946FFF7BBFF0346FF
:1045BC00002B01D002231EE07B685B6AD8B27B68BB
:1045CC009B6BDAB2FB781946FFF7ACFF0346002B66
:1045DC0001D003230FE07B689B6AD8B27B68DB6B4E
:1045EC00DAB2FB781946FFF79DFF0346002B01D08A
:1045FC00042300E0002318460837BD4680BD0000A8
:10460C0080B584B000AF786039603C23FB6078687B
:10461C00FFF73CFF0346582B00F2158101A252F81C
:10462C0023F000BF414800005348000053480000ED
:10463C005348000053480000534800005348000002
:10464C0053480000954700005348000053480000B1
:10465C0053480000534800005348000053480000E2
:10466C005348000095470000534800005348000091
:10467C0053480000534800005348000053480000C2
:10468C0053480000B3470000534800005348000053
:10469C0053480000534800005348000053480000A2
:1046AC0053480000294800005348000053480000BC
:1046BC005348000053480000534800005348000082
:1046CC0053480000B3470000534800005348000013
:1046DC005348000053480000534800005348000062
:1046EC00534800002948000053480000534800007C
:1046FC005348000053480000534800005348000042
:10470C00534800003948000053480000534800004B
:10471C005348000053480000534800005348000021
:10472C00534800001748000053480000534800004D
:10473C005348000053480000534800005348000001
:10474C00534800002948000053480000534800001B
:10475C0053480000534800005348000053480000E1
:10476C0053480000FB47000053480000534800002A
:10477C0053480000534800005348000053480000C1
:10478C0053480000F34700003B681B785B003A6815
:10479C009268002A0CBF01220022D2B213431A469F
:1047AC007B689A604FE03B689B68002B0CD13B68A0
:1047BC001B69002B02D06FF0200301E06FF0100397
:1047CC00FA681340FB603EE03B685B68591C3A6832
:1047DC0051601B781A467B689A603B689B685A1E2E
:1047EC003B689A602FE0FB6823F01003FB607B684A
:1047FC0098683B68DB68591C3A68D160C2B21A7081
:10480C003B681B695A1E3B681A613B681B69012B8C
:10481C0018DDFB6823F00403FB6013E03B68012206
:10482C001A75FB6823F01003FB600CE03B68022256
:10483C001A7508E03B6803221A75FB6823F0100315
:10484C00FB6000E000BFFB6883F03C027B681A60F1
:10485C007B68FA689A61FB6803F01003002B03D0A5
:10486C003B681B7D022B08D13B681B7D042B02D1BE
:10487C003B6800221A75002300E00123184610370C
:10488C00BD4680BD80B582B000AF78607868FFF718
:10489C00FDFD0346B02B3FD0B02B46DC782B39DC2A
:1048AC00602B42DB603B182B3FD801A252F823F05F
:1048BC0025490000374900003749000037490000FE
:1048CC0037490000374900003749000037490000DC
:1048DC0025490000374900003749000037490000DE
:1048EC0037490000374900003749000037490000BC
:1048FC0025490000374900003749000037490000BE
:10490C00374900003749000037490000374900009B
:10491C0025490000A82B08D17B689B68DBB219469F
:10492C007868FFF71EFE034600E0002318460837A0
:10493C00BD4680BD80B584B000AF786039603C2343
:10494C00FB600023BB603B6804221A757868FFF794
:10495C009DFD0346603B682B00F23A8101A252F8A0
:10496C0023F000BF474B0000DD4B0000DD4B000087
:10497C00DD4B0000DD4B0000DD4B0000DD4B00008B
:10498C00DD4B0000474B0000DD4B0000DD4B000011
:10499C00DD4B0000DD4B0000DD4B0000DD4B00006B
:1049AC00DD4B0000474B0000DD4B0000DD4B0000F1
:1049BC00DD4B0000DD4B0000DD4B0000DD4B00004B
:1049CC00DD4B0000474B0000DD4B0000DD4B0000D1
:1049DC00DD4B0000DD4B0000DD4B0000DD4B00002B
:1049EC00DD4B0000154B0000DD4B0000DD4B0000E3
:1049FC00DD4B0000DD4B0000DD4B0000DD4B00000B
:104A0C00DD4B0000AB4B0000DD4B0000DD4B00002C
:104A1C00DD4B0000DD4B0000DD4B0000DD4B0000EA
:104A2C00DD4B0000154B0000DD4B0000DD4B0000A2
:104A3C00DD4B0000DD4B0000DD4B0000DD4B0000CA
:104A4C00DD4B0000AB4B0000DD4B0000DD4B0000EC
:104A5C00DD4B0000DD4B0000DD4B0000DD4B0000AA
:104A6C00DD4B0000AB4B0000DD4B0000DD4B0000CC
:104A7C00DD4B0000DD4B0000DD4B0000DD4B00008A
:104A8C00DD4B0000694B0000DD4B0000DD4B0000EE
:104A9C00DD4B0000DD4B0000DD4B0000DD4B00006A
:104AAC00DD4B0000694B0000DD4B0000DD4B0000CE
:104ABC00DD4B0000DD4B0000DD4B0000DD4B00004A
:104ACC00DD4B0000794B0000DD4B0000DD4B00009E
:104ADC00DD4B0000DD4B0000DD4B0000DD4B00002A
:104AEC00DD4B0000AB4B0000DD4B0000DD4B00004C
:104AFC00DD4B0000DD4B0000DD4B0000DD4B00000A
:104B0C00DD4B0000AB4B00007B6898683B68DB68B2
:104B1C00591C3A68D160C2B21A703B681B695A1EA4
:104B2C003B681A610523BB603B681B69012B4ADD9E
:104B3C00FB6823F00403FB6045E07B689B68DBB2F9
:104B4C0023F00103DAB23B681A703B681B69012B36
:104B5C003BDDFB6823F00403FB6036E07B689B685D
:104B6C00DBB223F00103DAB23B681A703B685B6876
:104B7C00591C3A6851601B781A467B689A603B68EE
:104B8C009B685A1E3B689A603B689B68002B03DD50
:104B9C00FB6823F00403FB600623BB6018E00223D0
:104BAC00BB60FB6823F00403FB603B6800221A75B2
:104BBC003B681B7803F00103002B08D0FB6823F043
:104BCC002003FB6003E000BF02E000BF00E000BF79
:104BDC00FB6883F03C027B681A607B68FA689A6118
:104BEC00BB6818461037BD4680BD00BF80B485B089
:104BFC0000AF03460A46FB711346BB71FA791346A4
:104C0C00DB009B1A9B000B4A1344FB60BB79012B06
:104C1C000AD1FB681B691433BB6000BFBB681B78EF
:104C2C00DBB2042BFAD000E000BF1437BD4680BCC9
:104C3C00704700BF6400001080B584B000AF03461D
:104C4C000A46FB711346BB71FA791346DB009B1ABB
:104C5C009B00104A1344FB60BB79012B15D1FB68F8
:104C6C001B691433BB600AE0FB79184600F0BAFAF2
:104C7C000346002B03D0FB79184600F0BFF9BB6844
:104C8C001B78DBB2042BEFD000E000BF1037BD4621
:104C9C0080BD00BF6400001080B582B000AF034639
:104CAC00FB71FB791846FFF77FFBFA79064913462F
:104CBC00DB009B1A9B000B441B686C229A6100BFA3
:104CCC000837BD4680BD00BF6400001080B582B0BF
:104CDC0000AF0346FB71FA7908491346DB009B1AB7
:104CEC009B000B441B687C229A61FB791846FFF7EA
:104CFC0073FB00BF0837BD4680BD00BF64000010C9
:104D0C0080B584B000AF03463960FB71FB7918465F
:104D1C00FFF77AFB02463B68B2FBF3F3FB60FA79D0
:104D2C0010491346DB009B1A9B000B441B68FA6866
:104D3C0052081A61FA790B491346DB009B1A9B0047
:104D4C000B441B681969FA7906481346DB009B1A59
:104D5C009B0003441B68FA68521A5A6100BF103753
:104D6C00BD4680BD6400001090B583B000AF034613
:104D7C00FB71FB791846FFF747FBFA790B49134691
:104D8C00DB009B1A9B000B441B681969FA79074CD2
:104D9C001346DB009B1A9B0023441B685B690B4486
:104DAC00B0FBF3F318460C37BD4690BD6400001001
:104DBC0080B485B000AF03463960FB71FA791346B5
:104DCC00DB009B1A9B000B4A1344FB60FB681B69BE
:104DDC00002B02D1FB683A689A60FB689B683A68C2
:104DEC009A420CBF01230023DBB218461437BD4690
:104DFC0080BC70476400001080B483B000AF0346E1
:104E0C00FB71FA7906491346DB009B1A9B000B4495
:104E1C0008331B6818460C37BD4680BC704700BF72
:104E2C006400001080B584B000AF03463960FB719C
:104E3C00FA791346DB009B1A9B00204A1344FB6053
:104E4C00FB689B68FA790321104698473B6804225B
:104E5C001A75FB683A681A61FB685B69002B04D110
:104E6C00FB681B681846FFF7E1FAFB689B68FA7948
:104E7C00012110469847FB6800221A6100BFFB68AD
:104E8C001B681846FFF7F0FA0346002BF7D0FB68B7
:104E9C009B6903F47F43002B04D0FB681B68184606
:104EAC00FFF7D3FAFB689B68FA7904211046984700
:104EBC003B681B7D18461037BD4680BD6400001052
:104ECC0080B588B000AF3A601A460346FB710B46BA
:104EDC00BB7113467B7107F1080300221A605A60FC
:104EEC009A60DA601A615A61BB793B723B68FB606D
:104EFC007B793B6100BF07F10802FB79114618462C
:104F0C00FFF790FF0346022BF5D07A793B69D31A51
:104F1C0018462037BD4680BD80B588B000AF3B60D9
:104F2C000346FB710B46BB7113467B7107F10803FB
:104F3C0000221A605A609A60DA601A615A61BB7971
:104F4C003B727B1DFB6001233B613B687B61BB6A51
:104F5C00BB6100BF07F10802FB7911461846FFF749
:104F6C0061FF0346022BF5D0BB69BA6AD31A184607
:104F7C002037BD4680BD80B58AB000AFBA607B607B
:104F8C000346FB730B46BB7307F1100300221A6038
:104F9C005A609A60DA601A615A61BB7B3B74BB68D9
:104FAC00FB617B683B6200BF07F11002FB7B114683
:104FBC001846FFF737FF0346022BF5D03B6A7A6899
:104FCC00D31A18462837BD4680BD000080B582B084
:104FDC0000AF0346FB71FA7907491346DB009B1AB5
:104FEC009B000B441B681846FFF75DFA03461846F6
:104FFC000837BD4680BD00BF6400001080B582B08C
:10500C0000AF0346FB71FA7913491346DB009B1A78
:10501C009B000B441868FA790F491346DB009B1A66
:10502C009B000B4410331B681946FFF7E9FA034643
:10503C00002B0CD1FA7908491346DB009B1A9B0014
:10504C000B4408331B68FA7902211046984700BFBD
:10505C000837BD4680BD00BF6400001080B586B027
:10506C0000AFBA607B600346FB730B46BB73FA7BE5
:10507C001346DB009B1A9B001D4A13447B61FA7B91
:10508C00B97B13469B0013440B44DB00194A1344B1
:10509C003B613B69BA681A603B697A685A60BB7BB2
:1050AC00002B08D07B691868BB681A7897F82030F9
:1050BC00B97BFFF709FA7B699B6903F47F43002BEB
:1050CC0008D17B691B69002B04D17B691B681846CE
:1050DC00FFF7BBF97B699B69BA7B0832012101FAA6
:1050EC0002F21A437B699A6100BF1837BD4680BD36
:1050FC0064000010B001001080B586B000AF03460C
:10510C00FB71FA791346DB009B1A9B00284A134467
:10511C007B617B695B69002B18D17B691B68184626
:10512C00FFF7B0FB0346FB74FA79F97C13469B003E
:10513C0013440B44DB001F4A1344FB60FB681A68E2
:10514C007B695A61FB685A687B69DA607B695B69C9
:10515C001B785AB27B691B69002B14BF01230023F7
:10516C00DBB25BB213435AB27B695B69D2B21A7081
:10517C007B691A687B695B6919461046FFF7DAFB95
:10518C00B860BB68002B0ED07B695B691B7D002B64
:10519C0002D17B6900225A617B69DB68BA68D1B2A3
:1051AC00FA791046984700BF1837BD4680BD00BF3E
:1051BC0064000010B001001080B483B000AF03464F
:1051CC00FB71FA7906491346DB009B1A9B000B44D2
:1051DC001B6840229A6100BF0C37BD4680BC7047EB
:1051EC006400001080B483B000AF0346FB71FA7901
:1051FC0009491346DB009B1A9B000B441B681B6878
:10520C0003F00803002B14BF01230023DBB2184664
:10521C000C37BD4680BC7047640000102DE9B04FC0
:10522C00A8B000AF78673967FA66BB660023A7F8A9
:10523C009A300023A7F898304FF6FF73A7F89030F8
:10524C001B20FEF7EFF9C7F88C003B6F1B680022A0
:10525C009A4693463B6F5B79DBB2002298469146A7
:10526C0008FB0BF20AFB09F31344AAFB08452B4479
:10527C001D464FF000024FF00003AB0043EA94735D
:10528C00A2004FF000004FF00001190441EA124156
:10529C001004D7F88C300022BB63FA63D7E90E23D5
:1052AC00FAF76CFF02460B46C7E920234023C7F8E8
:1052BC00943029E0D7F8943000223B637A63D7F816
:1052CC008030D7E90C452A4602FB03F2D7F884302C
:1052DC00214601FB03F31A44D7F880302146A3FB87
:1052EC00013179663B667B6ED3187B66D7E918343F
:1052FC001A46B2F5803F234673F1000309D3D7F861
:10530C009430013BC7F89430D7F89430002BD1D1AE
:10531C0000E000BFD7F89430002B01D10023F9E056
:10532C00D7F894300022BB62FA62D7F88430D7E900
:10533C000A45224602FB03F2D7F88030294601FBCE
:10534C0003F31A44D7F880302146A3FB013179646A
:10535C003B647B6CD3187B64D7E91034C7E92034E9
:10536C00C7E92034FF23C7F89C303BE0D7F88020F6
:10537C00D7F89C3002FB03F3FB67FB6F03F07F4312
:10538C00002B29D1FB6FA7F87A30B7F87A30B3F538
:10539C00004F05D9B7F87A305B42A7F8923003E09A
:1053AC00B7F87A30A7F89230B7F89230002B04D1C6
:1053BC00D7F89C30A7F8983018E0B7F89220B7F8D7
:1053CC0090309A4209D2B7F89230A7F89030D7F8BB
:1053DC009C30A7F8983000E000BFD7F89C30013B18
:1053EC00C7F89C30D7F89C30002BBFD1B7F8983059
:1053FC0000223B627A623B6F1B680022BB61FA6140
:10540C00D7E908342246D7E90689414601FB02F266
:10541C004D4618462146034603FB05F3134402464A
:10542C004146A2FB0121F965BA65FA6D1344FB658F
:10543C003B6F5B79DBB200223B617A61D7E91634B2
:10544C002246D7E90489414601FB02F24D46184633
:10545C002146034603FB05F3134402464146A2FBD7
:10546C00012179653A657A6D13447B65D7F89430E0
:10547C000022BB60FA60D7E914342246D7E90289CE
:10548C00414601FB02F24D4618462146034603FBFA
:10549C0005F3134402464146A2FB0121F964BA64A8
:1054AC00FA6C1344FB644FF000004FF00001D7E995
:1054BC0012452B469900224641EA927123469800E8
:1054CC00D7F88C3000223B607A60D7E90023FAF7DA
:1054DC0055FE02460B461346A7F89A30B7F89A3099
:1054EC00FF2B02D9FF23A7F89A30B7F89A30002B7C
:1054FC0002D10123A7F89A30FB6EB7F89A201A80D4
:10550C00BB6EB7F898201A80D7F8C030D7F8942023
:10551C001A6001231846A037BD46BDE8B08F80B590
:10552C0082B000AF78601B20FDF77EFE00BF08370D
:10553C00BD4680BD80B582B000AF78607B6840F21C
:10554C00E1725A607B6848F2E1721A607B68002253
:10555C00DA617B6800221A637B6800225A637B68DD
:10556C0000225A617B6800229A611B20FDF776FEAF
:10557C0000BF0837BD4680BD80B588B002AF7860EB
:10558C00396007F1100107F1120207F10C030093C7
:10559C000B4639687868FFF741FE0346002B01D1B2
:1055AC0000233FE07B681B6823F4FF4323F0670371
:1055BC007B613B685B79082B0CD93B685B79102BC2
:1055CC0004D87B6943F001037B6103E07B6943F002
:1055DC0003037B613B681B79012B01D1042300E0A1
:1055EC0000237A6913437B613B685B79013B9B0128
:1055FC001A4647F6C07313407A6913437B617B6884
:10560C007A691A607B6800221A63FB685A1E7B68F1
:10561C009A623B8A1A467B8A1B0213431A467B68A2
:10562C001A62012318461837BD4680BD80B588B074
:10563C0002AF7860396007F1100107F1120207F12F
:10564C000C0300930B4639687868FFF7E7FD0346B7
:10565C00002B01D100233FE07B685B6823F4FF4300
:10566C0023F067037B613B685B79082B0CD93B68A3
:10567C005B79102B04D87B6943F001037B6103E059
:10568C007B6943F003037B613B681B79012B01D1E0
:10569C00042300E000237A6913437B613B685B7948
:1056AC00013B9B011A4647F6C07313407A691343BA
:1056BC007B617B687A695A607B6800225A63FB685D
:1056CC005A1E7B68DA623B8A1A467B8A1B0213439A
:1056DC001A467B685A62012318461837BD4680BDAE
:1056EC0080B485B000AF78600B46FB701346BB707E
:1056FC00BB7803F00F03BB70FB78012B06D17B68E2
:10570C00DB6943F002027B68DA6105E07B68DB69E8
:10571C0023F002027B68DA617B68DB6923F4702377
:10572C00FB60BB781B0403F47022FB681A437B6894
:10573C00DA6100BF1437BD4680BC704780B485B0B9
:10574C0000AF78600B46FB701346BB70BB7803F060
:10575C000F03BB70FB78012B06D17B68DB6943F030
:10576C0001027B68DA6105E07B68DB6923F00102EA
:10577C007B68DA617B68DB6923F47063FB60BB7860
:10578C001B0203F47062FB681A437B68DA6100BF8A
:10579C001437BD4680BC704780B483B000AF7860CE
:1057AC00084611461A460346FB700B46BB7013465F
:1057BC007B70FB787A6804339B0013445A68FB783F
:1057CC0022F47022796804339B000B445A60FB78F6
:1057DC007A6804339B0013445A687B781B0419467F
:1057EC00FB780A43796804339B000B445A60BB78FE
:1057FC00012B0ED1FB787A6804339B0013445A6852
:10580C00FB7842F00202796804339B000B445A6027
:10581C000DE0FB787A6804339B0013445A68FB78DC
:10582C0022F00202796804339B000B445A6000BFDB
:10583C000C37BD4680BC704780B483B000AF786035
:10584C00084611461A460346FB700B46BB701346BE
:10585C007B70FB787A6804339B0013445A68FB789E
:10586C0022F47062796804339B000B445A60FB7815
:10587C007A6804339B0013445A687B781B021946E0
:10588C00FB780A43796804339B000B445A60BB785D
:10589C00012B0ED1FB787A6804339B0013445A68B1
:1058AC00FB7842F00102796804339B000B445A6088
:1058BC000DE0FB787A6804339B0013445A68FB783C
:1058CC0022F00102796804339B000B445A6000BF3C
:1058DC000C37BD4680BC704780B586B002AFF8600F
:1058EC007B600B46FB721346BB727B6898087B6827
:1058FC00DBB203F00303DBB2BA7AF97A0093034606
:10590C00F86800F004F800BF1037BD4680BD80B4C5
:10591C0087B000AFF8607B600B46FB721346BB721E
:10592C00BB7A03F00F03DBB25B00FB75FB7A5B0009
:10593C00DAB2BB7A1B09DBB21344BB75BA7DFB68C8
:10594C0053F82220FB7D032101FA03F3DB431340C0
:10595C003B6197F82020FB7D02FA03F31946BA7DD0
:10596C003B691943FB6843F82210BA7DFB6810327F
:10597C0053F82220FB7D032101FA03F3DB43134090
:10598C003B61FB7D7A6802FA03F1BA7D3B691943EE
:10599C00FB68103243F8221000BF1C37BD4680BC98
:1059AC00704780B586B000AFF860B9607A600023AC
:1059BC007B611FE07B699B00BA6813441B78C3F3BF
:1059CC000203DBB219467B699B00BA6813441B784F
:1059DC00C3F3C403DBB218467B699B00BA6813445B
:1059EC001B68C3F317230246F868FFF775FF7B6942
:1059FC0001337B617A697B689A42DBD300BF00BFBD
:105A0C001837BD4680BD000080B483B000AF78600D
:105A1C007B681B6823F003027B681A60064B1B69CA
:105A2C00054A23F00403136130BF00BF00BF0C37DD
:105A3C00BD4680BC704700BF00ED00E080B483B071
:105A4C0000AF78607B681B6823F003027B681A60E8
:105A5C00064B1B69054A43F00403136130BF00BFBA
:105A6C0000BF0C37BD4680BC704700BF00ED00E0A6
:105A7C0080B483B000AF78607B681B6823F00303AD
:105A8C0043F001027B681A60064B1B69054A43F020
:105A9C000403136130BF00BF00BF0C37BD4680BC90
:105AAC00704700BF00ED00E080B483B000AF7860B9
:105ABC007B681B6843F003027B681A60064B1B690A
:105ACC00054A43F00403136130BF00BF00BF0C371D
