:100000000080001085070000CD070000CD0700002C
:10001000CD070000CD070000CD0700000000000064
:10002000000000000000000000000000CD070000FC
:10003000CD07000000000000CD0700007D02000099
:10004000CD070000CD070000CD070000CD07000060
:10005000CD070000CD070000CD070000CD07000050
:10006000CD070000CD070000CD070000CD07000040
:10007000CD070000CD070000CD070000CD07000030
:10008000CD070000CD070000CD070000CD07000020
:10009000CD070000CD070000CD070000CD07000010
:1000A000CD070000CD070000CD070000CD07000000
:1000B000CD070000CD070000CD070000CD070000F0
:0C00C000CD070000CD070000CD070000B8
:1000CC0010B5054C237833B9044B13B10448AFF386
:1000DC0000800123237010BD000000100000000000
:1000EC003C08000008B5034B1BB103490348AFF3B0
:1000FC00008008BD00000000040000103C08000057
:10010C0080B483B000AF03463960FB7197F90730B8
:10011C00002B0BDA3B68DAB20C49FB7903F00F03C6
:10012C00043BD200D2B20B441A7609E03B68DAB237
:10013C00074997F90730D200D2B20B4483F8002359
:10014C0000BF0C37BD4680BC704700BF00ED00E01F
:10015C0000E100E080B582B000AF78607B68013BC5
:10016C00B3F1807F01D301230FE00A4A7B68013B86
:10017C0053601F214FF0FF30FFF7C2FF054B0022E9
:10018C009A60044B07221A60002318460837BD46B4
:10019C0080BD00BF10E000E080B582B000AF786099
:1001AC000F2000F0AFF900BF0837BD4680BD80B40A
:1001BC0083B000AF7860084611461A460346FB70C0
:1001CC000B46BB7013467B707B78002B0ED0FB78F4
:1001DC005B017A6813449969BB7801229A40FB78D9
:1001EC005B01786803440A439A610DE0FB785B017C
:1001FC007A681344D969BB7801229A40FB785B0179
:10020C00786803440A43DA6100BF0C37BD4680BCF2
:10021C00704780B584B000AFF860B96011461A46DB
:10022C000B46FB711346BB71BB68D9B2BB79FA792B
:10023C00F868FFF7BCFF00BF1037BD4680BD80B427
:10024C0085B000AFF8600B467A60FB72FB7A5B01FD
:10025C00FA6813441968FB7A5B01FA6813447A68EC
:10026C000A431A6000BF1437BD4680BC70470000BB
:10027C0080B400AF044B1B680133034A136000BF0A
:10028C00BD4680BC704700BF1C00001080B485B018
:10029C0000AF7860084B1B68FB6000BF064B1A6808
:1002AC00FB68D31A7A689A42F8D800BF00BF14379B
:1002BC00BD4680BC704700BF1C00001080B500AF6D
:1002CC0000F02CF81248FFF767FF124B1B68124A1C
:1002DC00A2FB03239B091846FFF73CFF8022002159
:1002EC000B48FFF7ACFF0123072200210848FFF75A
:1002FC0090FF4FF4FA70FFF7C9FF0023072200218B
:10030C000348FFF786FF4FF4FA70FFF7BFFFEAE7E9
:10031C0000C0092020000010D34D621080B500AF42
:10032C0000F096F90346024A136000BF80BD00BF7F
:10033C002000001080B400AF064BD3F8883003F0D7
:10034C008073002B14BF01230023DBB21846BD467B
:10035C0080BC704700C00F4080B400AF064BD3F890
:10036C00883003F00073002B14BF01230023DBB291
:10037C001846BD4680BC704700C00F4080B483B0A7
:10038C0000AF0346FB71094AFB795B0113448C33C4
:10039C00AA221A60054AFB795B0113448C3355225F
:1003AC001A6000BF0C37BD4680BC704700C00F40C0
:1003BC0080B400AF054BD3F80C31DBB203F0030370
:1003CC00DBB21846BD4680BC704700BF00C00F4072
:1003DC0080B400AF024B1B681846BD4680BC70470A
:1003EC001C08000080B400AF024B1846BD4680BC10
:1003FC00704700BF00093D0080B400AF024B1B6882
:10040C001846BD4680BC70472008000080B500AF80
:10041C0000F0C2F80346184680BD000080B584B0D9
:10042C0000AF03463960FB710C4AFB7904335B0166
:10043C0013441B68FB60FA683B681343FB60074A74
:10044C00FB7904335B011344FA681A60FB79184694
:10045C00FFF794FF00BF1037BD4680BD00C00F40B2
:10046C0080B584B000AF03463960FB710D4AFB794F
:10047C0004335B0113441B68FB603B68DB43FA6885
:10048C001340FB60074AFB7904335B011344FA68A1
:10049C001A60FB791846FFF771FF00BF1037BD4695
:1004AC0080BD00BF00C00F4080B586B000AF0346D2
:1004BC00B9607A60FB73FB7B002B05D17B681B0456
:1004CC00BA6813437B6104E07B685B01BA68134331
:1004DC007B610B4AFB7B04335B01134404337A6965
:1004EC001A60074AFB7B04335B01134401221A6038
:1004FC00FB7B1846FFF742FF00BF1837BD4680BD97
:10050C0000C00F4080B485B000AF0346FB71FB798F
:10051C00FB60084BD3F8C4300121FA6801FA02F2EF
:10052C001146044A0B43C2F8C43000BF1437BD4611
:10053C0080BC704700C00F4080B582B000AFFFF7A1
:10054C000BFF0346002B02D00123FB7101E00023BB
:10055C00FB71FB7918460837BD4680BD80B483B06B
:10056C0000AF7860044A7B68C2F8043100BF0C37D6
:10057C00BD4680BC704700BF00C00F4080B400AFC8
:10058C00044BD3F80431DBB201331846BD4680BCB2
:10059C00704700BF00C00F4080B500AFFFF708FFE9
:1005AC000346022B0ED0022B10DC002B02D0012BA9
:1005BC0004D00BE0FFF716FF034608E0FFF708FF37
:1005CC00034604E0FFF718FF034600E0002318463B
:1005DC0080BD000080B584B000AF0023FB60FFF746
:1005EC00A9FE0346002B18D00E4BD3F88430C3F36E
:1005FC000E030133BB600B4BD3F884301B0CDBB206
:10060C0001337B60FFF702FF0246BB6802FB03F37A
:10061C005A007B68B2FBF3F3FB60FB68184610379B
:10062C00BD4680BD00C00F4080B500AFFFF784FF12
:10063C000346002B05D0012B07D1FFF7CBFF034658
:10064C0004E0FFF7A9FF034600E00023184680BD35
:10065C0098B500AFFFF7E8FF0446FFF78FFF03469E
:10066C00B4FBF3F3184698BD80B400AF064BD3F837
:10067C00883003F08073002B14BF01230023DBB2FE
:10068C001846BD4680BC704700C00F4080B400AF18
:10069C00064BD3F8883003F08063002B14BF012382
:1006AC000023DBB21846BD4680BC704700C00F402B
:1006BC0080B400AF064BD3F8883003F00073002BE6
:1006CC0014BF01230023DBB21846BD4680BC704723
:1006DC0000C00F4080B483B000AF0346FB71044AE6
:1006EC00FB79C2F80C3100BF0C37BD4680BC70479B
:1006FC0000C00F4080B500AFFFF7DAFF0346002BB8
:10070C0003D002210020FFF7ABFEFFF7ADFF03463D
:10071C00002B03D001210020FFF7A2FE0020FFF7E1
:10072C001DFF0020FFF7D6FF00222C210020FFF731
:10073C00BBFE01210020FFF771FE0220FFF70EFF28
:10074C0000BFFFF7A3FF034683F00103DBB2002BCE
:10075C00F7D102210020FFF761FE00BF80BD80B5FC
:10076C0000AFFFF7C7FF00BF80BD80B500AFFFF73C
:10077C00F6FF00BF80BD00000C4D0D4C03E02B6854
:10078C002360043504340B4B9C42F8D10A4C02E034
:10079C00002323600434094B9C42F9D1FFF7E5FF99
:1007AC0000F010F8FFF78AFDFEE700BF44080000D8
:1007BC0000000010000000100000001024000010C9
:1007CC00FEE7000070B500260C4D0D4C641BA41008
:1007DC00A64209D100F020F800260A4D0A4C641BF1
:1007EC00A410A64205D170BD55F8043B98470136BC
:1007FC00EEE755F8043B98470136F2E73C08000059
:10080C003C0800003C08000040080000000000000C
:10081C000087930300800000F8B500BFF8BC08BC4B
:10082C009E467047F8B500BFF8BC08BC9E467047A2
:04083C00F1000000C7
:04084000CD000000E7
:04000003000007856D
:00000001FF
